{
  "contractName": "Medicine",
  "abi": [
    {
      "inputs": [],
      "payable": false,
      "stateMutability": "nonpayable",
      "type": "constructor"
    },
    {
      "constant": true,
      "inputs": [
        {
          "internalType": "uint256",
          "name": "",
          "type": "uint256"
        }
      ],
      "name": "addresses",
      "outputs": [
        {
          "internalType": "address",
          "name": "",
          "type": "address"
        }
      ],
      "payable": false,
      "stateMutability": "view",
      "type": "function"
    },
    {
      "constant": true,
      "inputs": [],
      "name": "admin",
      "outputs": [
        {
          "internalType": "address",
          "name": "",
          "type": "address"
        }
      ],
      "payable": false,
      "stateMutability": "view",
      "type": "function"
    },
    {
      "constant": true,
      "inputs": [],
      "name": "medicineCount",
      "outputs": [
        {
          "internalType": "uint256",
          "name": "",
          "type": "uint256"
        }
      ],
      "payable": false,
      "stateMutability": "view",
      "type": "function"
    },
    {
      "constant": true,
      "inputs": [
        {
          "internalType": "uint256",
          "name": "",
          "type": "uint256"
        }
      ],
      "name": "medicines",
      "outputs": [
        {
          "internalType": "uint256",
          "name": "id",
          "type": "uint256"
        },
        {
          "internalType": "string",
          "name": "medname",
          "type": "string"
        },
        {
          "internalType": "string",
          "name": "manufaname",
          "type": "string"
        },
        {
          "internalType": "string",
          "name": "batchNo",
          "type": "string"
        },
        {
          "internalType": "string",
          "name": "manufadate",
          "type": "string"
        },
        {
          "internalType": "string",
          "name": "expdate",
          "type": "string"
        },
        {
          "internalType": "string",
          "name": "category",
          "type": "string"
        },
        {
          "internalType": "uint256",
          "name": "price",
          "type": "uint256"
        },
        {
          "internalType": "uint256",
          "name": "quantity",
          "type": "uint256"
        }
      ],
      "payable": false,
      "stateMutability": "view",
      "type": "function"
    },
    {
      "constant": true,
      "inputs": [
        {
          "internalType": "address",
          "name": "",
          "type": "address"
        }
      ],
      "name": "users",
      "outputs": [
        {
          "internalType": "string",
          "name": "name",
          "type": "string"
        },
        {
          "internalType": "string",
          "name": "addr",
          "type": "string"
        },
        {
          "internalType": "string",
          "name": "role",
          "type": "string"
        },
        {
          "internalType": "string",
          "name": "approved",
          "type": "string"
        }
      ],
      "payable": false,
      "stateMutability": "view",
      "type": "function"
    },
    {
      "constant": true,
      "inputs": [],
      "name": "usersCount",
      "outputs": [
        {
          "internalType": "uint256",
          "name": "",
          "type": "uint256"
        }
      ],
      "payable": false,
      "stateMutability": "view",
      "type": "function"
    },
    {
      "constant": false,
      "inputs": [
        {
          "internalType": "string",
          "name": "_medname",
          "type": "string"
        },
        {
          "internalType": "string",
          "name": "_manufaname",
          "type": "string"
        },
        {
          "internalType": "string",
          "name": "_batchNo",
          "type": "string"
        },
        {
          "internalType": "string",
          "name": "_manufadate",
          "type": "string"
        },
        {
          "internalType": "string",
          "name": "_expdate",
          "type": "string"
        },
        {
          "internalType": "string",
          "name": "_category",
          "type": "string"
        },
        {
          "internalType": "uint256",
          "name": "_price",
          "type": "uint256"
        },
        {
          "internalType": "uint256",
          "name": "_quantity",
          "type": "uint256"
        }
      ],
      "name": "addMedicine",
      "outputs": [],
      "payable": false,
      "stateMutability": "nonpayable",
      "type": "function"
    },
    {
      "constant": false,
      "inputs": [
        {
          "internalType": "uint256",
          "name": "_id",
          "type": "uint256"
        },
        {
          "internalType": "string",
          "name": "_medname",
          "type": "string"
        },
        {
          "internalType": "string",
          "name": "_manufaname",
          "type": "string"
        },
        {
          "internalType": "string",
          "name": "_batchNo",
          "type": "string"
        },
        {
          "internalType": "string",
          "name": "_manufadate",
          "type": "string"
        },
        {
          "internalType": "string",
          "name": "_expdate",
          "type": "string"
        },
        {
          "internalType": "string",
          "name": "_category",
          "type": "string"
        },
        {
          "internalType": "uint256",
          "name": "_price",
          "type": "uint256"
        }
      ],
      "name": "updateMedicine",
      "outputs": [],
      "payable": false,
      "stateMutability": "nonpayable",
      "type": "function"
    },
    {
      "constant": false,
      "inputs": [
        {
          "internalType": "uint256",
          "name": "_id",
          "type": "uint256"
        }
      ],
      "name": "deleteMedicine",
      "outputs": [],
      "payable": false,
      "stateMutability": "nonpayable",
      "type": "function"
    },
    {
      "constant": false,
      "inputs": [
        {
          "internalType": "string",
          "name": "_name",
          "type": "string"
        },
        {
          "internalType": "string",
          "name": "_address",
          "type": "string"
        },
        {
          "internalType": "string",
          "name": "_role",
          "type": "string"
        },
        {
          "internalType": "string",
          "name": "_approved",
          "type": "string"
        }
      ],
      "name": "registerRoles",
      "outputs": [],
      "payable": false,
      "stateMutability": "nonpayable",
      "type": "function"
    },
    {
      "constant": false,
      "inputs": [
        {
          "internalType": "address",
          "name": "_address",
          "type": "address"
        },
        {
          "internalType": "string",
          "name": "_approved",
          "type": "string"
        }
      ],
      "name": "approveUser",
      "outputs": [],
      "payable": false,
      "stateMutability": "nonpayable",
      "type": "function"
    },
    {
      "constant": false,
      "inputs": [
        {
          "internalType": "uint256",
          "name": "_id",
          "type": "uint256"
        },
        {
          "internalType": "uint256",
          "name": "_qty",
          "type": "uint256"
        }
      ],
      "name": "buyMedicineByDistributer",
      "outputs": [],
      "payable": false,
      "stateMutability": "nonpayable",
      "type": "function"
    }
  ],
  "bytecode": "0x608060405260008055600060015534801561001957600080fd5b5033600260006101000a81548173ffffffffffffffffffffffffffffffffffffffff021916908373ffffffffffffffffffffffffffffffffffffffff1602179055506127b38061006a6000396000f3fe608060405234801561001057600080fd5b50600436106100b45760003560e01c8063a87430ba11610071578063a87430ba14610b33578063c85e766d14610d34578063d19aa54f1461100c578063edf26d9b1461103a578063f851a440146110a8578063ff6ee633146110f2576100b4565b80632adcaa03146100b95780634dafd490146103395780636ba13a821461035757806385ea7aa1146103755780639117d60014610738578063a3d8cefd14610afb575b600080fd5b610337600480360360808110156100cf57600080fd5b81019080803590602001906401000000008111156100ec57600080fd5b8201836020820111156100fe57600080fd5b8035906020019184600183028401116401000000008311171561012057600080fd5b91908080601f016020809104026020016040519081016040528093929190818152602001838380828437600081840152601f19601f8201169050808301925050505050505091929192908035906020019064010000000081111561018357600080fd5b82018360208201111561019557600080fd5b803590602001918460018302840111640100000000831117156101b757600080fd5b91908080601f016020809104026020016040519081016040528093929190818152602001838380828437600081840152601f19601f8201169050808301925050505050505091929192908035906020019064010000000081111561021a57600080fd5b82018360208201111561022c57600080fd5b8035906020019184600183028401116401000000008311171561024e57600080fd5b91908080601f016020809104026020016040519081016040528093929190818152602001838380828437600081840152601f19601f820116905080830192505050505050509192919290803590602001906401000000008111156102b157600080fd5b8201836020820111156102c357600080fd5b803590602001918460018302840111640100000000831117156102e557600080fd5b91908080601f016020809104026020016040519081016040528093929190818152602001838380828437600081840152601f19601f8201169050808301925050505050505091929192905050506111cd565b005b610341611386565b6040518082815260200191505060405180910390f35b61035f61138c565b6040518082815260200191505060405180910390f35b610736600480360361010081101561038c57600080fd5b8101908080359060200190929190803590602001906401000000008111156103b357600080fd5b8201836020820111156103c557600080fd5b803590602001918460018302840111640100000000831117156103e757600080fd5b91908080601f016020809104026020016040519081016040528093929190818152602001838380828437600081840152601f19601f8201169050808301925050505050505091929192908035906020019064010000000081111561044a57600080fd5b82018360208201111561045c57600080fd5b8035906020019184600183028401116401000000008311171561047e57600080fd5b91908080601f016020809104026020016040519081016040528093929190818152602001838380828437600081840152601f19601f820116905080830192505050505050509192919290803590602001906401000000008111156104e157600080fd5b8201836020820111156104f357600080fd5b8035906020019184600183028401116401000000008311171561051557600080fd5b91908080601f016020809104026020016040519081016040528093929190818152602001838380828437600081840152601f19601f8201169050808301925050505050505091929192908035906020019064010000000081111561057857600080fd5b82018360208201111561058a57600080fd5b803590602001918460018302840111640100000000831117156105ac57600080fd5b91908080601f016020809104026020016040519081016040528093929190818152602001838380828437600081840152601f19601f8201169050808301925050505050505091929192908035906020019064010000000081111561060f57600080fd5b82018360208201111561062157600080fd5b8035906020019184600183028401116401000000008311171561064357600080fd5b91908080601f016020809104026020016040519081016040528093929190818152602001838380828437600081840152601f19601f820116905080830192505050505050509192919290803590602001906401000000008111156106a657600080fd5b8201836020820111156106b857600080fd5b803590602001918460018302840111640100000000831117156106da57600080fd5b91908080601f016020809104026020016040519081016040528093929190818152602001838380828437600081840152601f19601f82011690508083019250505050505050919291929080359060200190929190505050611392565b005b610af9600480360361010081101561074f57600080fd5b810190808035906020019064010000000081111561076c57600080fd5b82018360208201111561077e57600080fd5b803590602001918460018302840111640100000000831117156107a057600080fd5b91908080601f016020809104026020016040519081016040528093929190818152602001838380828437600081840152601f19601f8201169050808301925050505050505091929192908035906020019064010000000081111561080357600080fd5b82018360208201111561081557600080fd5b8035906020019184600183028401116401000000008311171561083757600080fd5b91908080601f016020809104026020016040519081016040528093929190818152602001838380828437600081840152601f19601f8201169050808301925050505050505091929192908035906020019064010000000081111561089a57600080fd5b8201836020820111156108ac57600080fd5b803590602001918460018302840111640100000000831117156108ce57600080fd5b91908080601f016020809104026020016040519081016040528093929190818152602001838380828437600081840152601f19601f8201169050808301925050505050505091929192908035906020019064010000000081111561093157600080fd5b82018360208201111561094357600080fd5b8035906020019184600183028401116401000000008311171561096557600080fd5b91908080601f016020809104026020016040519081016040528093929190818152602001838380828437600081840152601f19601f820116905080830192505050505050509192919290803590602001906401000000008111156109c857600080fd5b8201836020820111156109da57600080fd5b803590602001918460018302840111640100000000831117156109fc57600080fd5b91908080601f016020809104026020016040519081016040528093929190818152602001838380828437600081840152601f19601f82011690508083019250505050505050919291929080359060200190640100000000811115610a5f57600080fd5b820183602082011115610a7157600080fd5b80359060200191846001830284011164010000000083111715610a9357600080fd5b91908080601f016020809104026020016040519081016040528093929190818152602001838380828437600081840152601f19601f82011690508083019250505050505050919291929080359060200190929190803590602001909291905050506114db565b005b610b3160048036036040811015610b1157600080fd5b81019080803590602001909291908035906020019092919050505061161c565b005b610b7560048036036020811015610b4957600080fd5b81019080803573ffffffffffffffffffffffffffffffffffffffff169060200190929190505050611bb5565b6040518080602001806020018060200180602001858103855289818151815260200191508051906020019080838360005b83811015610bc1578082015181840152602081019050610ba6565b50505050905090810190601f168015610bee5780820380516001836020036101000a031916815260200191505b50858103845288818151815260200191508051906020019080838360005b83811015610c27578082015181840152602081019050610c0c565b50505050905090810190601f168015610c545780820380516001836020036101000a031916815260200191505b50858103835287818151815260200191508051906020019080838360005b83811015610c8d578082015181840152602081019050610c72565b50505050905090810190601f168015610cba5780820380516001836020036101000a031916815260200191505b50858103825286818151815260200191508051906020019080838360005b83811015610cf3578082015181840152602081019050610cd8565b50505050905090810190601f168015610d205780820380516001836020036101000a031916815260200191505b509850505050505050505060405180910390f35b610d6060048036036020811015610d4a57600080fd5b8101908080359060200190929190505050611e45565b604051808a815260200180602001806020018060200180602001806020018060200189815260200188815260200187810387528f818151815260200191508051906020019080838360005b83811015610dc6578082015181840152602081019050610dab565b50505050905090810190601f168015610df35780820380516001836020036101000a031916815260200191505b5087810386528e818151815260200191508051906020019080838360005b83811015610e2c578082015181840152602081019050610e11565b50505050905090810190601f168015610e595780820380516001836020036101000a031916815260200191505b5087810385528d818151815260200191508051906020019080838360005b83811015610e92578082015181840152602081019050610e77565b50505050905090810190601f168015610ebf5780820380516001836020036101000a031916815260200191505b5087810384528c818151815260200191508051906020019080838360005b83811015610ef8578082015181840152602081019050610edd565b50505050905090810190601f168015610f255780820380516001836020036101000a031916815260200191505b5087810383528b818151815260200191508051906020019080838360005b83811015610f5e578082015181840152602081019050610f43565b50505050905090810190601f168015610f8b5780820380516001836020036101000a031916815260200191505b5087810382528a818151815260200191508051906020019080838360005b83811015610fc4578082015181840152602081019050610fa9565b50505050905090810190601f168015610ff15780820380516001836020036101000a031916815260200191505b509f5050505050505050505050505050505060405180910390f35b6110386004803603602081101561102257600080fd5b8101908080359060200190929190505050612223565b005b6110666004803603602081101561105057600080fd5b81019080803590602001909291905050506122b4565b604051808273ffffffffffffffffffffffffffffffffffffffff1673ffffffffffffffffffffffffffffffffffffffff16815260200191505060405180910390f35b6110b06122f0565b604051808273ffffffffffffffffffffffffffffffffffffffff1673ffffffffffffffffffffffffffffffffffffffff16815260200191505060405180910390f35b6111cb6004803603604081101561110857600080fd5b81019080803573ffffffffffffffffffffffffffffffffffffffff1690602001909291908035906020019064010000000081111561114557600080fd5b82018360208201111561115757600080fd5b8035906020019184600183028401116401000000008311171561117957600080fd5b91908080601f016020809104026020016040519081016040528093929190818152602001838380828437600081840152601f19601f820116905080830192505050505050509192919290505050612316565b005b6000600460003373ffffffffffffffffffffffffffffffffffffffff1673ffffffffffffffffffffffffffffffffffffffff168152602001908152602001600020600201805460018160011615610100020316600290049050111561123157600080fd5b604051806080016040528085815260200184815260200183815260200182815250600460003373ffffffffffffffffffffffffffffffffffffffff1673ffffffffffffffffffffffffffffffffffffffff16815260200190815260200160002060008201518160000190805190602001906112ad929190612691565b5060208201518160010190805190602001906112ca929190612691565b5060408201518160020190805190602001906112e7929190612691565b506060820151816003019080519060200190611304929190612691565b5090505060053390806001815401808255809150509060018203906000526020600020016000909192909190916101000a81548173ffffffffffffffffffffffffffffffffffffffff021916908373ffffffffffffffffffffffffffffffffffffffff1602179055505060016000815480929190600101919050555050505050565b60005481565b60015481565b6000600360008a81526020019081526020016000206008015490506040518061012001604052808a815260200189815260200188815260200187815260200186815260200185815260200184815260200183815260200182815250600360008b8152602001908152602001600020600082015181600001556020820151816001019080519060200190611426929190612691565b506040820151816002019080519060200190611443929190612691565b506060820151816003019080519060200190611460929190612691565b50608082015181600401908051906020019061147d929190612691565b5060a082015181600501908051906020019061149a929190612691565b5060c08201518160060190805190602001906114b7929190612691565b5060e082015181600701556101008201518160080155905050505050505050505050565b60008081548092919060010191905055506040518061012001604052806000548152602001898152602001888152602001878152602001868152602001858152602001848152602001838152602001828152506003600080548152602001908152602001600020600082015181600001556020820151816001019080519060200190611568929190612691565b506040820151816002019080519060200190611585929190612691565b5060608201518160030190805190602001906115a2929190612691565b5060808201518160040190805190602001906115bf929190612691565b5060a08201518160050190805190602001906115dc929190612691565b5060c08201518160060190805190602001906115f9929190612691565b5060e0820151816007015561010082015181600801559050505050505050505050565b60008160036000858152602001908152602001600020600801540390506060600360008581526020019081526020016000206001018054600181600116156101000203166002900480601f0160208091040260200160405190810160405280929190818152602001828054600181600116156101000203166002900480156116e55780601f106116ba576101008083540402835291602001916116e5565b820191906000526020600020905b8154815290600101906020018083116116c857829003601f168201915b505050505090506060600360008681526020019081526020016000206002018054600181600116156101000203166002900480601f0160208091040260200160405190810160405280929190818152602001828054600181600116156101000203166002900480156117985780601f1061176d57610100808354040283529160200191611798565b820191906000526020600020905b81548152906001019060200180831161177b57829003601f168201915b505050505090506060600360008781526020019081526020016000206003018054600181600116156101000203166002900480601f01602080910402602001604051908101604052809291908181526020018280546001816001161561010002031660029004801561184b5780601f106118205761010080835404028352916020019161184b565b820191906000526020600020905b81548152906001019060200180831161182e57829003601f168201915b505050505090506060600360008881526020019081526020016000206004018054600181600116156101000203166002900480601f0160208091040260200160405190810160405280929190818152602001828054600181600116156101000203166002900480156118fe5780601f106118d3576101008083540402835291602001916118fe565b820191906000526020600020905b8154815290600101906020018083116118e157829003601f168201915b505050505090506060600360008981526020019081526020016000206005018054600181600116156101000203166002900480601f0160208091040260200160405190810160405280929190818152602001828054600181600116156101000203166002900480156119b15780601f10611986576101008083540402835291602001916119b1565b820191906000526020600020905b81548152906001019060200180831161199457829003601f168201915b505050505090506060600360008a81526020019081526020016000206006018054600181600116156101000203166002900480601f016020809104026020016040519081016040528092919081815260200182805460018160011615610100020316600290048015611a645780601f10611a3957610100808354040283529160200191611a64565b820191906000526020600020905b815481529060010190602001808311611a4757829003601f168201915b505050505090506000600360008b81526020019081526020016000206007015490506040518061012001604052808b815260200188815260200187815260200186815260200185815260200184815260200183815260200182815260200189815250600360008c8152602001908152602001600020600082015181600001556020820151816001019080519060200190611aff929190612691565b506040820151816002019080519060200190611b1c929190612691565b506060820151816003019080519060200190611b39929190612691565b506080820151816004019080519060200190611b56929190612691565b5060a0820151816005019080519060200190611b73929190612691565b5060c0820151816006019080519060200190611b90929190612691565b5060e08201518160070155610100820151816008015590505050505050505050505050565b6004602052806000526040600020600091509050806000018054600181600116156101000203166002900480601f016020809104026020016040519081016040528092919081815260200182805460018160011615610100020316600290048015611c615780601f10611c3657610100808354040283529160200191611c61565b820191906000526020600020905b815481529060010190602001808311611c4457829003601f168201915b505050505090806001018054600181600116156101000203166002900480601f016020809104026020016040519081016040528092919081815260200182805460018160011615610100020316600290048015611cff5780601f10611cd457610100808354040283529160200191611cff565b820191906000526020600020905b815481529060010190602001808311611ce257829003601f168201915b505050505090806002018054600181600116156101000203166002900480601f016020809104026020016040519081016040528092919081815260200182805460018160011615610100020316600290048015611d9d5780601f10611d7257610100808354040283529160200191611d9d565b820191906000526020600020905b815481529060010190602001808311611d8057829003601f168201915b505050505090806003018054600181600116156101000203166002900480601f016020809104026020016040519081016040528092919081815260200182805460018160011615610100020316600290048015611e3b5780601f10611e1057610100808354040283529160200191611e3b565b820191906000526020600020905b815481529060010190602001808311611e1e57829003601f168201915b5050505050905084565b6003602052806000526040600020600091509050806000015490806001018054600181600116156101000203166002900480601f016020809104026020016040519081016040528092919081815260200182805460018160011615610100020316600290048015611ef75780601f10611ecc57610100808354040283529160200191611ef7565b820191906000526020600020905b815481529060010190602001808311611eda57829003601f168201915b505050505090806002018054600181600116156101000203166002900480601f016020809104026020016040519081016040528092919081815260200182805460018160011615610100020316600290048015611f955780601f10611f6a57610100808354040283529160200191611f95565b820191906000526020600020905b815481529060010190602001808311611f7857829003601f168201915b505050505090806003018054600181600116156101000203166002900480601f0160208091040260200160405190810160405280929190818152602001828054600181600116156101000203166002900480156120335780601f1061200857610100808354040283529160200191612033565b820191906000526020600020905b81548152906001019060200180831161201657829003601f168201915b505050505090806004018054600181600116156101000203166002900480601f0160208091040260200160405190810160405280929190818152602001828054600181600116156101000203166002900480156120d15780601f106120a6576101008083540402835291602001916120d1565b820191906000526020600020905b8154815290600101906020018083116120b457829003601f168201915b505050505090806005018054600181600116156101000203166002900480601f01602080910402602001604051908101604052809291908181526020018280546001816001161561010002031660029004801561216f5780601f106121445761010080835404028352916020019161216f565b820191906000526020600020905b81548152906001019060200180831161215257829003601f168201915b505050505090806006018054600181600116156101000203166002900480601f01602080910402602001604051908101604052809291908181526020018280546001816001161561010002031660029004801561220d5780601f106121e25761010080835404028352916020019161220d565b820191906000526020600020905b8154815290600101906020018083116121f057829003601f168201915b5050505050908060070154908060080154905089565b6003600082815260200190815260200160002060008082016000905560018201600061224f9190612711565b60028201600061225f9190612711565b60038201600061226f9190612711565b60048201600061227f9190612711565b60058201600061228f9190612711565b60068201600061229f9190612711565b60078201600090556008820160009055505050565b600581815481106122c157fe5b906000526020600020016000915054906101000a900473ffffffffffffffffffffffffffffffffffffffff1681565b600260009054906101000a900473ffffffffffffffffffffffffffffffffffffffff1681565b6060600460008473ffffffffffffffffffffffffffffffffffffffff1673ffffffffffffffffffffffffffffffffffffffff1681526020019081526020016000206000018054600181600116156101000203166002900480601f0160208091040260200160405190810160405280929190818152602001828054600181600116156101000203166002900480156123ee5780601f106123c3576101008083540402835291602001916123ee565b820191906000526020600020905b8154815290600101906020018083116123d157829003601f168201915b505050505090506060600460008573ffffffffffffffffffffffffffffffffffffffff1673ffffffffffffffffffffffffffffffffffffffff1681526020019081526020016000206001018054600181600116156101000203166002900480601f0160208091040260200160405190810160405280929190818152602001828054600181600116156101000203166002900480156124cd5780601f106124a2576101008083540402835291602001916124cd565b820191906000526020600020905b8154815290600101906020018083116124b057829003601f168201915b505050505090506060600460008673ffffffffffffffffffffffffffffffffffffffff1673ffffffffffffffffffffffffffffffffffffffff1681526020019081526020016000206002018054600181600116156101000203166002900480601f0160208091040260200160405190810160405280929190818152602001828054600181600116156101000203166002900480156125ac5780601f10612581576101008083540402835291602001916125ac565b820191906000526020600020905b81548152906001019060200180831161258f57829003601f168201915b50505050509050604051806080016040528084815260200183815260200182815260200185815250600460008773ffffffffffffffffffffffffffffffffffffffff1673ffffffffffffffffffffffffffffffffffffffff168152602001908152602001600020600082015181600001908051906020019061262f929190612691565b50602082015181600101908051906020019061264c929190612691565b506040820151816002019080519060200190612669929190612691565b506060820151816003019080519060200190612686929190612691565b509050505050505050565b828054600181600116156101000203166002900490600052602060002090601f016020900481019282601f106126d257805160ff1916838001178555612700565b82800160010185558215612700579182015b828111156126ff5782518255916020019190600101906126e4565b5b50905061270d9190612759565b5090565b50805460018160011615610100020316600290046000825580601f106127375750612756565b601f0160209004906000526020600020908101906127559190612759565b5b50565b61277b91905b8082111561277757600081600090555060010161275f565b5090565b9056fea265627a7a723158201d5f7af99616fe817fa067a871ee1f6b4cd2d152857e1cafea79099e593ca3c264736f6c63430005100032",
  "source": "// SPDX-License-Identifier: MIT\r\npragma solidity >=0.4.22 <0.8.0;\r\n\r\ncontract Medicine {\r\n uint public medicineCount = 0;\r\n uint public usersCount = 0;\r\n address public admin;\r\n  struct Med {\r\n    uint id;    \r\n    string medname;\r\n    string manufaname;\r\n    string batchNo;\r\n    string manufadate;\r\n    string expdate;\r\n    string category;\r\n    uint price;\r\n    uint quantity;\r\n  }\r\n  mapping(uint => Med) public medicines;\r\n  struct User {       \r\n    string name;\r\n    string addr;\r\n    string role;\r\n    string approved;    \r\n  }\r\n  mapping(address => User) public users;\r\n  address[] public addresses;\r\n  constructor() public {  \r\n    admin=msg.sender;    \r\n  }\r\n\r\n function addMedicine (string memory _medname,string memory _manufaname,string memory  _batchNo,string memory _manufadate,string memory _expdate,string memory _category,uint _price,uint _quantity) public {\r\n        medicineCount ++;\r\n        medicines[medicineCount] = Med(medicineCount, _medname,_manufaname,_batchNo, _manufadate,_expdate,_category,_price,_quantity);\r\n        //emit addedProduct(productCount,msg.sender,_name,_date,_time,_productinfo);\r\n    }\r\n  function updateMedicine (uint _id,string memory _medname,string memory _manufaname,string memory  _batchNo,string memory _manufadate,string memory _expdate,string memory _category,uint _price) public {\r\n        uint _quanity=medicines[_id].quantity;\r\n        medicines[_id] = Med(_id, _medname,_manufaname,_batchNo, _manufadate,_expdate,_category,_price,_quanity);\r\n        //emit addedProduct(productCount,msg.sender,_name,_date,_time,_productinfo);\r\n    } \r\n  function deleteMedicine (uint _id) public {\r\n      delete(medicines[_id]);\r\n      //emit addedProduct(productCount,msg.sender,_name,_date,_time,_productinfo);\r\n  }  \r\n  function registerRoles (string memory _name,string memory _address,string memory _role,string memory _approved) public {\r\n        require(bytes(users[msg.sender].role).length<=0);\r\n        users[msg.sender] = User(_name,_address,_role,_approved);\r\n        addresses.push(msg.sender);\r\n        usersCount++;\r\n        //emit registeredEvent(msg.sender);\r\n    }\r\n    function approveUser (address _address,string memory _approved) public {\r\n        //require(msg.sender==admin);\r\n        string memory _name=users[_address].name;\r\n        string memory _addr=users[_address].addr;\r\n        string memory _role=users[_address].role;\r\n        users[_address] = User(_name,_addr,_role,_approved);        \r\n        //emit registeredEvent(msg.sender);\r\n    }\r\n    function buyMedicineByDistributer(uint _id,uint _qty) public  {\r\n      uint _quanity=medicines[_id].quantity-_qty;\r\n      string memory _medname=medicines[_id].medname;\r\n      string memory _manufaname=medicines[_id].manufaname;\r\n      string memory _batchNo=medicines[_id].batchNo;\r\n      string memory _manufadate=medicines[_id].manufadate;\r\n      string memory _expdate=medicines[_id].expdate;\r\n      string memory _category=medicines[_id].category;\r\n      uint _price=medicines[_id].price;      \r\n      medicines[_id] = Med(_id, _medname,_manufaname,_batchNo,_manufadate,_expdate,_category,_price,_quanity);\r\n    }\r\n}",
  "sourcePath": "C:/Users/srlak/OneDrive/Desktop/Pharma-New/contracts/Medicine.sol",
  "compiler": {
    "name": "solc",
    "version": "0.5.16+commit.9c3226ce.Emscripten.clang"
  },
  "schemaVersion": "3.3.3",
  "updatedAt": "2021-02-13T19:33:38.008Z",
  "networkType": "ethereum",
  "devdoc": {
    "methods": {}
  },
  "userdoc": {
    "methods": {}
  }
}