{
  "contractName": "Medicine",
  "abi": [
    {
      "inputs": [],
      "payable": false,
      "stateMutability": "nonpayable",
      "type": "constructor"
    },
    {
      "anonymous": false,
      "inputs": [
        {
          "indexed": false,
          "internalType": "uint256",
          "name": "id",
          "type": "uint256"
        },
        {
          "indexed": false,
          "internalType": "string",
          "name": "medname",
          "type": "string"
        },
        {
          "indexed": false,
          "internalType": "address",
          "name": "manufaname",
          "type": "address"
        },
        {
          "indexed": false,
          "internalType": "string",
          "name": "batchNo",
          "type": "string"
        },
        {
          "indexed": false,
          "internalType": "string",
          "name": "manufadate",
          "type": "string"
        },
        {
          "indexed": false,
          "internalType": "string",
          "name": "expdate",
          "type": "string"
        },
        {
          "indexed": false,
          "internalType": "string",
          "name": "category",
          "type": "string"
        },
        {
          "indexed": false,
          "internalType": "uint256",
          "name": "quantity",
          "type": "uint256"
        }
      ],
      "name": "updatedMedicine",
      "type": "event"
    },
    {
      "constant": true,
      "inputs": [
        {
          "internalType": "uint256",
          "name": "",
          "type": "uint256"
        }
      ],
      "name": "addresses",
      "outputs": [
        {
          "internalType": "address",
          "name": "",
          "type": "address"
        }
      ],
      "payable": false,
      "stateMutability": "view",
      "type": "function"
    },
    {
      "constant": true,
      "inputs": [],
      "name": "admin",
      "outputs": [
        {
          "internalType": "address",
          "name": "",
          "type": "address"
        }
      ],
      "payable": false,
      "stateMutability": "view",
      "type": "function"
    },
    {
      "constant": true,
      "inputs": [],
      "name": "distributorQuantity",
      "outputs": [
        {
          "internalType": "uint256",
          "name": "",
          "type": "uint256"
        }
      ],
      "payable": false,
      "stateMutability": "view",
      "type": "function"
    },
    {
      "constant": true,
      "inputs": [
        {
          "internalType": "uint256",
          "name": "",
          "type": "uint256"
        }
      ],
      "name": "meddescdirections",
      "outputs": [
        {
          "internalType": "uint256",
          "name": "id",
          "type": "uint256"
        },
        {
          "internalType": "string",
          "name": "description",
          "type": "string"
        },
        {
          "internalType": "string",
          "name": "direction",
          "type": "string"
        }
      ],
      "payable": false,
      "stateMutability": "view",
      "type": "function"
    },
    {
      "constant": true,
      "inputs": [],
      "name": "medicineCount",
      "outputs": [
        {
          "internalType": "uint256",
          "name": "",
          "type": "uint256"
        }
      ],
      "payable": false,
      "stateMutability": "view",
      "type": "function"
    },
    {
      "constant": true,
      "inputs": [
        {
          "internalType": "uint256",
          "name": "",
          "type": "uint256"
        }
      ],
      "name": "medicineforendusers",
      "outputs": [
        {
          "internalType": "uint256",
          "name": "id",
          "type": "uint256"
        },
        {
          "internalType": "uint256",
          "name": "medicineid",
          "type": "uint256"
        },
        {
          "internalType": "string",
          "name": "medicinename",
          "type": "string"
        },
        {
          "internalType": "address",
          "name": "distributer",
          "type": "address"
        },
        {
          "internalType": "uint256",
          "name": "qty",
          "type": "uint256"
        }
      ],
      "payable": false,
      "stateMutability": "view",
      "type": "function"
    },
    {
      "constant": true,
      "inputs": [],
      "name": "medicineforendusersCount",
      "outputs": [
        {
          "internalType": "uint256",
          "name": "",
          "type": "uint256"
        }
      ],
      "payable": false,
      "stateMutability": "view",
      "type": "function"
    },
    {
      "constant": true,
      "inputs": [
        {
          "internalType": "uint256",
          "name": "",
          "type": "uint256"
        }
      ],
      "name": "medicines",
      "outputs": [
        {
          "internalType": "uint256",
          "name": "id",
          "type": "uint256"
        },
        {
          "internalType": "string",
          "name": "medname",
          "type": "string"
        },
        {
          "internalType": "address",
          "name": "manufaname",
          "type": "address"
        },
        {
          "internalType": "string",
          "name": "batchNo",
          "type": "string"
        },
        {
          "internalType": "string",
          "name": "manufadate",
          "type": "string"
        },
        {
          "internalType": "string",
          "name": "expdate",
          "type": "string"
        },
        {
          "internalType": "string",
          "name": "category",
          "type": "string"
        },
        {
          "internalType": "uint256",
          "name": "price",
          "type": "uint256"
        },
        {
          "internalType": "uint256",
          "name": "quantity",
          "type": "uint256"
        }
      ],
      "payable": false,
      "stateMutability": "view",
      "type": "function"
    },
    {
      "constant": true,
      "inputs": [],
      "name": "orderStatusCount",
      "outputs": [
        {
          "internalType": "uint256",
          "name": "",
          "type": "uint256"
        }
      ],
      "payable": false,
      "stateMutability": "view",
      "type": "function"
    },
    {
      "constant": true,
      "inputs": [],
      "name": "orderStatusCountEndUser",
      "outputs": [
        {
          "internalType": "uint256",
          "name": "",
          "type": "uint256"
        }
      ],
      "payable": false,
      "stateMutability": "view",
      "type": "function"
    },
    {
      "constant": true,
      "inputs": [
        {
          "internalType": "uint256",
          "name": "",
          "type": "uint256"
        }
      ],
      "name": "orderstatuses",
      "outputs": [
        {
          "internalType": "uint256",
          "name": "id",
          "type": "uint256"
        },
        {
          "internalType": "uint256",
          "name": "medid",
          "type": "uint256"
        },
        {
          "internalType": "uint256",
          "name": "qty",
          "type": "uint256"
        },
        {
          "internalType": "address",
          "name": "manufacturer",
          "type": "address"
        },
        {
          "internalType": "address",
          "name": "distributer",
          "type": "address"
        },
        {
          "internalType": "string",
          "name": "status",
          "type": "string"
        }
      ],
      "payable": false,
      "stateMutability": "view",
      "type": "function"
    },
    {
      "constant": true,
      "inputs": [
        {
          "internalType": "uint256",
          "name": "",
          "type": "uint256"
        }
      ],
      "name": "orderstatusesofenderusers",
      "outputs": [
        {
          "internalType": "uint256",
          "name": "id",
          "type": "uint256"
        },
        {
          "internalType": "uint256",
          "name": "medid",
          "type": "uint256"
        },
        {
          "internalType": "uint256",
          "name": "qty",
          "type": "uint256"
        },
        {
          "internalType": "address",
          "name": "distributer",
          "type": "address"
        },
        {
          "internalType": "address",
          "name": "enduser",
          "type": "address"
        },
        {
          "internalType": "string",
          "name": "status",
          "type": "string"
        }
      ],
      "payable": false,
      "stateMutability": "view",
      "type": "function"
    },
    {
      "constant": true,
      "inputs": [
        {
          "internalType": "address",
          "name": "",
          "type": "address"
        }
      ],
      "name": "users",
      "outputs": [
        {
          "internalType": "string",
          "name": "name",
          "type": "string"
        },
        {
          "internalType": "string",
          "name": "addr",
          "type": "string"
        },
        {
          "internalType": "string",
          "name": "role",
          "type": "string"
        },
        {
          "internalType": "string",
          "name": "approved",
          "type": "string"
        }
      ],
      "payable": false,
      "stateMutability": "view",
      "type": "function"
    },
    {
      "constant": true,
      "inputs": [],
      "name": "usersCount",
      "outputs": [
        {
          "internalType": "uint256",
          "name": "",
          "type": "uint256"
        }
      ],
      "payable": false,
      "stateMutability": "view",
      "type": "function"
    },
    {
      "constant": false,
      "inputs": [
        {
          "internalType": "string",
          "name": "_medname",
          "type": "string"
        },
        {
          "internalType": "address",
          "name": "_manufaname",
          "type": "address"
        },
        {
          "internalType": "string",
          "name": "_batchNo",
          "type": "string"
        },
        {
          "internalType": "string",
          "name": "_manufadate",
          "type": "string"
        },
        {
          "internalType": "string",
          "name": "_expdate",
          "type": "string"
        },
        {
          "internalType": "string",
          "name": "_category",
          "type": "string"
        },
        {
          "internalType": "uint256",
          "name": "_price",
          "type": "uint256"
        },
        {
          "internalType": "uint256",
          "name": "_quantity",
          "type": "uint256"
        },
        {
          "internalType": "string",
          "name": "_desc",
          "type": "string"
        },
        {
          "internalType": "string",
          "name": "_directions",
          "type": "string"
        }
      ],
      "name": "addMedicine",
      "outputs": [],
      "payable": false,
      "stateMutability": "nonpayable",
      "type": "function"
    },
    {
      "constant": false,
      "inputs": [
        {
          "internalType": "uint256",
          "name": "_id",
          "type": "uint256"
        },
        {
          "internalType": "string",
          "name": "_medname",
          "type": "string"
        },
        {
          "internalType": "address",
          "name": "_manufaname",
          "type": "address"
        },
        {
          "internalType": "string",
          "name": "_batchNo",
          "type": "string"
        },
        {
          "internalType": "string",
          "name": "_manufadate",
          "type": "string"
        },
        {
          "internalType": "string",
          "name": "_expdate",
          "type": "string"
        },
        {
          "internalType": "string",
          "name": "_category",
          "type": "string"
        },
        {
          "internalType": "uint256",
          "name": "_price",
          "type": "uint256"
        }
      ],
      "name": "updateMedicine",
      "outputs": [],
      "payable": false,
      "stateMutability": "nonpayable",
      "type": "function"
    },
    {
      "constant": false,
      "inputs": [
        {
          "internalType": "uint256",
          "name": "_id",
          "type": "uint256"
        }
      ],
      "name": "deleteMedicine",
      "outputs": [],
      "payable": false,
      "stateMutability": "nonpayable",
      "type": "function"
    },
    {
      "constant": false,
      "inputs": [
        {
          "internalType": "string",
          "name": "_name",
          "type": "string"
        },
        {
          "internalType": "string",
          "name": "_address",
          "type": "string"
        },
        {
          "internalType": "string",
          "name": "_role",
          "type": "string"
        },
        {
          "internalType": "string",
          "name": "_approved",
          "type": "string"
        }
      ],
      "name": "registerRoles",
      "outputs": [],
      "payable": false,
      "stateMutability": "nonpayable",
      "type": "function"
    },
    {
      "constant": false,
      "inputs": [
        {
          "internalType": "address",
          "name": "_address",
          "type": "address"
        },
        {
          "internalType": "string",
          "name": "_approved",
          "type": "string"
        }
      ],
      "name": "approveUser",
      "outputs": [],
      "payable": false,
      "stateMutability": "nonpayable",
      "type": "function"
    },
    {
      "constant": false,
      "inputs": [
        {
          "internalType": "uint256",
          "name": "_id",
          "type": "uint256"
        },
        {
          "internalType": "string",
          "name": "_status",
          "type": "string"
        }
      ],
      "name": "updateOrderStatus",
      "outputs": [],
      "payable": false,
      "stateMutability": "nonpayable",
      "type": "function"
    },
    {
      "constant": false,
      "inputs": [
        {
          "internalType": "uint256",
          "name": "_id",
          "type": "uint256"
        },
        {
          "internalType": "address",
          "name": "_manufact",
          "type": "address"
        },
        {
          "internalType": "uint256",
          "name": "_qty",
          "type": "uint256"
        }
      ],
      "name": "buyMedicineByDistributer",
      "outputs": [],
      "payable": false,
      "stateMutability": "nonpayable",
      "type": "function"
    },
    {
      "constant": false,
      "inputs": [
        {
          "internalType": "uint256",
          "name": "_id",
          "type": "uint256"
        },
        {
          "internalType": "uint256",
          "name": "_qty",
          "type": "uint256"
        }
      ],
      "name": "buyMedicineByEndUser",
      "outputs": [],
      "payable": false,
      "stateMutability": "nonpayable",
      "type": "function"
    },
    {
      "constant": false,
      "inputs": [
        {
          "internalType": "uint256",
          "name": "_id",
          "type": "uint256"
        },
        {
          "internalType": "string",
          "name": "_status",
          "type": "string"
        }
      ],
      "name": "updateOrderStatusEndUser",
      "outputs": [],
      "payable": false,
      "stateMutability": "nonpayable",
      "type": "function"
    }
  ],
  "bytecode": "0x6080604052600080556000600155600060025560006003556000600455600060055534801561002d57600080fd5b5033600660006101000a81548173ffffffffffffffffffffffffffffffffffffffff021916908373ffffffffffffffffffffffffffffffffffffffff1602179055506147718061007e6000396000f3fe608060405234801561001057600080fd5b506004361061014d5760003560e01c80638cb16cde116100c3578063e20c002f1161007c578063e20c002f1461170d578063e57387ea1461172b578063edf26d9b14611763578063f484bf14146117d1578063f851a440146117ef578063ff6ee633146118395761014d565b80638cb16cde14611033578063a87430ba14611122578063ab7dc74314611323578063c85e766d1461137b578063d19aa54f1461161a578063d5a8a940146116485761014d565b806342f657d01161011557806342f657d01461094d5780634d06f1c114610a6f5780634dafd49014610b895780636ba13a8214610ba757806374d26a3314610bc557806378002b7214610f115761014d565b806317a52cdc1461015257806319e1eb0814610170578063205fdde6146105ea5780632adcaa03146106af5780633c30f2e21461092f575b600080fd5b61015a611914565b6040518082815260200191505060405180910390f35b6105e8600480360361014081101561018757600080fd5b81019080803590602001906401000000008111156101a457600080fd5b8201836020820111156101b657600080fd5b803590602001918460018302840111640100000000831117156101d857600080fd5b91908080601f016020809104026020016040519081016040528093929190818152602001838380828437600081840152601f19601f820116905080830192505050505050509192919290803573ffffffffffffffffffffffffffffffffffffffff1690602001909291908035906020019064010000000081111561025b57600080fd5b82018360208201111561026d57600080fd5b8035906020019184600183028401116401000000008311171561028f57600080fd5b91908080601f016020809104026020016040519081016040528093929190818152602001838380828437600081840152601f19601f820116905080830192505050505050509192919290803590602001906401000000008111156102f257600080fd5b82018360208201111561030457600080fd5b8035906020019184600183028401116401000000008311171561032657600080fd5b91908080601f016020809104026020016040519081016040528093929190818152602001838380828437600081840152601f19601f8201169050808301925050505050505091929192908035906020019064010000000081111561038957600080fd5b82018360208201111561039b57600080fd5b803590602001918460018302840111640100000000831117156103bd57600080fd5b91908080601f016020809104026020016040519081016040528093929190818152602001838380828437600081840152601f19601f8201169050808301925050505050505091929192908035906020019064010000000081111561042057600080fd5b82018360208201111561043257600080fd5b8035906020019184600183028401116401000000008311171561045457600080fd5b91908080601f016020809104026020016040519081016040528093929190818152602001838380828437600081840152601f19601f8201169050808301925050505050505091929192908035906020019092919080359060200190929190803590602001906401000000008111156104cb57600080fd5b8201836020820111156104dd57600080fd5b803590602001918460018302840111640100000000831117156104ff57600080fd5b91908080601f016020809104026020016040519081016040528093929190818152602001838380828437600081840152601f19601f8201169050808301925050505050505091929192908035906020019064010000000081111561056257600080fd5b82018360208201111561057457600080fd5b8035906020019184600183028401116401000000008311171561059657600080fd5b91908080601f016020809104026020016040519081016040528093929190818152602001838380828437600081840152601f19601f82011690508083019250505050505050919291929050505061191a565b005b6106ad6004803603604081101561060057600080fd5b81019080803590602001909291908035906020019064010000000081111561062757600080fd5b82018360208201111561063957600080fd5b8035906020019184600183028401116401000000008311171561065b57600080fd5b91908080601f016020809104026020016040519081016040528093929190818152602001838380828437600081840152601f19601f820116905080830192505050505050509192919290505050611dab565b005b61092d600480360360808110156106c557600080fd5b81019080803590602001906401000000008111156106e257600080fd5b8201836020820111156106f457600080fd5b8035906020019184600183028401116401000000008311171561071657600080fd5b91908080601f016020809104026020016040519081016040528093929190818152602001838380828437600081840152601f19601f8201169050808301925050505050505091929192908035906020019064010000000081111561077957600080fd5b82018360208201111561078b57600080fd5b803590602001918460018302840111640100000000831117156107ad57600080fd5b91908080601f016020809104026020016040519081016040528093929190818152602001838380828437600081840152601f19601f8201169050808301925050505050505091929192908035906020019064010000000081111561081057600080fd5b82018360208201111561082257600080fd5b8035906020019184600183028401116401000000008311171561084457600080fd5b91908080601f016020809104026020016040519081016040528093929190818152602001838380828437600081840152601f19601f820116905080830192505050505050509192919290803590602001906401000000008111156108a757600080fd5b8201836020820111156108b957600080fd5b803590602001918460018302840111640100000000831117156108db57600080fd5b91908080601f016020809104026020016040519081016040528093929190818152602001838380828437600081840152601f19601f820116905080830192505050505050509192919290505050611f97565b005b610937612150565b6040518082815260200191505060405180910390f35b6109796004803603602081101561096357600080fd5b8101908080359060200190929190505050612156565b604051808781526020018681526020018581526020018473ffffffffffffffffffffffffffffffffffffffff1673ffffffffffffffffffffffffffffffffffffffff1681526020018373ffffffffffffffffffffffffffffffffffffffff1673ffffffffffffffffffffffffffffffffffffffff16815260200180602001828103825283818151815260200191508051906020019080838360005b83811015610a2f578082015181840152602081019050610a14565b50505050905090810190601f168015610a5c5780820380516001836020036101000a031916815260200191505b5097505050505050505060405180910390f35b610a9b60048036036020811015610a8557600080fd5b810190808035906020019092919050505061226a565b604051808481526020018060200180602001838103835285818151815260200191508051906020019080838360005b83811015610ae5578082015181840152602081019050610aca565b50505050905090810190601f168015610b125780820380516001836020036101000a031916815260200191505b50838103825284818151815260200191508051906020019080838360005b83811015610b4b578082015181840152602081019050610b30565b50505050905090810190601f168015610b785780820380516001836020036101000a031916815260200191505b509550505050505060405180910390f35b610b916123c4565b6040518082815260200191505060405180910390f35b610baf6123ca565b6040518082815260200191505060405180910390f35b610f0f6004803603610100811015610bdc57600080fd5b810190808035906020019092919080359060200190640100000000811115610c0357600080fd5b820183602082011115610c1557600080fd5b80359060200191846001830284011164010000000083111715610c3757600080fd5b91908080601f016020809104026020016040519081016040528093929190818152602001838380828437600081840152601f19601f820116905080830192505050505050509192919290803573ffffffffffffffffffffffffffffffffffffffff16906020019092919080359060200190640100000000811115610cba57600080fd5b820183602082011115610ccc57600080fd5b80359060200191846001830284011164010000000083111715610cee57600080fd5b91908080601f016020809104026020016040519081016040528093929190818152602001838380828437600081840152601f19601f82011690508083019250505050505050919291929080359060200190640100000000811115610d5157600080fd5b820183602082011115610d6357600080fd5b80359060200191846001830284011164010000000083111715610d8557600080fd5b91908080601f016020809104026020016040519081016040528093929190818152602001838380828437600081840152601f19601f82011690508083019250505050505050919291929080359060200190640100000000811115610de857600080fd5b820183602082011115610dfa57600080fd5b80359060200191846001830284011164010000000083111715610e1c57600080fd5b91908080601f016020809104026020016040519081016040528093929190818152602001838380828437600081840152601f19601f82011690508083019250505050505050919291929080359060200190640100000000811115610e7f57600080fd5b820183602082011115610e9157600080fd5b80359060200191846001830284011164010000000083111715610eb357600080fd5b91908080601f016020809104026020016040519081016040528093929190818152602001838380828437600081840152601f19601f820116905080830192505050505050509192919290803590602001909291905050506123d0565b005b610f3d60048036036020811015610f2757600080fd5b81019080803590602001909291905050506127ef565b604051808781526020018681526020018581526020018473ffffffffffffffffffffffffffffffffffffffff1673ffffffffffffffffffffffffffffffffffffffff1681526020018373ffffffffffffffffffffffffffffffffffffffff1673ffffffffffffffffffffffffffffffffffffffff16815260200180602001828103825283818151815260200191508051906020019080838360005b83811015610ff3578082015181840152602081019050610fd8565b50505050905090810190601f1680156110205780820380516001836020036101000a031916815260200191505b5097505050505050505060405180910390f35b61105f6004803603602081101561104957600080fd5b8101908080359060200190929190505050612903565b60405180868152602001858152602001806020018473ffffffffffffffffffffffffffffffffffffffff1673ffffffffffffffffffffffffffffffffffffffff168152602001838152602001828103825285818151815260200191508051906020019080838360005b838110156110e35780820151818401526020810190506110c8565b50505050905090810190601f1680156111105780820380516001836020036101000a031916815260200191505b50965050505050505060405180910390f35b6111646004803603602081101561113857600080fd5b81019080803573ffffffffffffffffffffffffffffffffffffffff1690602001909291905050506129f1565b6040518080602001806020018060200180602001858103855289818151815260200191508051906020019080838360005b838110156111b0578082015181840152602081019050611195565b50505050905090810190601f1680156111dd5780820380516001836020036101000a031916815260200191505b50858103845288818151815260200191508051906020019080838360005b838110156112165780820151818401526020810190506111fb565b50505050905090810190601f1680156112435780820380516001836020036101000a031916815260200191505b50858103835287818151815260200191508051906020019080838360005b8381101561127c578082015181840152602081019050611261565b50505050905090810190601f1680156112a95780820380516001836020036101000a031916815260200191505b50858103825286818151815260200191508051906020019080838360005b838110156112e25780820151818401526020810190506112c7565b50505050905090810190601f16801561130f5780820380516001836020036101000a031916815260200191505b509850505050505050505060405180910390f35b6113796004803603606081101561133957600080fd5b8101908080359060200190929190803573ffffffffffffffffffffffffffffffffffffffff16906020019092919080359060200190929190505050612c81565b005b6113a76004803603602081101561139157600080fd5b81019080803590602001909291905050506138a8565b604051808a8152602001806020018973ffffffffffffffffffffffffffffffffffffffff1673ffffffffffffffffffffffffffffffffffffffff1681526020018060200180602001806020018060200188815260200187815260200186810386528e818151815260200191508051906020019080838360005b8381101561143b578082015181840152602081019050611420565b50505050905090810190601f1680156114685780820380516001836020036101000a031916815260200191505b5086810385528c818151815260200191508051906020019080838360005b838110156114a1578082015181840152602081019050611486565b50505050905090810190601f1680156114ce5780820380516001836020036101000a031916815260200191505b5086810384528b818151815260200191508051906020019080838360005b838110156115075780820151818401526020810190506114ec565b50505050905090810190601f1680156115345780820380516001836020036101000a031916815260200191505b5086810383528a818151815260200191508051906020019080838360005b8381101561156d578082015181840152602081019050611552565b50505050905090810190601f16801561159a5780820380516001836020036101000a031916815260200191505b50868103825289818151815260200191508051906020019080838360005b838110156115d35780820151818401526020810190506115b8565b50505050905090810190601f1680156116005780820380516001836020036101000a031916815260200191505b509e50505050505050505050505050505060405180910390f35b6116466004803603602081101561163057600080fd5b8101908080359060200190929190505050613c0e565b005b61170b6004803603604081101561165e57600080fd5b81019080803590602001909291908035906020019064010000000081111561168557600080fd5b82018360208201111561169757600080fd5b803590602001918460018302840111640100000000831117156116b957600080fd5b91908080601f016020809104026020016040519081016040528093929190818152602001838380828437600081840152601f19601f820116905080830192505050505050509192919290505050613cf4565b005b611715613ee0565b6040518082815260200191505060405180910390f35b6117616004803603604081101561174157600080fd5b810190808035906020019092919080359060200190929190505050613ee6565b005b61178f6004803603602081101561177957600080fd5b810190808035906020019092919050505061426c565b604051808273ffffffffffffffffffffffffffffffffffffffff1673ffffffffffffffffffffffffffffffffffffffff16815260200191505060405180910390f35b6117d96142a8565b6040518082815260200191505060405180910390f35b6117f76142ae565b604051808273ffffffffffffffffffffffffffffffffffffffff1673ffffffffffffffffffffffffffffffffffffffff16815260200191505060405180910390f35b6119126004803603604081101561184f57600080fd5b81019080803573ffffffffffffffffffffffffffffffffffffffff1690602001909291908035906020019064010000000081111561188c57600080fd5b82018360208201111561189e57600080fd5b803590602001918460018302840111640100000000831117156118c057600080fd5b91908080601f016020809104026020016040519081016040528093929190818152602001838380828437600081840152601f19601f8201169050808301925050505050505091929192905050506142d4565b005b60055481565b600080815480929190600101919050555060405180610120016040528060005481526020018b81526020018a73ffffffffffffffffffffffffffffffffffffffff1681526020018981526020018881526020018781526020018681526020018581526020018481525060076000805481526020019081526020016000206000820151816000015560208201518160010190805190602001906119bd92919061464f565b5060408201518160020160006101000a81548173ffffffffffffffffffffffffffffffffffffffff021916908373ffffffffffffffffffffffffffffffffffffffff1602179055506060820151816003019080519060200190611a2192919061464f565b506080820151816004019080519060200190611a3e92919061464f565b5060a0820151816005019080519060200190611a5b92919061464f565b5060c0820151816006019080519060200190611a7892919061464f565b5060e08201518160070155610100820151816008015590505060405180606001604052806000548152602001838152602001828152506008600080548152602001908152602001600020600082015181600001556020820151816001019080519060200190611ae892919061464f565b506040820151816002019080519060200190611b0592919061464f565b509050507f9fb2886cb46464e6b6b8e41368981dcfb776ab3d6b44ca3cc29f4087451d27b86000548b8b8b8b8b8b8a60405180898152602001806020018873ffffffffffffffffffffffffffffffffffffffff1673ffffffffffffffffffffffffffffffffffffffff1681526020018060200180602001806020018060200187815260200186810386528d818151815260200191508051906020019080838360005b83811015611bc2578082015181840152602081019050611ba7565b50505050905090810190601f168015611bef5780820380516001836020036101000a031916815260200191505b5086810385528b818151815260200191508051906020019080838360005b83811015611c28578082015181840152602081019050611c0d565b50505050905090810190601f168015611c555780820380516001836020036101000a031916815260200191505b5086810384528a818151815260200191508051906020019080838360005b83811015611c8e578082015181840152602081019050611c73565b50505050905090810190601f168015611cbb5780820380516001836020036101000a031916815260200191505b50868103835289818151815260200191508051906020019080838360005b83811015611cf4578082015181840152602081019050611cd9565b50505050905090810190601f168015611d215780820380516001836020036101000a031916815260200191505b50868103825288818151815260200191508051906020019080838360005b83811015611d5a578082015181840152602081019050611d3f565b50505050905090810190601f168015611d875780820380516001836020036101000a031916815260200191505b509d505050505050505050505050505060405180910390a150505050505050505050565b60006009600084815260200190815260200160002060010154905060006009600085815260200190815260200160002060020154905060006009600086815260200190815260200160002060030160009054906101000a900473ffffffffffffffffffffffffffffffffffffffff16905060006009600087815260200190815260200160002060040160009054906101000a900473ffffffffffffffffffffffffffffffffffffffff1690506040518060c001604052808781526020018581526020018481526020018373ffffffffffffffffffffffffffffffffffffffff1681526020018273ffffffffffffffffffffffffffffffffffffffff168152602001868152506009600088815260200190815260200160002060008201518160000155602082015181600101556040820151816002015560608201518160030160006101000a81548173ffffffffffffffffffffffffffffffffffffffff021916908373ffffffffffffffffffffffffffffffffffffffff16021790555060808201518160040160006101000a81548173ffffffffffffffffffffffffffffffffffffffff021916908373ffffffffffffffffffffffffffffffffffffffff16021790555060a0820151816005019080519060200190611f8b92919061464f565b50905050505050505050565b6000600a60003373ffffffffffffffffffffffffffffffffffffffff1673ffffffffffffffffffffffffffffffffffffffff1681526020019081526020016000206002018054600181600116156101000203166002900490501115611ffb57600080fd5b604051806080016040528085815260200184815260200183815260200182815250600a60003373ffffffffffffffffffffffffffffffffffffffff1673ffffffffffffffffffffffffffffffffffffffff168152602001908152602001600020600082015181600001908051906020019061207792919061464f565b50602082015181600101908051906020019061209492919061464f565b5060408201518160020190805190602001906120b192919061464f565b5060608201518160030190805190602001906120ce92919061464f565b50905050600c3390806001815401808255809150509060018203906000526020600020016000909192909190916101000a81548173ffffffffffffffffffffffffffffffffffffffff021916908373ffffffffffffffffffffffffffffffffffffffff1602179055505060016000815480929190600101919050555050505050565b60025481565b60096020528060005260406000206000915090508060000154908060010154908060020154908060030160009054906101000a900473ffffffffffffffffffffffffffffffffffffffff16908060040160009054906101000a900473ffffffffffffffffffffffffffffffffffffffff1690806005018054600181600116156101000203166002900480601f0160208091040260200160405190810160405280929190818152602001828054600181600116156101000203166002900480156122605780601f1061223557610100808354040283529160200191612260565b820191906000526020600020905b81548152906001019060200180831161224357829003601f168201915b5050505050905086565b6008602052806000526040600020600091509050806000015490806001018054600181600116156101000203166002900480601f01602080910402602001604051908101604052809291908181526020018280546001816001161561010002031660029004801561231c5780601f106122f15761010080835404028352916020019161231c565b820191906000526020600020905b8154815290600101906020018083116122ff57829003601f168201915b505050505090806002018054600181600116156101000203166002900480601f0160208091040260200160405190810160405280929190818152602001828054600181600116156101000203166002900480156123ba5780601f1061238f576101008083540402835291602001916123ba565b820191906000526020600020905b81548152906001019060200180831161239d57829003601f168201915b5050505050905083565b60005481565b60015481565b6000600760008a81526020019081526020016000206008015490506040518061012001604052808a81526020018981526020018873ffffffffffffffffffffffffffffffffffffffff16815260200187815260200186815260200185815260200184815260200183815260200182815250600760008b815260200190815260200160002060008201518160000155602082015181600101908051906020019061247a92919061464f565b5060408201518160020160006101000a81548173ffffffffffffffffffffffffffffffffffffffff021916908373ffffffffffffffffffffffffffffffffffffffff16021790555060608201518160030190805190602001906124de92919061464f565b5060808201518160040190805190602001906124fb92919061464f565b5060a082015181600501908051906020019061251892919061464f565b5060c082015181600601908051906020019061253592919061464f565b5060e0820151816007015561010082015181600801559050507f9fb2886cb46464e6b6b8e41368981dcfb776ab3d6b44ca3cc29f4087451d27b86000548989898989898860405180898152602001806020018873ffffffffffffffffffffffffffffffffffffffff1673ffffffffffffffffffffffffffffffffffffffff1681526020018060200180602001806020018060200187815260200186810386528d818151815260200191508051906020019080838360005b838110156126075780820151818401526020810190506125ec565b50505050905090810190601f1680156126345780820380516001836020036101000a031916815260200191505b5086810385528b818151815260200191508051906020019080838360005b8381101561266d578082015181840152602081019050612652565b50505050905090810190601f16801561269a5780820380516001836020036101000a031916815260200191505b5086810384528a818151815260200191508051906020019080838360005b838110156126d35780820151818401526020810190506126b8565b50505050905090810190601f1680156127005780820380516001836020036101000a031916815260200191505b50868103835289818151815260200191508051906020019080838360005b8381101561273957808201518184015260208101905061271e565b50505050905090810190601f1680156127665780820380516001836020036101000a031916815260200191505b50868103825288818151815260200191508051906020019080838360005b8381101561279f578082015181840152602081019050612784565b50505050905090810190601f1680156127cc5780820380516001836020036101000a031916815260200191505b509d505050505050505050505050505060405180910390a1505050505050505050565b600d6020528060005260406000206000915090508060000154908060010154908060020154908060030160009054906101000a900473ffffffffffffffffffffffffffffffffffffffff16908060040160009054906101000a900473ffffffffffffffffffffffffffffffffffffffff1690806005018054600181600116156101000203166002900480601f0160208091040260200160405190810160405280929190818152602001828054600181600116156101000203166002900480156128f95780601f106128ce576101008083540402835291602001916128f9565b820191906000526020600020905b8154815290600101906020018083116128dc57829003601f168201915b5050505050905086565b600b602052806000526040600020600091509050806000015490806001015490806002018054600181600116156101000203166002900480601f0160208091040260200160405190810160405280929190818152602001828054600181600116156101000203166002900480156129bb5780601f10612990576101008083540402835291602001916129bb565b820191906000526020600020905b81548152906001019060200180831161299e57829003601f168201915b5050505050908060030160009054906101000a900473ffffffffffffffffffffffffffffffffffffffff16908060040154905085565b600a602052806000526040600020600091509050806000018054600181600116156101000203166002900480601f016020809104026020016040519081016040528092919081815260200182805460018160011615610100020316600290048015612a9d5780601f10612a7257610100808354040283529160200191612a9d565b820191906000526020600020905b815481529060010190602001808311612a8057829003601f168201915b505050505090806001018054600181600116156101000203166002900480601f016020809104026020016040519081016040528092919081815260200182805460018160011615610100020316600290048015612b3b5780601f10612b1057610100808354040283529160200191612b3b565b820191906000526020600020905b815481529060010190602001808311612b1e57829003601f168201915b505050505090806002018054600181600116156101000203166002900480601f016020809104026020016040519081016040528092919081815260200182805460018160011615610100020316600290048015612bd95780601f10612bae57610100808354040283529160200191612bd9565b820191906000526020600020905b815481529060010190602001808311612bbc57829003601f168201915b505050505090806003018054600181600116156101000203166002900480601f016020809104026020016040519081016040528092919081815260200182805460018160011615610100020316600290048015612c775780601f10612c4c57610100808354040283529160200191612c77565b820191906000526020600020905b815481529060010190602001808311612c5a57829003601f168201915b5050505050905084565b8060058190555060008160076000868152602001908152602001600020600801540390506060600760008681526020019081526020016000206001018054600181600116156101000203166002900480601f016020809104026020016040519081016040528092919081815260200182805460018160011615610100020316600290048015612d515780601f10612d2657610100808354040283529160200191612d51565b820191906000526020600020905b815481529060010190602001808311612d3457829003601f168201915b5050505050905060006007600087815260200190815260200160002060020160009054906101000a900473ffffffffffffffffffffffffffffffffffffffff1690506060600760008881526020019081526020016000206003018054600181600116156101000203166002900480601f016020809104026020016040519081016040528092919081815260200182805460018160011615610100020316600290048015612e3f5780601f10612e1457610100808354040283529160200191612e3f565b820191906000526020600020905b815481529060010190602001808311612e2257829003601f168201915b505050505090506060600760008981526020019081526020016000206004018054600181600116156101000203166002900480601f016020809104026020016040519081016040528092919081815260200182805460018160011615610100020316600290048015612ef25780601f10612ec757610100808354040283529160200191612ef2565b820191906000526020600020905b815481529060010190602001808311612ed557829003601f168201915b505050505090506060600760008a81526020019081526020016000206005018054600181600116156101000203166002900480601f016020809104026020016040519081016040528092919081815260200182805460018160011615610100020316600290048015612fa55780601f10612f7a57610100808354040283529160200191612fa5565b820191906000526020600020905b815481529060010190602001808311612f8857829003601f168201915b505050505090506060600760008b81526020019081526020016000206006018054600181600116156101000203166002900480601f0160208091040260200160405190810160405280929190818152602001828054600181600116156101000203166002900480156130585780601f1061302d57610100808354040283529160200191613058565b820191906000526020600020905b81548152906001019060200180831161303b57829003601f168201915b505050505090506000600760008c81526020019081526020016000206007015490506040518061012001604052808c81526020018881526020018773ffffffffffffffffffffffffffffffffffffffff16815260200186815260200185815260200184815260200183815260200182815260200189815250600760008d815260200190815260200160002060008201518160000155602082015181600101908051906020019061310992919061464f565b5060408201518160020160006101000a81548173ffffffffffffffffffffffffffffffffffffffff021916908373ffffffffffffffffffffffffffffffffffffffff160217905550606082015181600301908051906020019061316d92919061464f565b50608082015181600401908051906020019061318a92919061464f565b5060a08201518160050190805190602001906131a792919061464f565b5060c08201518160060190805190602001906131c492919061464f565b5060e0820151816007015561010082015181600801559050507f9fb2886cb46464e6b6b8e41368981dcfb776ab3d6b44ca3cc29f4087451d27b88b88338888888860055460405180898152602001806020018873ffffffffffffffffffffffffffffffffffffffff1673ffffffffffffffffffffffffffffffffffffffff1681526020018060200180602001806020018060200187815260200186810386528d818151815260200191508051906020019080838360005b8381101561329657808201518184015260208101905061327b565b50505050905090810190601f1680156132c35780820380516001836020036101000a031916815260200191505b5086810385528b818151815260200191508051906020019080838360005b838110156132fc5780820151818401526020810190506132e1565b50505050905090810190601f1680156133295780820380516001836020036101000a031916815260200191505b5086810384528a818151815260200191508051906020019080838360005b83811015613362578082015181840152602081019050613347565b50505050905090810190601f16801561338f5780820380516001836020036101000a031916815260200191505b50868103835289818151815260200191508051906020019080838360005b838110156133c85780820151818401526020810190506133ad565b50505050905090810190601f1680156133f55780820380516001836020036101000a031916815260200191505b50868103825288818151815260200191508051906020019080838360005b8381101561342e578082015181840152602081019050613413565b50505050905090810190601f16801561345b5780820380516001836020036101000a031916815260200191505b509d505050505050505050505050505060405180910390a1600060019050600060019050600190505b6004548111613621573373ffffffffffffffffffffffffffffffffffffffff16600b600083815260200190815260200160002060030160009054906101000a900473ffffffffffffffffffffffffffffffffffffffff1673ffffffffffffffffffffffffffffffffffffffff1614801561351357508c600b600083815260200190815260200160002060010154145b156136145760008b600b6000848152602001908152602001600020600401540190506040518060a001604052808381526020018f81526020018b81526020013373ffffffffffffffffffffffffffffffffffffffff16815260200182815250600b6000848152602001908152602001600020600082015181600001556020820151816001015560408201518160020190805190602001906135b592919061464f565b5060608201518160030160006101000a81548173ffffffffffffffffffffffffffffffffffffffff021916908373ffffffffffffffffffffffffffffffffffffffff160217905550608082015181600401559050506000925050613621565b8080600101915050613484565b6001821415613716576004600081548092919060010191905055506040518060a0016040528060045481526020018e81526020018a81526020013373ffffffffffffffffffffffffffffffffffffffff1681526020018c815250600b60006004548152602001908152602001600020600082015181600001556020820151816001015560408201518160020190805190602001906136c092919061464f565b5060608201518160030160006101000a81548173ffffffffffffffffffffffffffffffffffffffff021916908373ffffffffffffffffffffffffffffffffffffffff160217905550608082015181600401559050505b6002600081548092919060010191905055506040518060c0016040528060025481526020018e81526020018c81526020018d73ffffffffffffffffffffffffffffffffffffffff1681526020013373ffffffffffffffffffffffffffffffffffffffff1681526020016040518060400160405280600181526020017f310000000000000000000000000000000000000000000000000000000000000081525081525060096000600254815260200190815260200160002060008201518160000155602082015181600101556040820151816002015560608201518160030160006101000a81548173ffffffffffffffffffffffffffffffffffffffff021916908373ffffffffffffffffffffffffffffffffffffffff16021790555060808201518160040160006101000a81548173ffffffffffffffffffffffffffffffffffffffff021916908373ffffffffffffffffffffffffffffffffffffffff16021790555060a082015181600501908051906020019061389592919061464f565b5090505050505050505050505050505050565b6007602052806000526040600020600091509050806000015490806001018054600181600116156101000203166002900480601f01602080910402602001604051908101604052809291908181526020018280546001816001161561010002031660029004801561395a5780601f1061392f5761010080835404028352916020019161395a565b820191906000526020600020905b81548152906001019060200180831161393d57829003601f168201915b5050505050908060020160009054906101000a900473ffffffffffffffffffffffffffffffffffffffff1690806003018054600181600116156101000203166002900480601f016020809104026020016040519081016040528092919081815260200182805460018160011615610100020316600290048015613a1e5780601f106139f357610100808354040283529160200191613a1e565b820191906000526020600020905b815481529060010190602001808311613a0157829003601f168201915b505050505090806004018054600181600116156101000203166002900480601f016020809104026020016040519081016040528092919081815260200182805460018160011615610100020316600290048015613abc5780601f10613a9157610100808354040283529160200191613abc565b820191906000526020600020905b815481529060010190602001808311613a9f57829003601f168201915b505050505090806005018054600181600116156101000203166002900480601f016020809104026020016040519081016040528092919081815260200182805460018160011615610100020316600290048015613b5a5780601f10613b2f57610100808354040283529160200191613b5a565b820191906000526020600020905b815481529060010190602001808311613b3d57829003601f168201915b505050505090806006018054600181600116156101000203166002900480601f016020809104026020016040519081016040528092919081815260200182805460018160011615610100020316600290048015613bf85780601f10613bcd57610100808354040283529160200191613bf8565b820191906000526020600020905b815481529060010190602001808311613bdb57829003601f168201915b5050505050908060070154908060080154905089565b60076000828152602001908152602001600020600080820160009055600182016000613c3a91906146cf565b6002820160006101000a81549073ffffffffffffffffffffffffffffffffffffffff0219169055600382016000613c7191906146cf565b600482016000613c8191906146cf565b600582016000613c9191906146cf565b600682016000613ca191906146cf565b60078201600090556008820160009055505060086000828152602001908152602001600020600080820160009055600182016000613cdf91906146cf565b600282016000613cef91906146cf565b505050565b6000600d60008481526020019081526020016000206001015490506000600d60008581526020019081526020016000206002015490506000600d600086815260200190815260200160002060030160009054906101000a900473ffffffffffffffffffffffffffffffffffffffff1690506000600d600087815260200190815260200160002060040160009054906101000a900473ffffffffffffffffffffffffffffffffffffffff1690506040518060c001604052808781526020018581526020018481526020018373ffffffffffffffffffffffffffffffffffffffff1681526020018273ffffffffffffffffffffffffffffffffffffffff16815260200186815250600d600088815260200190815260200160002060008201518160000155602082015181600101556040820151816002015560608201518160030160006101000a81548173ffffffffffffffffffffffffffffffffffffffff021916908373ffffffffffffffffffffffffffffffffffffffff16021790555060808201518160040160006101000a81548173ffffffffffffffffffffffffffffffffffffffff021916908373ffffffffffffffffffffffffffffffffffffffff16021790555060a0820151816005019080519060200190613ed492919061464f565b50905050505050505050565b60035481565b6000600b60008481526020019081526020016000206001015490506060600b60008581526020019081526020016000206002018054600181600116156101000203166002900480601f016020809104026020016040519081016040528092919081815260200182805460018160011615610100020316600290048015613fad5780601f10613f8257610100808354040283529160200191613fad565b820191906000526020600020905b815481529060010190602001808311613f9057829003601f168201915b505050505090506000600b600086815260200190815260200160002060030160009054906101000a900473ffffffffffffffffffffffffffffffffffffffff169050600084600b6000888152602001908152602001600020600401540390506040518060a001604052808781526020018581526020018481526020018373ffffffffffffffffffffffffffffffffffffffff16815260200182815250600b60008881526020019081526020016000206000820151816000015560208201518160010155604082015181600201908051906020019061408c92919061464f565b5060608201518160030160006101000a81548173ffffffffffffffffffffffffffffffffffffffff021916908373ffffffffffffffffffffffffffffffffffffffff160217905550608082015181600401559050506003600081548092919060010191905055506040518060c0016040528060035481526020018581526020018681526020018373ffffffffffffffffffffffffffffffffffffffff1681526020013373ffffffffffffffffffffffffffffffffffffffff1681526020016040518060400160405280600181526020017f3100000000000000000000000000000000000000000000000000000000000000815250815250600d6000600354815260200190815260200160002060008201518160000155602082015181600101556040820151816002015560608201518160030160006101000a81548173ffffffffffffffffffffffffffffffffffffffff021916908373ffffffffffffffffffffffffffffffffffffffff16021790555060808201518160040160006101000a81548173ffffffffffffffffffffffffffffffffffffffff021916908373ffffffffffffffffffffffffffffffffffffffff16021790555060a082015181600501908051906020019061426092919061464f565b50905050505050505050565b600c818154811061427957fe5b906000526020600020016000915054906101000a900473ffffffffffffffffffffffffffffffffffffffff1681565b60045481565b600660009054906101000a900473ffffffffffffffffffffffffffffffffffffffff1681565b6060600a60008473ffffffffffffffffffffffffffffffffffffffff1673ffffffffffffffffffffffffffffffffffffffff1681526020019081526020016000206000018054600181600116156101000203166002900480601f0160208091040260200160405190810160405280929190818152602001828054600181600116156101000203166002900480156143ac5780601f10614381576101008083540402835291602001916143ac565b820191906000526020600020905b81548152906001019060200180831161438f57829003601f168201915b505050505090506060600a60008573ffffffffffffffffffffffffffffffffffffffff1673ffffffffffffffffffffffffffffffffffffffff1681526020019081526020016000206001018054600181600116156101000203166002900480601f01602080910402602001604051908101604052809291908181526020018280546001816001161561010002031660029004801561448b5780601f106144605761010080835404028352916020019161448b565b820191906000526020600020905b81548152906001019060200180831161446e57829003601f168201915b505050505090506060600a60008673ffffffffffffffffffffffffffffffffffffffff1673ffffffffffffffffffffffffffffffffffffffff1681526020019081526020016000206002018054600181600116156101000203166002900480601f01602080910402602001604051908101604052809291908181526020018280546001816001161561010002031660029004801561456a5780601f1061453f5761010080835404028352916020019161456a565b820191906000526020600020905b81548152906001019060200180831161454d57829003601f168201915b50505050509050604051806080016040528084815260200183815260200182815260200185815250600a60008773ffffffffffffffffffffffffffffffffffffffff1673ffffffffffffffffffffffffffffffffffffffff16815260200190815260200160002060008201518160000190805190602001906145ed92919061464f565b50602082015181600101908051906020019061460a92919061464f565b50604082015181600201908051906020019061462792919061464f565b50606082015181600301908051906020019061464492919061464f565b509050505050505050565b828054600181600116156101000203166002900490600052602060002090601f016020900481019282601f1061469057805160ff19168380011785556146be565b828001600101855582156146be579182015b828111156146bd5782518255916020019190600101906146a2565b5b5090506146cb9190614717565b5090565b50805460018160011615610100020316600290046000825580601f106146f55750614714565b601f0160209004906000526020600020908101906147139190614717565b5b50565b61473991905b8082111561473557600081600090555060010161471d565b5090565b9056fea265627a7a723158201c42875d1c96bc75c95672a6511f92a152b01c8ad02618f62044abe12a2c368a64736f6c63430005100032",
  "source": "// SPDX-License-Identifier: MIT\r\npragma solidity >=0.4.22 <0.8.0;\r\n\r\ncontract Medicine {\r\n uint public medicineCount = 0;\r\n uint public usersCount = 0;\r\n uint public orderStatusCount=0;\r\n uint public orderStatusCountEndUser=0;\r\n uint public medicineforendusersCount = 0;\r\n uint public distributorQuantity = 0;\r\n address public admin;\r\n  struct Med {\r\n    uint id;    \r\n    string medname;\r\n    address manufaname;\r\n    string batchNo;\r\n    string manufadate;\r\n    string expdate;\r\n    string category;\r\n    uint price;\r\n    uint quantity;\r\n  }\r\n  mapping(uint => Med) public medicines;\r\n  struct MedDescDirection{\r\n    uint id;\r\n    string description;\r\n    string direction;\r\n  }\r\n   mapping(uint => MedDescDirection ) public meddescdirections;\r\n   struct OrderStatus{\r\n    uint id;\r\n    uint medid;\r\n    uint qty;\r\n    address manufacturer;\r\n    address distributer;\r\n    string status;\r\n    //\"1\" means initiated \"2\" means accepted \"3\" means shipped \"4\" completed\r\n  }\r\n  mapping(uint => OrderStatus ) public orderstatuses;\r\n  struct User {       \r\n    string name;\r\n    string addr;\r\n    string role;\r\n    string approved;    \r\n  } \r\n  \r\n   mapping(address => User) public users;\r\n  struct MedicineForEndUser {       \r\n    uint id;\r\n    uint medicineid;\r\n    string medicinename;\r\n    address distributer ;\r\n    uint qty;\r\n  }  \r\n  mapping(uint => MedicineForEndUser) public medicineforendusers;\r\n  address[] public addresses;\r\n\r\n  struct OrderStatusEndUser{\r\n    uint id;\r\n    uint medid;\r\n    uint qty;\r\n    address distributer;\r\n    address enduser;\r\n    string status;\r\n    //\"1\" means initiated \"2\" means accepted \"3\" means shipped \"4\" completed\r\n  }\r\n  mapping(uint => OrderStatusEndUser ) public orderstatusesofenderusers;\r\n\r\n   // event \r\n    event updatedMedicine (\r\n        uint  id,    \r\n        string medname,\r\n        address manufaname,\r\n        string batchNo,\r\n        string manufadate,\r\n        string expdate,\r\n        string category,\r\n        //uint price,\r\n        uint quantity      \r\n    );\r\n\r\n  constructor() public {  \r\n    admin=msg.sender;    \r\n  }\r\n\r\n function addMedicine (string memory _medname,address _manufaname,string memory  _batchNo,string memory _manufadate,string memory _expdate,string memory _category,uint _price,uint _quantity,string memory _desc,string memory _directions) public {\r\n        medicineCount ++;\r\n        medicines[medicineCount] = Med(medicineCount, _medname,_manufaname,_batchNo, _manufadate,_expdate,_category,_price,_quantity);\r\n        meddescdirections[medicineCount]=MedDescDirection(medicineCount,_desc,_directions);\r\n        //emit addedProduct(productCount,msg.sender,_name,_date,_time,_productinfo);\r\n        emit updatedMedicine(medicineCount, _medname,_manufaname,_batchNo, _manufadate,_expdate,_category,_quantity);\r\n    }\r\n  function updateMedicine (uint _id,string memory _medname,address _manufaname,string memory  _batchNo,string memory _manufadate,string memory _expdate,string memory _category,uint _price) public {\r\n        uint _quanity=medicines[_id].quantity;\r\n        medicines[_id] = Med(_id, _medname,_manufaname,_batchNo, _manufadate,_expdate,_category,_price,_quanity);\r\n        //emit addedProduct(productCount,msg.sender,_name,_date,_time,_productinfo);\r\n        emit updatedMedicine(medicineCount, _medname,_manufaname,_batchNo, _manufadate,_expdate,_category,_quanity);\r\n    } \r\n  function deleteMedicine (uint _id) public {\r\n      delete(medicines[_id]);\r\n      delete  meddescdirections[_id];\r\n\r\n      //emit addedProduct(productCount,msg.sender,_name,_date,_time,_productinfo);\r\n  }  \r\n  function registerRoles (string memory _name,string memory _address,string memory _role,string memory _approved) public {\r\n        require(bytes(users[msg.sender].role).length<=0);\r\n        users[msg.sender] = User(_name,_address,_role,_approved);\r\n        addresses.push(msg.sender);\r\n        usersCount++;\r\n        //emit registeredEvent(msg.sender);\r\n    }\r\n    function approveUser (address _address,string memory _approved) public {\r\n        //require(msg.sender==admin);\r\n        string memory _name=users[_address].name;\r\n        string memory _addr=users[_address].addr;\r\n        string memory _role=users[_address].role;\r\n        users[_address] = User(_name,_addr,_role,_approved);        \r\n        //emit registeredEvent(msg.sender);\r\n    }\r\n    function updateOrderStatus(uint _id,string memory _status) public {      \r\n        uint _medid=orderstatuses[_id].medid;\r\n        uint _qty=orderstatuses[_id].qty; \r\n        address _manufacturer=orderstatuses[_id].manufacturer;\r\n        address _distributer=orderstatuses[_id].distributer;        \r\n        orderstatuses[_id]=OrderStatus(_id,_medid,_qty,_manufacturer,_distributer,_status);        \r\n    }\r\n    function buyMedicineByDistributer(uint _id,address _manufact,uint _qty) public  {\r\n      distributorQuantity=_qty;\r\n      uint _quanity=medicines[_id].quantity-_qty;\r\n      string memory _medname=medicines[_id].medname;\r\n      address _manufaname=medicines[_id].manufaname;\r\n      string memory _batchNo=medicines[_id].batchNo;\r\n      string memory _manufadate=medicines[_id].manufadate;\r\n      string memory _expdate=medicines[_id].expdate;\r\n      string memory _category=medicines[_id].category;\r\n      uint _price=medicines[_id].price;    \r\n        \r\n      medicines[_id] = Med(_id, _medname,_manufaname,_batchNo,_manufadate,_expdate,_category,_price,_quanity);\r\n\r\n      emit updatedMedicine(_id, _medname,msg.sender,_batchNo, _manufadate,_expdate,_category, distributorQuantity);\r\n       uint _newentry=1;\r\n      uint i=1;\r\n      for(i=1;i<=medicineforendusersCount;i++){\r\n        if((medicineforendusers[i].distributer==msg.sender)&&(medicineforendusers[i].medicineid==_id)){\r\n          uint newqty=medicineforendusers[i].qty+_qty;\r\n          medicineforendusers[i]=MedicineForEndUser(i,_id,_medname,msg.sender,newqty);\r\n          _newentry=0;\r\n          break;\r\n        }\r\n      }\r\n      if(_newentry==1){\r\n        medicineforendusersCount++;\r\n        medicineforendusers[medicineforendusersCount]=MedicineForEndUser(medicineforendusersCount,_id,_medname,msg.sender,_qty);\r\n      }\r\n\r\n      //Status updation\r\n      orderStatusCount++;\r\n      orderstatuses[orderStatusCount]=OrderStatus(orderStatusCount,_id,_qty,_manufact,msg.sender,\"1\");     \r\n      \r\n    }\r\n\r\n    function buyMedicineByEndUser(uint _id,uint _qty) public  {      \r\n          uint _medicineid=medicineforendusers[_id].medicineid;\r\n          string memory _medicinename=medicineforendusers[_id].medicinename;\r\n          address _distributer=medicineforendusers[_id].distributer;     \r\n          uint _newqty=medicineforendusers[_id].qty-_qty;\r\n          medicineforendusers[_id]=MedicineForEndUser(_id,_medicineid,_medicinename,_distributer,_newqty);\r\n          //status update of end user       \r\n          orderStatusCountEndUser++;\r\n          orderstatusesofenderusers[orderStatusCountEndUser]=OrderStatusEndUser(orderStatusCountEndUser,_medicineid,_qty,_distributer,msg.sender,\"1\");\r\n    }\r\n     function updateOrderStatusEndUser(uint _id,string memory _status) public { \r\n        uint _medid=orderstatusesofenderusers[_id].medid;\r\n        uint _qty=orderstatusesofenderusers[_id].qty;         \r\n        address _distributer=orderstatusesofenderusers[_id].distributer; \r\n        address _enduser=orderstatusesofenderusers[_id].enduser;       \r\n        orderstatusesofenderusers[_id]=OrderStatusEndUser(_id,_medid,_qty,_distributer,_enduser,_status);        \r\n    }\r\n}",
  "sourcePath": "C:/Users/srlak/OneDrive/Desktop/Pharma-New/contracts/Medicine.sol",
  "compiler": {
    "name": "solc",
    "version": "0.5.16+commit.9c3226ce.Emscripten.clang"
  },
  "schemaVersion": "3.3.3",
  "updatedAt": "2021-03-23T19:30:36.254Z",
  "networkType": "ethereum",
  "devdoc": {
    "methods": {}
  },
  "userdoc": {
    "methods": {}
  }
}