{
  "contractName": "Medicine",
  "abi": [
    {
      "inputs": [],
      "payable": false,
      "stateMutability": "nonpayable",
      "type": "constructor"
    },
    {
      "anonymous": false,
      "inputs": [
        {
          "indexed": false,
          "internalType": "uint256",
          "name": "id",
          "type": "uint256"
        },
        {
          "indexed": false,
          "internalType": "string",
          "name": "medname",
          "type": "string"
        },
        {
          "indexed": false,
          "internalType": "address",
          "name": "manufaname",
          "type": "address"
        },
        {
          "indexed": false,
          "internalType": "string",
          "name": "batchNo",
          "type": "string"
        },
        {
          "indexed": false,
          "internalType": "string",
          "name": "manufadate",
          "type": "string"
        },
        {
          "indexed": false,
          "internalType": "string",
          "name": "expdate",
          "type": "string"
        },
        {
          "indexed": false,
          "internalType": "string",
          "name": "category",
          "type": "string"
        },
        {
          "indexed": false,
          "internalType": "uint256",
          "name": "quantity",
          "type": "uint256"
        }
      ],
      "name": "updatedMedicine",
      "type": "event"
    },
    {
      "constant": true,
      "inputs": [
        {
          "internalType": "uint256",
          "name": "",
          "type": "uint256"
        }
      ],
      "name": "addresses",
      "outputs": [
        {
          "internalType": "address",
          "name": "",
          "type": "address"
        }
      ],
      "payable": false,
      "stateMutability": "view",
      "type": "function"
    },
    {
      "constant": true,
      "inputs": [],
      "name": "admin",
      "outputs": [
        {
          "internalType": "address",
          "name": "",
          "type": "address"
        }
      ],
      "payable": false,
      "stateMutability": "view",
      "type": "function"
    },
    {
      "constant": true,
      "inputs": [
        {
          "internalType": "uint256",
          "name": "",
          "type": "uint256"
        }
      ],
      "name": "meddescdirections",
      "outputs": [
        {
          "internalType": "uint256",
          "name": "id",
          "type": "uint256"
        },
        {
          "internalType": "string",
          "name": "description",
          "type": "string"
        },
        {
          "internalType": "string",
          "name": "direction",
          "type": "string"
        }
      ],
      "payable": false,
      "stateMutability": "view",
      "type": "function"
    },
    {
      "constant": true,
      "inputs": [],
      "name": "medicineCount",
      "outputs": [
        {
          "internalType": "uint256",
          "name": "",
          "type": "uint256"
        }
      ],
      "payable": false,
      "stateMutability": "view",
      "type": "function"
    },
    {
      "constant": true,
      "inputs": [
        {
          "internalType": "uint256",
          "name": "",
          "type": "uint256"
        }
      ],
      "name": "medicineforendusers",
      "outputs": [
        {
          "internalType": "uint256",
          "name": "id",
          "type": "uint256"
        },
        {
          "internalType": "uint256",
          "name": "medicineid",
          "type": "uint256"
        },
        {
          "internalType": "string",
          "name": "medicinename",
          "type": "string"
        },
        {
          "internalType": "address",
          "name": "distributer",
          "type": "address"
        },
        {
          "internalType": "uint256",
          "name": "qty",
          "type": "uint256"
        }
      ],
      "payable": false,
      "stateMutability": "view",
      "type": "function"
    },
    {
      "constant": true,
      "inputs": [],
      "name": "medicineforendusersCount",
      "outputs": [
        {
          "internalType": "uint256",
          "name": "",
          "type": "uint256"
        }
      ],
      "payable": false,
      "stateMutability": "view",
      "type": "function"
    },
    {
      "constant": true,
      "inputs": [
        {
          "internalType": "uint256",
          "name": "",
          "type": "uint256"
        }
      ],
      "name": "medicines",
      "outputs": [
        {
          "internalType": "uint256",
          "name": "id",
          "type": "uint256"
        },
        {
          "internalType": "string",
          "name": "medname",
          "type": "string"
        },
        {
          "internalType": "address",
          "name": "manufaname",
          "type": "address"
        },
        {
          "internalType": "string",
          "name": "batchNo",
          "type": "string"
        },
        {
          "internalType": "string",
          "name": "manufadate",
          "type": "string"
        },
        {
          "internalType": "string",
          "name": "expdate",
          "type": "string"
        },
        {
          "internalType": "string",
          "name": "category",
          "type": "string"
        },
        {
          "internalType": "uint256",
          "name": "price",
          "type": "uint256"
        },
        {
          "internalType": "uint256",
          "name": "quantity",
          "type": "uint256"
        }
      ],
      "payable": false,
      "stateMutability": "view",
      "type": "function"
    },
    {
      "constant": true,
      "inputs": [
        {
          "internalType": "address",
          "name": "",
          "type": "address"
        }
      ],
      "name": "users",
      "outputs": [
        {
          "internalType": "string",
          "name": "name",
          "type": "string"
        },
        {
          "internalType": "string",
          "name": "addr",
          "type": "string"
        },
        {
          "internalType": "string",
          "name": "role",
          "type": "string"
        },
        {
          "internalType": "string",
          "name": "approved",
          "type": "string"
        }
      ],
      "payable": false,
      "stateMutability": "view",
      "type": "function"
    },
    {
      "constant": true,
      "inputs": [],
      "name": "usersCount",
      "outputs": [
        {
          "internalType": "uint256",
          "name": "",
          "type": "uint256"
        }
      ],
      "payable": false,
      "stateMutability": "view",
      "type": "function"
    },
    {
      "constant": false,
      "inputs": [
        {
          "internalType": "string",
          "name": "_medname",
          "type": "string"
        },
        {
          "internalType": "address",
          "name": "_manufaname",
          "type": "address"
        },
        {
          "internalType": "string",
          "name": "_batchNo",
          "type": "string"
        },
        {
          "internalType": "string",
          "name": "_manufadate",
          "type": "string"
        },
        {
          "internalType": "string",
          "name": "_expdate",
          "type": "string"
        },
        {
          "internalType": "string",
          "name": "_category",
          "type": "string"
        },
        {
          "internalType": "uint256",
          "name": "_price",
          "type": "uint256"
        },
        {
          "internalType": "uint256",
          "name": "_quantity",
          "type": "uint256"
        },
        {
          "internalType": "string",
          "name": "_desc",
          "type": "string"
        },
        {
          "internalType": "string",
          "name": "_directions",
          "type": "string"
        }
      ],
      "name": "addMedicine",
      "outputs": [],
      "payable": false,
      "stateMutability": "nonpayable",
      "type": "function"
    },
    {
      "constant": false,
      "inputs": [
        {
          "internalType": "uint256",
          "name": "_id",
          "type": "uint256"
        },
        {
          "internalType": "string",
          "name": "_medname",
          "type": "string"
        },
        {
          "internalType": "address",
          "name": "_manufaname",
          "type": "address"
        },
        {
          "internalType": "string",
          "name": "_batchNo",
          "type": "string"
        },
        {
          "internalType": "string",
          "name": "_manufadate",
          "type": "string"
        },
        {
          "internalType": "string",
          "name": "_expdate",
          "type": "string"
        },
        {
          "internalType": "string",
          "name": "_category",
          "type": "string"
        },
        {
          "internalType": "uint256",
          "name": "_price",
          "type": "uint256"
        }
      ],
      "name": "updateMedicine",
      "outputs": [],
      "payable": false,
      "stateMutability": "nonpayable",
      "type": "function"
    },
    {
      "constant": false,
      "inputs": [
        {
          "internalType": "uint256",
          "name": "_id",
          "type": "uint256"
        }
      ],
      "name": "deleteMedicine",
      "outputs": [],
      "payable": false,
      "stateMutability": "nonpayable",
      "type": "function"
    },
    {
      "constant": false,
      "inputs": [
        {
          "internalType": "string",
          "name": "_name",
          "type": "string"
        },
        {
          "internalType": "string",
          "name": "_address",
          "type": "string"
        },
        {
          "internalType": "string",
          "name": "_role",
          "type": "string"
        },
        {
          "internalType": "string",
          "name": "_approved",
          "type": "string"
        }
      ],
      "name": "registerRoles",
      "outputs": [],
      "payable": false,
      "stateMutability": "nonpayable",
      "type": "function"
    },
    {
      "constant": false,
      "inputs": [
        {
          "internalType": "address",
          "name": "_address",
          "type": "address"
        },
        {
          "internalType": "string",
          "name": "_approved",
          "type": "string"
        }
      ],
      "name": "approveUser",
      "outputs": [],
      "payable": false,
      "stateMutability": "nonpayable",
      "type": "function"
    },
    {
      "constant": false,
      "inputs": [
        {
          "internalType": "uint256",
          "name": "_id",
          "type": "uint256"
        },
        {
          "internalType": "uint256",
          "name": "_qty",
          "type": "uint256"
        }
      ],
      "name": "buyMedicineByDistributer",
      "outputs": [],
      "payable": false,
      "stateMutability": "nonpayable",
      "type": "function"
    }
  ],
  "bytecode": "0x6080604052600080556000600155600060025534801561001e57600080fd5b5033600360006101000a81548173ffffffffffffffffffffffffffffffffffffffff021916908373ffffffffffffffffffffffffffffffffffffffff1602179055506137778061006f6000396000f3fe608060405234801561001057600080fd5b50600436106100f55760003560e01c8063a3d8cefd11610097578063edf26d9b11610066578063edf26d9b1461128b578063f484bf14146112f9578063f851a44014611317578063ff6ee63314611361576100f5565b8063a3d8cefd14610d85578063a87430ba14610dbd578063c85e766d14610fbe578063d19aa54f1461125d576100f5565b80634dafd490116100d35780634dafd4901461090e5780636ba13a821461092c57806374d26a331461094a5780638cb16cde14610c96576100f5565b806319e1eb08146100fa5780632adcaa03146105745780634d06f1c1146107f4575b600080fd5b610572600480360361014081101561011157600080fd5b810190808035906020019064010000000081111561012e57600080fd5b82018360208201111561014057600080fd5b8035906020019184600183028401116401000000008311171561016257600080fd5b91908080601f016020809104026020016040519081016040528093929190818152602001838380828437600081840152601f19601f820116905080830192505050505050509192919290803573ffffffffffffffffffffffffffffffffffffffff169060200190929190803590602001906401000000008111156101e557600080fd5b8201836020820111156101f757600080fd5b8035906020019184600183028401116401000000008311171561021957600080fd5b91908080601f016020809104026020016040519081016040528093929190818152602001838380828437600081840152601f19601f8201169050808301925050505050505091929192908035906020019064010000000081111561027c57600080fd5b82018360208201111561028e57600080fd5b803590602001918460018302840111640100000000831117156102b057600080fd5b91908080601f016020809104026020016040519081016040528093929190818152602001838380828437600081840152601f19601f8201169050808301925050505050505091929192908035906020019064010000000081111561031357600080fd5b82018360208201111561032557600080fd5b8035906020019184600183028401116401000000008311171561034757600080fd5b91908080601f016020809104026020016040519081016040528093929190818152602001838380828437600081840152601f19601f820116905080830192505050505050509192919290803590602001906401000000008111156103aa57600080fd5b8201836020820111156103bc57600080fd5b803590602001918460018302840111640100000000831117156103de57600080fd5b91908080601f016020809104026020016040519081016040528093929190818152602001838380828437600081840152601f19601f82011690508083019250505050505050919291929080359060200190929190803590602001909291908035906020019064010000000081111561045557600080fd5b82018360208201111561046757600080fd5b8035906020019184600183028401116401000000008311171561048957600080fd5b91908080601f016020809104026020016040519081016040528093929190818152602001838380828437600081840152601f19601f820116905080830192505050505050509192919290803590602001906401000000008111156104ec57600080fd5b8201836020820111156104fe57600080fd5b8035906020019184600183028401116401000000008311171561052057600080fd5b91908080601f016020809104026020016040519081016040528093929190818152602001838380828437600081840152601f19601f82011690508083019250505050505050919291929050505061143c565b005b6107f26004803603608081101561058a57600080fd5b81019080803590602001906401000000008111156105a757600080fd5b8201836020820111156105b957600080fd5b803590602001918460018302840111640100000000831117156105db57600080fd5b91908080601f016020809104026020016040519081016040528093929190818152602001838380828437600081840152601f19601f8201169050808301925050505050505091929192908035906020019064010000000081111561063e57600080fd5b82018360208201111561065057600080fd5b8035906020019184600183028401116401000000008311171561067257600080fd5b91908080601f016020809104026020016040519081016040528093929190818152602001838380828437600081840152601f19601f820116905080830192505050505050509192919290803590602001906401000000008111156106d557600080fd5b8201836020820111156106e757600080fd5b8035906020019184600183028401116401000000008311171561070957600080fd5b91908080601f016020809104026020016040519081016040528093929190818152602001838380828437600081840152601f19601f8201169050808301925050505050505091929192908035906020019064010000000081111561076c57600080fd5b82018360208201111561077e57600080fd5b803590602001918460018302840111640100000000831117156107a057600080fd5b91908080601f016020809104026020016040519081016040528093929190818152602001838380828437600081840152601f19601f8201169050808301925050505050505091929192905050506118cd565b005b6108206004803603602081101561080a57600080fd5b8101908080359060200190929190505050611a86565b604051808481526020018060200180602001838103835285818151815260200191508051906020019080838360005b8381101561086a57808201518184015260208101905061084f565b50505050905090810190601f1680156108975780820380516001836020036101000a031916815260200191505b50838103825284818151815260200191508051906020019080838360005b838110156108d05780820151818401526020810190506108b5565b50505050905090810190601f1680156108fd5780820380516001836020036101000a031916815260200191505b509550505050505060405180910390f35b610916611be0565b6040518082815260200191505060405180910390f35b610934611be6565b6040518082815260200191505060405180910390f35b610c94600480360361010081101561096157600080fd5b81019080803590602001909291908035906020019064010000000081111561098857600080fd5b82018360208201111561099a57600080fd5b803590602001918460018302840111640100000000831117156109bc57600080fd5b91908080601f016020809104026020016040519081016040528093929190818152602001838380828437600081840152601f19601f820116905080830192505050505050509192919290803573ffffffffffffffffffffffffffffffffffffffff16906020019092919080359060200190640100000000811115610a3f57600080fd5b820183602082011115610a5157600080fd5b80359060200191846001830284011164010000000083111715610a7357600080fd5b91908080601f016020809104026020016040519081016040528093929190818152602001838380828437600081840152601f19601f82011690508083019250505050505050919291929080359060200190640100000000811115610ad657600080fd5b820183602082011115610ae857600080fd5b80359060200191846001830284011164010000000083111715610b0a57600080fd5b91908080601f016020809104026020016040519081016040528093929190818152602001838380828437600081840152601f19601f82011690508083019250505050505050919291929080359060200190640100000000811115610b6d57600080fd5b820183602082011115610b7f57600080fd5b80359060200191846001830284011164010000000083111715610ba157600080fd5b91908080601f016020809104026020016040519081016040528093929190818152602001838380828437600081840152601f19601f82011690508083019250505050505050919291929080359060200190640100000000811115610c0457600080fd5b820183602082011115610c1657600080fd5b80359060200191846001830284011164010000000083111715610c3857600080fd5b91908080601f016020809104026020016040519081016040528093929190818152602001838380828437600081840152601f19601f82011690508083019250505050505050919291929080359060200190929190505050611bec565b005b610cc260048036036020811015610cac57600080fd5b810190808035906020019092919050505061200b565b60405180868152602001858152602001806020018473ffffffffffffffffffffffffffffffffffffffff1673ffffffffffffffffffffffffffffffffffffffff168152602001838152602001828103825285818151815260200191508051906020019080838360005b83811015610d46578082015181840152602081019050610d2b565b50505050905090810190601f168015610d735780820380516001836020036101000a031916815260200191505b50965050505050505060405180910390f35b610dbb60048036036040811015610d9b57600080fd5b8101908080359060200190929190803590602001909291905050506120f9565b005b610dff60048036036020811015610dd357600080fd5b81019080803573ffffffffffffffffffffffffffffffffffffffff169060200190929190505050612b96565b6040518080602001806020018060200180602001858103855289818151815260200191508051906020019080838360005b83811015610e4b578082015181840152602081019050610e30565b50505050905090810190601f168015610e785780820380516001836020036101000a031916815260200191505b50858103845288818151815260200191508051906020019080838360005b83811015610eb1578082015181840152602081019050610e96565b50505050905090810190601f168015610ede5780820380516001836020036101000a031916815260200191505b50858103835287818151815260200191508051906020019080838360005b83811015610f17578082015181840152602081019050610efc565b50505050905090810190601f168015610f445780820380516001836020036101000a031916815260200191505b50858103825286818151815260200191508051906020019080838360005b83811015610f7d578082015181840152602081019050610f62565b50505050905090810190601f168015610faa5780820380516001836020036101000a031916815260200191505b509850505050505050505060405180910390f35b610fea60048036036020811015610fd457600080fd5b8101908080359060200190929190505050612e26565b604051808a8152602001806020018973ffffffffffffffffffffffffffffffffffffffff1673ffffffffffffffffffffffffffffffffffffffff1681526020018060200180602001806020018060200188815260200187815260200186810386528e818151815260200191508051906020019080838360005b8381101561107e578082015181840152602081019050611063565b50505050905090810190601f1680156110ab5780820380516001836020036101000a031916815260200191505b5086810385528c818151815260200191508051906020019080838360005b838110156110e45780820151818401526020810190506110c9565b50505050905090810190601f1680156111115780820380516001836020036101000a031916815260200191505b5086810384528b818151815260200191508051906020019080838360005b8381101561114a57808201518184015260208101905061112f565b50505050905090810190601f1680156111775780820380516001836020036101000a031916815260200191505b5086810383528a818151815260200191508051906020019080838360005b838110156111b0578082015181840152602081019050611195565b50505050905090810190601f1680156111dd5780820380516001836020036101000a031916815260200191505b50868103825289818151815260200191508051906020019080838360005b838110156112165780820151818401526020810190506111fb565b50505050905090810190601f1680156112435780820380516001836020036101000a031916815260200191505b509e50505050505050505050505050505060405180910390f35b6112896004803603602081101561127357600080fd5b810190808035906020019092919050505061318c565b005b6112b7600480360360208110156112a157600080fd5b8101908080359060200190929190505050613272565b604051808273ffffffffffffffffffffffffffffffffffffffff1673ffffffffffffffffffffffffffffffffffffffff16815260200191505060405180910390f35b6113016132ae565b6040518082815260200191505060405180910390f35b61131f6132b4565b604051808273ffffffffffffffffffffffffffffffffffffffff1673ffffffffffffffffffffffffffffffffffffffff16815260200191505060405180910390f35b61143a6004803603604081101561137757600080fd5b81019080803573ffffffffffffffffffffffffffffffffffffffff169060200190929190803590602001906401000000008111156113b457600080fd5b8201836020820111156113c657600080fd5b803590602001918460018302840111640100000000831117156113e857600080fd5b91908080601f016020809104026020016040519081016040528093929190818152602001838380828437600081840152601f19601f8201169050808301925050505050505091929192905050506132da565b005b600080815480929190600101919050555060405180610120016040528060005481526020018b81526020018a73ffffffffffffffffffffffffffffffffffffffff1681526020018981526020018881526020018781526020018681526020018581526020018481525060046000805481526020019081526020016000206000820151816000015560208201518160010190805190602001906114df929190613655565b5060408201518160020160006101000a81548173ffffffffffffffffffffffffffffffffffffffff021916908373ffffffffffffffffffffffffffffffffffffffff1602179055506060820151816003019080519060200190611543929190613655565b506080820151816004019080519060200190611560929190613655565b5060a082015181600501908051906020019061157d929190613655565b5060c082015181600601908051906020019061159a929190613655565b5060e0820151816007015561010082015181600801559050506040518060600160405280600054815260200183815260200182815250600560008054815260200190815260200160002060008201518160000155602082015181600101908051906020019061160a929190613655565b506040820151816002019080519060200190611627929190613655565b509050507f9fb2886cb46464e6b6b8e41368981dcfb776ab3d6b44ca3cc29f4087451d27b86000548b8b8b8b8b8b8a60405180898152602001806020018873ffffffffffffffffffffffffffffffffffffffff1673ffffffffffffffffffffffffffffffffffffffff1681526020018060200180602001806020018060200187815260200186810386528d818151815260200191508051906020019080838360005b838110156116e45780820151818401526020810190506116c9565b50505050905090810190601f1680156117115780820380516001836020036101000a031916815260200191505b5086810385528b818151815260200191508051906020019080838360005b8381101561174a57808201518184015260208101905061172f565b50505050905090810190601f1680156117775780820380516001836020036101000a031916815260200191505b5086810384528a818151815260200191508051906020019080838360005b838110156117b0578082015181840152602081019050611795565b50505050905090810190601f1680156117dd5780820380516001836020036101000a031916815260200191505b50868103835289818151815260200191508051906020019080838360005b838110156118165780820151818401526020810190506117fb565b50505050905090810190601f1680156118435780820380516001836020036101000a031916815260200191505b50868103825288818151815260200191508051906020019080838360005b8381101561187c578082015181840152602081019050611861565b50505050905090810190601f1680156118a95780820380516001836020036101000a031916815260200191505b509d505050505050505050505050505060405180910390a150505050505050505050565b6000600660003373ffffffffffffffffffffffffffffffffffffffff1673ffffffffffffffffffffffffffffffffffffffff168152602001908152602001600020600201805460018160011615610100020316600290049050111561193157600080fd5b604051806080016040528085815260200184815260200183815260200182815250600660003373ffffffffffffffffffffffffffffffffffffffff1673ffffffffffffffffffffffffffffffffffffffff16815260200190815260200160002060008201518160000190805190602001906119ad929190613655565b5060208201518160010190805190602001906119ca929190613655565b5060408201518160020190805190602001906119e7929190613655565b506060820151816003019080519060200190611a04929190613655565b5090505060083390806001815401808255809150509060018203906000526020600020016000909192909190916101000a81548173ffffffffffffffffffffffffffffffffffffffff021916908373ffffffffffffffffffffffffffffffffffffffff1602179055505060016000815480929190600101919050555050505050565b6005602052806000526040600020600091509050806000015490806001018054600181600116156101000203166002900480601f016020809104026020016040519081016040528092919081815260200182805460018160011615610100020316600290048015611b385780601f10611b0d57610100808354040283529160200191611b38565b820191906000526020600020905b815481529060010190602001808311611b1b57829003601f168201915b505050505090806002018054600181600116156101000203166002900480601f016020809104026020016040519081016040528092919081815260200182805460018160011615610100020316600290048015611bd65780601f10611bab57610100808354040283529160200191611bd6565b820191906000526020600020905b815481529060010190602001808311611bb957829003601f168201915b5050505050905083565b60005481565b60015481565b6000600460008a81526020019081526020016000206008015490506040518061012001604052808a81526020018981526020018873ffffffffffffffffffffffffffffffffffffffff16815260200187815260200186815260200185815260200184815260200183815260200182815250600460008b8152602001908152602001600020600082015181600001556020820151816001019080519060200190611c96929190613655565b5060408201518160020160006101000a81548173ffffffffffffffffffffffffffffffffffffffff021916908373ffffffffffffffffffffffffffffffffffffffff1602179055506060820151816003019080519060200190611cfa929190613655565b506080820151816004019080519060200190611d17929190613655565b5060a0820151816005019080519060200190611d34929190613655565b5060c0820151816006019080519060200190611d51929190613655565b5060e0820151816007015561010082015181600801559050507f9fb2886cb46464e6b6b8e41368981dcfb776ab3d6b44ca3cc29f4087451d27b86000548989898989898860405180898152602001806020018873ffffffffffffffffffffffffffffffffffffffff1673ffffffffffffffffffffffffffffffffffffffff1681526020018060200180602001806020018060200187815260200186810386528d818151815260200191508051906020019080838360005b83811015611e23578082015181840152602081019050611e08565b50505050905090810190601f168015611e505780820380516001836020036101000a031916815260200191505b5086810385528b818151815260200191508051906020019080838360005b83811015611e89578082015181840152602081019050611e6e565b50505050905090810190601f168015611eb65780820380516001836020036101000a031916815260200191505b5086810384528a818151815260200191508051906020019080838360005b83811015611eef578082015181840152602081019050611ed4565b50505050905090810190601f168015611f1c5780820380516001836020036101000a031916815260200191505b50868103835289818151815260200191508051906020019080838360005b83811015611f55578082015181840152602081019050611f3a565b50505050905090810190601f168015611f825780820380516001836020036101000a031916815260200191505b50868103825288818151815260200191508051906020019080838360005b83811015611fbb578082015181840152602081019050611fa0565b50505050905090810190601f168015611fe85780820380516001836020036101000a031916815260200191505b509d505050505050505050505050505060405180910390a1505050505050505050565b6007602052806000526040600020600091509050806000015490806001015490806002018054600181600116156101000203166002900480601f0160208091040260200160405190810160405280929190818152602001828054600181600116156101000203166002900480156120c35780601f10612098576101008083540402835291602001916120c3565b820191906000526020600020905b8154815290600101906020018083116120a657829003601f168201915b5050505050908060030160009054906101000a900473ffffffffffffffffffffffffffffffffffffffff16908060040154905085565b60008160046000858152602001908152602001600020600801540390506060600460008581526020019081526020016000206001018054600181600116156101000203166002900480601f0160208091040260200160405190810160405280929190818152602001828054600181600116156101000203166002900480156121c25780601f10612197576101008083540402835291602001916121c2565b820191906000526020600020905b8154815290600101906020018083116121a557829003601f168201915b5050505050905060006004600086815260200190815260200160002060020160009054906101000a900473ffffffffffffffffffffffffffffffffffffffff1690506060600460008781526020019081526020016000206003018054600181600116156101000203166002900480601f0160208091040260200160405190810160405280929190818152602001828054600181600116156101000203166002900480156122b05780601f10612285576101008083540402835291602001916122b0565b820191906000526020600020905b81548152906001019060200180831161229357829003601f168201915b505050505090506060600460008881526020019081526020016000206004018054600181600116156101000203166002900480601f0160208091040260200160405190810160405280929190818152602001828054600181600116156101000203166002900480156123635780601f1061233857610100808354040283529160200191612363565b820191906000526020600020905b81548152906001019060200180831161234657829003601f168201915b505050505090506060600460008981526020019081526020016000206005018054600181600116156101000203166002900480601f0160208091040260200160405190810160405280929190818152602001828054600181600116156101000203166002900480156124165780601f106123eb57610100808354040283529160200191612416565b820191906000526020600020905b8154815290600101906020018083116123f957829003601f168201915b505050505090506060600460008a81526020019081526020016000206006018054600181600116156101000203166002900480601f0160208091040260200160405190810160405280929190818152602001828054600181600116156101000203166002900480156124c95780601f1061249e576101008083540402835291602001916124c9565b820191906000526020600020905b8154815290600101906020018083116124ac57829003601f168201915b505050505090506000600460008b81526020019081526020016000206007015490506040518061012001604052808b81526020018881526020018773ffffffffffffffffffffffffffffffffffffffff16815260200186815260200185815260200184815260200183815260200182815260200189815250600460008c815260200190815260200160002060008201518160000155602082015181600101908051906020019061257a929190613655565b5060408201518160020160006101000a81548173ffffffffffffffffffffffffffffffffffffffff021916908373ffffffffffffffffffffffffffffffffffffffff16021790555060608201518160030190805190602001906125de929190613655565b5060808201518160040190805190602001906125fb929190613655565b5060a0820151816005019080519060200190612618929190613655565b5060c0820151816006019080519060200190612635929190613655565b5060e0820151816007015561010082015181600801559050508897507f9fb2886cb46464e6b6b8e41368981dcfb776ab3d6b44ca3cc29f4087451d27b88a8833888888888f60405180898152602001806020018873ffffffffffffffffffffffffffffffffffffffff1673ffffffffffffffffffffffffffffffffffffffff1681526020018060200180602001806020018060200187815260200186810386528d818151815260200191508051906020019080838360005b838110156127085780820151818401526020810190506126ed565b50505050905090810190601f1680156127355780820380516001836020036101000a031916815260200191505b5086810385528b818151815260200191508051906020019080838360005b8381101561276e578082015181840152602081019050612753565b50505050905090810190601f16801561279b5780820380516001836020036101000a031916815260200191505b5086810384528a818151815260200191508051906020019080838360005b838110156127d45780820151818401526020810190506127b9565b50505050905090810190601f1680156128015780820380516001836020036101000a031916815260200191505b50868103835289818151815260200191508051906020019080838360005b8381101561283a57808201518184015260208101905061281f565b50505050905090810190601f1680156128675780820380516001836020036101000a031916815260200191505b50868103825288818151815260200191508051906020019080838360005b838110156128a0578082015181840152602081019050612885565b50505050905090810190601f1680156128cd5780820380516001836020036101000a031916815260200191505b509d505050505050505050505050505060405180910390a1600060019050600060019050600190505b6002548111612a93573373ffffffffffffffffffffffffffffffffffffffff166007600083815260200190815260200160002060030160009054906101000a900473ffffffffffffffffffffffffffffffffffffffff1673ffffffffffffffffffffffffffffffffffffffff1614801561298557508b6007600083815260200190815260200160002060010154145b15612a865760008b60076000848152602001908152602001600020600401540190506040518060a001604052808381526020018e81526020018b81526020013373ffffffffffffffffffffffffffffffffffffffff168152602001828152506007600084815260200190815260200160002060008201518160000155602082015181600101556040820151816002019080519060200190612a27929190613655565b5060608201518160030160006101000a81548173ffffffffffffffffffffffffffffffffffffffff021916908373ffffffffffffffffffffffffffffffffffffffff160217905550608082015181600401559050506000925050612a93565b80806001019150506128f6565b6001821415612b88576002600081548092919060010191905055506040518060a0016040528060025481526020018d81526020018a81526020013373ffffffffffffffffffffffffffffffffffffffff1681526020018c81525060076000600254815260200190815260200160002060008201518160000155602082015181600101556040820151816002019080519060200190612b32929190613655565b5060608201518160030160006101000a81548173ffffffffffffffffffffffffffffffffffffffff021916908373ffffffffffffffffffffffffffffffffffffffff160217905550608082015181600401559050505b505050505050505050505050565b6006602052806000526040600020600091509050806000018054600181600116156101000203166002900480601f016020809104026020016040519081016040528092919081815260200182805460018160011615610100020316600290048015612c425780601f10612c1757610100808354040283529160200191612c42565b820191906000526020600020905b815481529060010190602001808311612c2557829003601f168201915b505050505090806001018054600181600116156101000203166002900480601f016020809104026020016040519081016040528092919081815260200182805460018160011615610100020316600290048015612ce05780601f10612cb557610100808354040283529160200191612ce0565b820191906000526020600020905b815481529060010190602001808311612cc357829003601f168201915b505050505090806002018054600181600116156101000203166002900480601f016020809104026020016040519081016040528092919081815260200182805460018160011615610100020316600290048015612d7e5780601f10612d5357610100808354040283529160200191612d7e565b820191906000526020600020905b815481529060010190602001808311612d6157829003601f168201915b505050505090806003018054600181600116156101000203166002900480601f016020809104026020016040519081016040528092919081815260200182805460018160011615610100020316600290048015612e1c5780601f10612df157610100808354040283529160200191612e1c565b820191906000526020600020905b815481529060010190602001808311612dff57829003601f168201915b5050505050905084565b6004602052806000526040600020600091509050806000015490806001018054600181600116156101000203166002900480601f016020809104026020016040519081016040528092919081815260200182805460018160011615610100020316600290048015612ed85780601f10612ead57610100808354040283529160200191612ed8565b820191906000526020600020905b815481529060010190602001808311612ebb57829003601f168201915b5050505050908060020160009054906101000a900473ffffffffffffffffffffffffffffffffffffffff1690806003018054600181600116156101000203166002900480601f016020809104026020016040519081016040528092919081815260200182805460018160011615610100020316600290048015612f9c5780601f10612f7157610100808354040283529160200191612f9c565b820191906000526020600020905b815481529060010190602001808311612f7f57829003601f168201915b505050505090806004018054600181600116156101000203166002900480601f01602080910402602001604051908101604052809291908181526020018280546001816001161561010002031660029004801561303a5780601f1061300f5761010080835404028352916020019161303a565b820191906000526020600020905b81548152906001019060200180831161301d57829003601f168201915b505050505090806005018054600181600116156101000203166002900480601f0160208091040260200160405190810160405280929190818152602001828054600181600116156101000203166002900480156130d85780601f106130ad576101008083540402835291602001916130d8565b820191906000526020600020905b8154815290600101906020018083116130bb57829003601f168201915b505050505090806006018054600181600116156101000203166002900480601f0160208091040260200160405190810160405280929190818152602001828054600181600116156101000203166002900480156131765780601f1061314b57610100808354040283529160200191613176565b820191906000526020600020905b81548152906001019060200180831161315957829003601f168201915b5050505050908060070154908060080154905089565b600460008281526020019081526020016000206000808201600090556001820160006131b891906136d5565b6002820160006101000a81549073ffffffffffffffffffffffffffffffffffffffff02191690556003820160006131ef91906136d5565b6004820160006131ff91906136d5565b60058201600061320f91906136d5565b60068201600061321f91906136d5565b6007820160009055600882016000905550506005600082815260200190815260200160002060008082016000905560018201600061325d91906136d5565b60028201600061326d91906136d5565b505050565b6008818154811061327f57fe5b906000526020600020016000915054906101000a900473ffffffffffffffffffffffffffffffffffffffff1681565b60025481565b600360009054906101000a900473ffffffffffffffffffffffffffffffffffffffff1681565b6060600660008473ffffffffffffffffffffffffffffffffffffffff1673ffffffffffffffffffffffffffffffffffffffff1681526020019081526020016000206000018054600181600116156101000203166002900480601f0160208091040260200160405190810160405280929190818152602001828054600181600116156101000203166002900480156133b25780601f10613387576101008083540402835291602001916133b2565b820191906000526020600020905b81548152906001019060200180831161339557829003601f168201915b505050505090506060600660008573ffffffffffffffffffffffffffffffffffffffff1673ffffffffffffffffffffffffffffffffffffffff1681526020019081526020016000206001018054600181600116156101000203166002900480601f0160208091040260200160405190810160405280929190818152602001828054600181600116156101000203166002900480156134915780601f1061346657610100808354040283529160200191613491565b820191906000526020600020905b81548152906001019060200180831161347457829003601f168201915b505050505090506060600660008673ffffffffffffffffffffffffffffffffffffffff1673ffffffffffffffffffffffffffffffffffffffff1681526020019081526020016000206002018054600181600116156101000203166002900480601f0160208091040260200160405190810160405280929190818152602001828054600181600116156101000203166002900480156135705780601f1061354557610100808354040283529160200191613570565b820191906000526020600020905b81548152906001019060200180831161355357829003601f168201915b50505050509050604051806080016040528084815260200183815260200182815260200185815250600660008773ffffffffffffffffffffffffffffffffffffffff1673ffffffffffffffffffffffffffffffffffffffff16815260200190815260200160002060008201518160000190805190602001906135f3929190613655565b506020820151816001019080519060200190613610929190613655565b50604082015181600201908051906020019061362d929190613655565b50606082015181600301908051906020019061364a929190613655565b509050505050505050565b828054600181600116156101000203166002900490600052602060002090601f016020900481019282601f1061369657805160ff19168380011785556136c4565b828001600101855582156136c4579182015b828111156136c35782518255916020019190600101906136a8565b5b5090506136d1919061371d565b5090565b50805460018160011615610100020316600290046000825580601f106136fb575061371a565b601f016020900490600052602060002090810190613719919061371d565b5b50565b61373f91905b8082111561373b576000816000905550600101613723565b5090565b9056fea265627a7a72315820c5152cfec05b65e69a2f31edc9ace2e2d17bae68192f498e37f87ad83789399964736f6c63430005100032",
  "source": "// SPDX-License-Identifier: MIT\r\npragma solidity >=0.4.22 <0.8.0;\r\n\r\ncontract Medicine {\r\n uint public medicineCount = 0;\r\n uint public usersCount = 0;\r\n uint public medicineforendusersCount = 0;\r\n address public admin;\r\n  struct Med {\r\n    uint id;    \r\n    string medname;\r\n    address manufaname;\r\n    string batchNo;\r\n    string manufadate;\r\n    string expdate;\r\n    string category;\r\n    uint price;\r\n    uint quantity;\r\n  }\r\n  mapping(uint => Med) public medicines;\r\n  struct MedDescDirection{\r\n    uint id;\r\n    string description;\r\n    string direction;\r\n  }\r\n   mapping(uint => MedDescDirection ) public meddescdirections;\r\n  struct User {       \r\n    string name;\r\n    string addr;\r\n    string role;\r\n    string approved;    \r\n  } \r\n  \r\n   mapping(address => User) public users;\r\n  struct MedicineForEndUser {       \r\n    uint id;\r\n    uint medicineid;\r\n    string medicinename;\r\n    address distributer ;\r\n    uint qty;\r\n  }  \r\n  mapping(uint => MedicineForEndUser) public medicineforendusers;\r\n  address[] public addresses;\r\n\r\n   // event \r\n    event updatedMedicine (\r\n        uint  id,    \r\n        string medname,\r\n        address manufaname,\r\n        string batchNo,\r\n        string manufadate,\r\n        string expdate,\r\n        string category,\r\n        //uint price,\r\n        uint quantity      \r\n    );\r\n\r\n  constructor() public {  \r\n    admin=msg.sender;    \r\n  }\r\n\r\n function addMedicine (string memory _medname,address _manufaname,string memory  _batchNo,string memory _manufadate,string memory _expdate,string memory _category,uint _price,uint _quantity,string memory _desc,string memory _directions) public {\r\n        medicineCount ++;\r\n        medicines[medicineCount] = Med(medicineCount, _medname,_manufaname,_batchNo, _manufadate,_expdate,_category,_price,_quantity);\r\n        meddescdirections[medicineCount]=MedDescDirection(medicineCount,_desc,_directions);\r\n        //emit addedProduct(productCount,msg.sender,_name,_date,_time,_productinfo);\r\n        emit updatedMedicine(medicineCount, _medname,_manufaname,_batchNo, _manufadate,_expdate,_category,_quantity);\r\n    }\r\n  function updateMedicine (uint _id,string memory _medname,address _manufaname,string memory  _batchNo,string memory _manufadate,string memory _expdate,string memory _category,uint _price) public {\r\n        uint _quanity=medicines[_id].quantity;\r\n        medicines[_id] = Med(_id, _medname,_manufaname,_batchNo, _manufadate,_expdate,_category,_price,_quanity);\r\n        //emit addedProduct(productCount,msg.sender,_name,_date,_time,_productinfo);\r\n        emit updatedMedicine(medicineCount, _medname,_manufaname,_batchNo, _manufadate,_expdate,_category,_quanity);\r\n    } \r\n  function deleteMedicine (uint _id) public {\r\n      delete(medicines[_id]);\r\n      delete  meddescdirections[_id];\r\n\r\n      //emit addedProduct(productCount,msg.sender,_name,_date,_time,_productinfo);\r\n  }  \r\n  function registerRoles (string memory _name,string memory _address,string memory _role,string memory _approved) public {\r\n        require(bytes(users[msg.sender].role).length<=0);\r\n        users[msg.sender] = User(_name,_address,_role,_approved);\r\n        addresses.push(msg.sender);\r\n        usersCount++;\r\n        //emit registeredEvent(msg.sender);\r\n    }\r\n    function approveUser (address _address,string memory _approved) public {\r\n        //require(msg.sender==admin);\r\n        string memory _name=users[_address].name;\r\n        string memory _addr=users[_address].addr;\r\n        string memory _role=users[_address].role;\r\n        users[_address] = User(_name,_addr,_role,_approved);        \r\n        //emit registeredEvent(msg.sender);\r\n    }\r\n    function buyMedicineByDistributer(uint _id,uint _qty) public  {\r\n      uint _quanity=medicines[_id].quantity-_qty;\r\n      string memory _medname=medicines[_id].medname;\r\n      address _manufaname=medicines[_id].manufaname;\r\n      string memory _batchNo=medicines[_id].batchNo;\r\n      string memory _manufadate=medicines[_id].manufadate;\r\n      string memory _expdate=medicines[_id].expdate;\r\n      string memory _category=medicines[_id].category;\r\n      uint _price=medicines[_id].price;    \r\n        \r\n      medicines[_id] = Med(_id, _medname,_manufaname,_batchNo,_manufadate,_expdate,_category,_price,_quanity);\r\n\r\n      _quanity = _qty;\r\n\r\n      emit updatedMedicine(_id, _medname,msg.sender,_batchNo, _manufadate,_expdate,_category, _quanity);\r\n       uint _newentry=1;\r\n      uint i=1;\r\n      for(i=1;i<=medicineforendusersCount;i++){\r\n        if((medicineforendusers[i].distributer==msg.sender)&&(medicineforendusers[i].medicineid==_id)){\r\n          uint newqty=medicineforendusers[i].qty+_qty;\r\n          medicineforendusers[i]=MedicineForEndUser(i,_id,_medname,msg.sender,newqty);\r\n          _newentry=0;\r\n          break;\r\n        }\r\n      }\r\n      if(_newentry==1){\r\n        medicineforendusersCount++;\r\n        medicineforendusers[medicineforendusersCount]=MedicineForEndUser(medicineforendusersCount,_id,_medname,msg.sender,_qty);\r\n      }\r\n      \r\n    }\r\n}",
  "sourcePath": "C:/Users/Rumana Javali/Desktop/Pharma-New/contracts/Medicine.sol",
  "compiler": {
    "name": "solc",
    "version": "0.5.16+commit.9c3226ce.Emscripten.clang"
  },
  "schemaVersion": "3.3.3",
  "updatedAt": "2021-03-08T14:56:55.087Z",
  "networkType": "ethereum",
  "devdoc": {
    "methods": {}
  },
  "userdoc": {
    "methods": {}
  }
}