{
  "contractName": "Medicine",
  "abi": [
    {
      "inputs": [],
      "payable": false,
      "stateMutability": "nonpayable",
      "type": "constructor"
    },
    {
      "anonymous": false,
      "inputs": [
        {
          "indexed": false,
          "internalType": "uint256",
          "name": "id",
          "type": "uint256"
        },
        {
          "indexed": false,
          "internalType": "string",
          "name": "medname",
          "type": "string"
        },
        {
          "indexed": false,
          "internalType": "address",
          "name": "manufaname",
          "type": "address"
        },
        {
          "indexed": false,
          "internalType": "string",
          "name": "batchNo",
          "type": "string"
        },
        {
          "indexed": false,
          "internalType": "string",
          "name": "manufadate",
          "type": "string"
        },
        {
          "indexed": false,
          "internalType": "string",
          "name": "expdate",
          "type": "string"
        },
        {
          "indexed": false,
          "internalType": "string",
          "name": "category",
          "type": "string"
        },
        {
          "indexed": false,
          "internalType": "uint256",
          "name": "quantity",
          "type": "uint256"
        }
      ],
      "name": "updatedMedicine",
      "type": "event"
    },
    {
      "constant": true,
      "inputs": [
        {
          "internalType": "uint256",
          "name": "",
          "type": "uint256"
        }
      ],
      "name": "addresses",
      "outputs": [
        {
          "internalType": "address",
          "name": "",
          "type": "address"
        }
      ],
      "payable": false,
      "stateMutability": "view",
      "type": "function"
    },
    {
      "constant": true,
      "inputs": [],
      "name": "admin",
      "outputs": [
        {
          "internalType": "address",
          "name": "",
          "type": "address"
        }
      ],
      "payable": false,
      "stateMutability": "view",
      "type": "function"
    },
    {
      "constant": true,
      "inputs": [
        {
          "internalType": "uint256",
          "name": "",
          "type": "uint256"
        }
      ],
      "name": "meddescdirections",
      "outputs": [
        {
          "internalType": "uint256",
          "name": "id",
          "type": "uint256"
        },
        {
          "internalType": "string",
          "name": "description",
          "type": "string"
        },
        {
          "internalType": "string",
          "name": "direction",
          "type": "string"
        }
      ],
      "payable": false,
      "stateMutability": "view",
      "type": "function"
    },
    {
      "constant": true,
      "inputs": [],
      "name": "medicineCount",
      "outputs": [
        {
          "internalType": "uint256",
          "name": "",
          "type": "uint256"
        }
      ],
      "payable": false,
      "stateMutability": "view",
      "type": "function"
    },
    {
      "constant": true,
      "inputs": [
        {
          "internalType": "uint256",
          "name": "",
          "type": "uint256"
        }
      ],
      "name": "medicineforendusers",
      "outputs": [
        {
          "internalType": "uint256",
          "name": "id",
          "type": "uint256"
        },
        {
          "internalType": "uint256",
          "name": "medicineid",
          "type": "uint256"
        },
        {
          "internalType": "string",
          "name": "medicinename",
          "type": "string"
        },
        {
          "internalType": "address",
          "name": "distributer",
          "type": "address"
        },
        {
          "internalType": "uint256",
          "name": "qty",
          "type": "uint256"
        }
      ],
      "payable": false,
      "stateMutability": "view",
      "type": "function"
    },
    {
      "constant": true,
      "inputs": [],
      "name": "medicineforendusersCount",
      "outputs": [
        {
          "internalType": "uint256",
          "name": "",
          "type": "uint256"
        }
      ],
      "payable": false,
      "stateMutability": "view",
      "type": "function"
    },
    {
      "constant": true,
      "inputs": [
        {
          "internalType": "uint256",
          "name": "",
          "type": "uint256"
        }
      ],
      "name": "medicines",
      "outputs": [
        {
          "internalType": "uint256",
          "name": "id",
          "type": "uint256"
        },
        {
          "internalType": "string",
          "name": "medname",
          "type": "string"
        },
        {
          "internalType": "address",
          "name": "manufaname",
          "type": "address"
        },
        {
          "internalType": "string",
          "name": "batchNo",
          "type": "string"
        },
        {
          "internalType": "string",
          "name": "manufadate",
          "type": "string"
        },
        {
          "internalType": "string",
          "name": "expdate",
          "type": "string"
        },
        {
          "internalType": "string",
          "name": "category",
          "type": "string"
        },
        {
          "internalType": "uint256",
          "name": "price",
          "type": "uint256"
        },
        {
          "internalType": "uint256",
          "name": "quantity",
          "type": "uint256"
        }
      ],
      "payable": false,
      "stateMutability": "view",
      "type": "function"
    },
    {
      "constant": true,
      "inputs": [],
      "name": "orderStatusCount",
      "outputs": [
        {
          "internalType": "uint256",
          "name": "",
          "type": "uint256"
        }
      ],
      "payable": false,
      "stateMutability": "view",
      "type": "function"
    },
    {
      "constant": true,
      "inputs": [],
      "name": "orderStatusCountEndUser",
      "outputs": [
        {
          "internalType": "uint256",
          "name": "",
          "type": "uint256"
        }
      ],
      "payable": false,
      "stateMutability": "view",
      "type": "function"
    },
    {
      "constant": true,
      "inputs": [
        {
          "internalType": "uint256",
          "name": "",
          "type": "uint256"
        }
      ],
      "name": "orderstatuses",
      "outputs": [
        {
          "internalType": "uint256",
          "name": "id",
          "type": "uint256"
        },
        {
          "internalType": "uint256",
          "name": "medid",
          "type": "uint256"
        },
        {
          "internalType": "uint256",
          "name": "qty",
          "type": "uint256"
        },
        {
          "internalType": "address",
          "name": "manufacturer",
          "type": "address"
        },
        {
          "internalType": "address",
          "name": "distributer",
          "type": "address"
        },
        {
          "internalType": "string",
          "name": "status",
          "type": "string"
        }
      ],
      "payable": false,
      "stateMutability": "view",
      "type": "function"
    },
    {
      "constant": true,
      "inputs": [
        {
          "internalType": "uint256",
          "name": "",
          "type": "uint256"
        }
      ],
      "name": "orderstatusesofenderusers",
      "outputs": [
        {
          "internalType": "uint256",
          "name": "id",
          "type": "uint256"
        },
        {
          "internalType": "uint256",
          "name": "medid",
          "type": "uint256"
        },
        {
          "internalType": "uint256",
          "name": "qty",
          "type": "uint256"
        },
        {
          "internalType": "address",
          "name": "distributer",
          "type": "address"
        },
        {
          "internalType": "address",
          "name": "enduser",
          "type": "address"
        },
        {
          "internalType": "string",
          "name": "status",
          "type": "string"
        }
      ],
      "payable": false,
      "stateMutability": "view",
      "type": "function"
    },
    {
      "constant": true,
      "inputs": [
        {
          "internalType": "address",
          "name": "",
          "type": "address"
        }
      ],
      "name": "users",
      "outputs": [
        {
          "internalType": "string",
          "name": "name",
          "type": "string"
        },
        {
          "internalType": "string",
          "name": "addr",
          "type": "string"
        },
        {
          "internalType": "string",
          "name": "role",
          "type": "string"
        },
        {
          "internalType": "string",
          "name": "approved",
          "type": "string"
        }
      ],
      "payable": false,
      "stateMutability": "view",
      "type": "function"
    },
    {
      "constant": true,
      "inputs": [],
      "name": "usersCount",
      "outputs": [
        {
          "internalType": "uint256",
          "name": "",
          "type": "uint256"
        }
      ],
      "payable": false,
      "stateMutability": "view",
      "type": "function"
    },
    {
      "constant": false,
      "inputs": [
        {
          "internalType": "string",
          "name": "_medname",
          "type": "string"
        },
        {
          "internalType": "address",
          "name": "_manufaname",
          "type": "address"
        },
        {
          "internalType": "string",
          "name": "_batchNo",
          "type": "string"
        },
        {
          "internalType": "string",
          "name": "_manufadate",
          "type": "string"
        },
        {
          "internalType": "string",
          "name": "_expdate",
          "type": "string"
        },
        {
          "internalType": "string",
          "name": "_category",
          "type": "string"
        },
        {
          "internalType": "uint256",
          "name": "_price",
          "type": "uint256"
        },
        {
          "internalType": "uint256",
          "name": "_quantity",
          "type": "uint256"
        },
        {
          "internalType": "string",
          "name": "_desc",
          "type": "string"
        },
        {
          "internalType": "string",
          "name": "_directions",
          "type": "string"
        }
      ],
      "name": "addMedicine",
      "outputs": [],
      "payable": false,
      "stateMutability": "nonpayable",
      "type": "function"
    },
    {
      "constant": false,
      "inputs": [
        {
          "internalType": "uint256",
          "name": "_id",
          "type": "uint256"
        },
        {
          "internalType": "string",
          "name": "_medname",
          "type": "string"
        },
        {
          "internalType": "address",
          "name": "_manufaname",
          "type": "address"
        },
        {
          "internalType": "string",
          "name": "_batchNo",
          "type": "string"
        },
        {
          "internalType": "string",
          "name": "_manufadate",
          "type": "string"
        },
        {
          "internalType": "string",
          "name": "_expdate",
          "type": "string"
        },
        {
          "internalType": "string",
          "name": "_category",
          "type": "string"
        },
        {
          "internalType": "uint256",
          "name": "_price",
          "type": "uint256"
        }
      ],
      "name": "updateMedicine",
      "outputs": [],
      "payable": false,
      "stateMutability": "nonpayable",
      "type": "function"
    },
    {
      "constant": false,
      "inputs": [
        {
          "internalType": "uint256",
          "name": "_id",
          "type": "uint256"
        }
      ],
      "name": "deleteMedicine",
      "outputs": [],
      "payable": false,
      "stateMutability": "nonpayable",
      "type": "function"
    },
    {
      "constant": false,
      "inputs": [
        {
          "internalType": "string",
          "name": "_name",
          "type": "string"
        },
        {
          "internalType": "string",
          "name": "_address",
          "type": "string"
        },
        {
          "internalType": "string",
          "name": "_role",
          "type": "string"
        },
        {
          "internalType": "string",
          "name": "_approved",
          "type": "string"
        }
      ],
      "name": "registerRoles",
      "outputs": [],
      "payable": false,
      "stateMutability": "nonpayable",
      "type": "function"
    },
    {
      "constant": false,
      "inputs": [
        {
          "internalType": "address",
          "name": "_address",
          "type": "address"
        },
        {
          "internalType": "string",
          "name": "_approved",
          "type": "string"
        }
      ],
      "name": "approveUser",
      "outputs": [],
      "payable": false,
      "stateMutability": "nonpayable",
      "type": "function"
    },
    {
      "constant": false,
      "inputs": [
        {
          "internalType": "uint256",
          "name": "_id",
          "type": "uint256"
        },
        {
          "internalType": "string",
          "name": "_status",
          "type": "string"
        }
      ],
      "name": "updateOrderStatus",
      "outputs": [],
      "payable": false,
      "stateMutability": "nonpayable",
      "type": "function"
    },
    {
      "constant": false,
      "inputs": [
        {
          "internalType": "uint256",
          "name": "_id",
          "type": "uint256"
        },
        {
          "internalType": "address",
          "name": "_manufact",
          "type": "address"
        },
        {
          "internalType": "uint256",
          "name": "_qty",
          "type": "uint256"
        }
      ],
      "name": "buyMedicineByDistributer",
      "outputs": [],
      "payable": false,
      "stateMutability": "nonpayable",
      "type": "function"
    },
    {
      "constant": false,
      "inputs": [
        {
          "internalType": "uint256",
          "name": "_id",
          "type": "uint256"
        },
        {
          "internalType": "uint256",
          "name": "_qty",
          "type": "uint256"
        }
      ],
      "name": "buyMedicineByEndUser",
      "outputs": [],
      "payable": false,
      "stateMutability": "nonpayable",
      "type": "function"
    },
    {
      "constant": false,
      "inputs": [
        {
          "internalType": "uint256",
          "name": "_id",
          "type": "uint256"
        },
        {
          "internalType": "string",
          "name": "_status",
          "type": "string"
        }
      ],
      "name": "updateOrderStatusEndUser",
      "outputs": [],
      "payable": false,
      "stateMutability": "nonpayable",
      "type": "function"
    }
  ],
  "bytecode": "0x608060405260008055600060015560006002556000600355600060045534801561002857600080fd5b5033600560006101000a81548173ffffffffffffffffffffffffffffffffffffffff021916908373ffffffffffffffffffffffffffffffffffffffff160217905550614739806100796000396000f3fe608060405234801561001057600080fd5b50600436106101425760003560e01c8063a87430ba116100b8578063e20c002f1161007c578063e20c002f146116e4578063e57387ea14611702578063edf26d9b1461173a578063f484bf14146117a8578063f851a440146117c6578063ff6ee6331461181057610142565b8063a87430ba146110f9578063ab7dc743146112fa578063c85e766d14611352578063d19aa54f146115f1578063d5a8a9401461161f57610142565b80634d06f1c11161010a5780634d06f1c114610a465780634dafd49014610b605780636ba13a8214610b7e57806374d26a3314610b9c57806378002b7214610ee85780638cb16cde1461100a57610142565b806319e1eb0814610147578063205fdde6146105c15780632adcaa03146106865780633c30f2e21461090657806342f657d014610924575b600080fd5b6105bf600480360361014081101561015e57600080fd5b810190808035906020019064010000000081111561017b57600080fd5b82018360208201111561018d57600080fd5b803590602001918460018302840111640100000000831117156101af57600080fd5b91908080601f016020809104026020016040519081016040528093929190818152602001838380828437600081840152601f19601f820116905080830192505050505050509192919290803573ffffffffffffffffffffffffffffffffffffffff1690602001909291908035906020019064010000000081111561023257600080fd5b82018360208201111561024457600080fd5b8035906020019184600183028401116401000000008311171561026657600080fd5b91908080601f016020809104026020016040519081016040528093929190818152602001838380828437600081840152601f19601f820116905080830192505050505050509192919290803590602001906401000000008111156102c957600080fd5b8201836020820111156102db57600080fd5b803590602001918460018302840111640100000000831117156102fd57600080fd5b91908080601f016020809104026020016040519081016040528093929190818152602001838380828437600081840152601f19601f8201169050808301925050505050505091929192908035906020019064010000000081111561036057600080fd5b82018360208201111561037257600080fd5b8035906020019184600183028401116401000000008311171561039457600080fd5b91908080601f016020809104026020016040519081016040528093929190818152602001838380828437600081840152601f19601f820116905080830192505050505050509192919290803590602001906401000000008111156103f757600080fd5b82018360208201111561040957600080fd5b8035906020019184600183028401116401000000008311171561042b57600080fd5b91908080601f016020809104026020016040519081016040528093929190818152602001838380828437600081840152601f19601f8201169050808301925050505050505091929192908035906020019092919080359060200190929190803590602001906401000000008111156104a257600080fd5b8201836020820111156104b457600080fd5b803590602001918460018302840111640100000000831117156104d657600080fd5b91908080601f016020809104026020016040519081016040528093929190818152602001838380828437600081840152601f19601f8201169050808301925050505050505091929192908035906020019064010000000081111561053957600080fd5b82018360208201111561054b57600080fd5b8035906020019184600183028401116401000000008311171561056d57600080fd5b91908080601f016020809104026020016040519081016040528093929190818152602001838380828437600081840152601f19601f8201169050808301925050505050505091929192905050506118eb565b005b610684600480360360408110156105d757600080fd5b8101908080359060200190929190803590602001906401000000008111156105fe57600080fd5b82018360208201111561061057600080fd5b8035906020019184600183028401116401000000008311171561063257600080fd5b91908080601f016020809104026020016040519081016040528093929190818152602001838380828437600081840152601f19601f820116905080830192505050505050509192919290505050611d7c565b005b6109046004803603608081101561069c57600080fd5b81019080803590602001906401000000008111156106b957600080fd5b8201836020820111156106cb57600080fd5b803590602001918460018302840111640100000000831117156106ed57600080fd5b91908080601f016020809104026020016040519081016040528093929190818152602001838380828437600081840152601f19601f8201169050808301925050505050505091929192908035906020019064010000000081111561075057600080fd5b82018360208201111561076257600080fd5b8035906020019184600183028401116401000000008311171561078457600080fd5b91908080601f016020809104026020016040519081016040528093929190818152602001838380828437600081840152601f19601f820116905080830192505050505050509192919290803590602001906401000000008111156107e757600080fd5b8201836020820111156107f957600080fd5b8035906020019184600183028401116401000000008311171561081b57600080fd5b91908080601f016020809104026020016040519081016040528093929190818152602001838380828437600081840152601f19601f8201169050808301925050505050505091929192908035906020019064010000000081111561087e57600080fd5b82018360208201111561089057600080fd5b803590602001918460018302840111640100000000831117156108b257600080fd5b91908080601f016020809104026020016040519081016040528093929190818152602001838380828437600081840152601f19601f820116905080830192505050505050509192919290505050611f68565b005b61090e612121565b6040518082815260200191505060405180910390f35b6109506004803603602081101561093a57600080fd5b8101908080359060200190929190505050612127565b604051808781526020018681526020018581526020018473ffffffffffffffffffffffffffffffffffffffff1673ffffffffffffffffffffffffffffffffffffffff1681526020018373ffffffffffffffffffffffffffffffffffffffff1673ffffffffffffffffffffffffffffffffffffffff16815260200180602001828103825283818151815260200191508051906020019080838360005b83811015610a065780820151818401526020810190506109eb565b50505050905090810190601f168015610a335780820380516001836020036101000a031916815260200191505b5097505050505050505060405180910390f35b610a7260048036036020811015610a5c57600080fd5b810190808035906020019092919050505061223b565b604051808481526020018060200180602001838103835285818151815260200191508051906020019080838360005b83811015610abc578082015181840152602081019050610aa1565b50505050905090810190601f168015610ae95780820380516001836020036101000a031916815260200191505b50838103825284818151815260200191508051906020019080838360005b83811015610b22578082015181840152602081019050610b07565b50505050905090810190601f168015610b4f5780820380516001836020036101000a031916815260200191505b509550505050505060405180910390f35b610b68612395565b6040518082815260200191505060405180910390f35b610b8661239b565b6040518082815260200191505060405180910390f35b610ee66004803603610100811015610bb357600080fd5b810190808035906020019092919080359060200190640100000000811115610bda57600080fd5b820183602082011115610bec57600080fd5b80359060200191846001830284011164010000000083111715610c0e57600080fd5b91908080601f016020809104026020016040519081016040528093929190818152602001838380828437600081840152601f19601f820116905080830192505050505050509192919290803573ffffffffffffffffffffffffffffffffffffffff16906020019092919080359060200190640100000000811115610c9157600080fd5b820183602082011115610ca357600080fd5b80359060200191846001830284011164010000000083111715610cc557600080fd5b91908080601f016020809104026020016040519081016040528093929190818152602001838380828437600081840152601f19601f82011690508083019250505050505050919291929080359060200190640100000000811115610d2857600080fd5b820183602082011115610d3a57600080fd5b80359060200191846001830284011164010000000083111715610d5c57600080fd5b91908080601f016020809104026020016040519081016040528093929190818152602001838380828437600081840152601f19601f82011690508083019250505050505050919291929080359060200190640100000000811115610dbf57600080fd5b820183602082011115610dd157600080fd5b80359060200191846001830284011164010000000083111715610df357600080fd5b91908080601f016020809104026020016040519081016040528093929190818152602001838380828437600081840152601f19601f82011690508083019250505050505050919291929080359060200190640100000000811115610e5657600080fd5b820183602082011115610e6857600080fd5b80359060200191846001830284011164010000000083111715610e8a57600080fd5b91908080601f016020809104026020016040519081016040528093929190818152602001838380828437600081840152601f19601f820116905080830192505050505050509192919290803590602001909291905050506123a1565b005b610f1460048036036020811015610efe57600080fd5b81019080803590602001909291905050506127c0565b604051808781526020018681526020018581526020018473ffffffffffffffffffffffffffffffffffffffff1673ffffffffffffffffffffffffffffffffffffffff1681526020018373ffffffffffffffffffffffffffffffffffffffff1673ffffffffffffffffffffffffffffffffffffffff16815260200180602001828103825283818151815260200191508051906020019080838360005b83811015610fca578082015181840152602081019050610faf565b50505050905090810190601f168015610ff75780820380516001836020036101000a031916815260200191505b5097505050505050505060405180910390f35b6110366004803603602081101561102057600080fd5b81019080803590602001909291905050506128d4565b60405180868152602001858152602001806020018473ffffffffffffffffffffffffffffffffffffffff1673ffffffffffffffffffffffffffffffffffffffff168152602001838152602001828103825285818151815260200191508051906020019080838360005b838110156110ba57808201518184015260208101905061109f565b50505050905090810190601f1680156110e75780820380516001836020036101000a031916815260200191505b50965050505050505060405180910390f35b61113b6004803603602081101561110f57600080fd5b81019080803573ffffffffffffffffffffffffffffffffffffffff1690602001909291905050506129c2565b6040518080602001806020018060200180602001858103855289818151815260200191508051906020019080838360005b8381101561118757808201518184015260208101905061116c565b50505050905090810190601f1680156111b45780820380516001836020036101000a031916815260200191505b50858103845288818151815260200191508051906020019080838360005b838110156111ed5780820151818401526020810190506111d2565b50505050905090810190601f16801561121a5780820380516001836020036101000a031916815260200191505b50858103835287818151815260200191508051906020019080838360005b83811015611253578082015181840152602081019050611238565b50505050905090810190601f1680156112805780820380516001836020036101000a031916815260200191505b50858103825286818151815260200191508051906020019080838360005b838110156112b957808201518184015260208101905061129e565b50505050905090810190601f1680156112e65780820380516001836020036101000a031916815260200191505b509850505050505050505060405180910390f35b6113506004803603606081101561131057600080fd5b8101908080359060200190929190803573ffffffffffffffffffffffffffffffffffffffff16906020019092919080359060200190929190505050612c52565b005b61137e6004803603602081101561136857600080fd5b8101908080359060200190929190505050613870565b604051808a8152602001806020018973ffffffffffffffffffffffffffffffffffffffff1673ffffffffffffffffffffffffffffffffffffffff1681526020018060200180602001806020018060200188815260200187815260200186810386528e818151815260200191508051906020019080838360005b838110156114125780820151818401526020810190506113f7565b50505050905090810190601f16801561143f5780820380516001836020036101000a031916815260200191505b5086810385528c818151815260200191508051906020019080838360005b8381101561147857808201518184015260208101905061145d565b50505050905090810190601f1680156114a55780820380516001836020036101000a031916815260200191505b5086810384528b818151815260200191508051906020019080838360005b838110156114de5780820151818401526020810190506114c3565b50505050905090810190601f16801561150b5780820380516001836020036101000a031916815260200191505b5086810383528a818151815260200191508051906020019080838360005b83811015611544578082015181840152602081019050611529565b50505050905090810190601f1680156115715780820380516001836020036101000a031916815260200191505b50868103825289818151815260200191508051906020019080838360005b838110156115aa57808201518184015260208101905061158f565b50505050905090810190601f1680156115d75780820380516001836020036101000a031916815260200191505b509e50505050505050505050505050505060405180910390f35b61161d6004803603602081101561160757600080fd5b8101908080359060200190929190505050613bd6565b005b6116e26004803603604081101561163557600080fd5b81019080803590602001909291908035906020019064010000000081111561165c57600080fd5b82018360208201111561166e57600080fd5b8035906020019184600183028401116401000000008311171561169057600080fd5b91908080601f016020809104026020016040519081016040528093929190818152602001838380828437600081840152601f19601f820116905080830192505050505050509192919290505050613cbc565b005b6116ec613ea8565b6040518082815260200191505060405180910390f35b6117386004803603604081101561171857600080fd5b810190808035906020019092919080359060200190929190505050613eae565b005b6117666004803603602081101561175057600080fd5b8101908080359060200190929190505050614234565b604051808273ffffffffffffffffffffffffffffffffffffffff1673ffffffffffffffffffffffffffffffffffffffff16815260200191505060405180910390f35b6117b0614270565b6040518082815260200191505060405180910390f35b6117ce614276565b604051808273ffffffffffffffffffffffffffffffffffffffff1673ffffffffffffffffffffffffffffffffffffffff16815260200191505060405180910390f35b6118e96004803603604081101561182657600080fd5b81019080803573ffffffffffffffffffffffffffffffffffffffff1690602001909291908035906020019064010000000081111561186357600080fd5b82018360208201111561187557600080fd5b8035906020019184600183028401116401000000008311171561189757600080fd5b91908080601f016020809104026020016040519081016040528093929190818152602001838380828437600081840152601f19601f82011690508083019250505050505050919291929050505061429c565b005b600080815480929190600101919050555060405180610120016040528060005481526020018b81526020018a73ffffffffffffffffffffffffffffffffffffffff16815260200189815260200188815260200187815260200186815260200185815260200184815250600660008054815260200190815260200160002060008201518160000155602082015181600101908051906020019061198e929190614617565b5060408201518160020160006101000a81548173ffffffffffffffffffffffffffffffffffffffff021916908373ffffffffffffffffffffffffffffffffffffffff16021790555060608201518160030190805190602001906119f2929190614617565b506080820151816004019080519060200190611a0f929190614617565b5060a0820151816005019080519060200190611a2c929190614617565b5060c0820151816006019080519060200190611a49929190614617565b5060e08201518160070155610100820151816008015590505060405180606001604052806000548152602001838152602001828152506007600080548152602001908152602001600020600082015181600001556020820151816001019080519060200190611ab9929190614617565b506040820151816002019080519060200190611ad6929190614617565b509050507f9fb2886cb46464e6b6b8e41368981dcfb776ab3d6b44ca3cc29f4087451d27b86000548b8b8b8b8b8b8a60405180898152602001806020018873ffffffffffffffffffffffffffffffffffffffff1673ffffffffffffffffffffffffffffffffffffffff1681526020018060200180602001806020018060200187815260200186810386528d818151815260200191508051906020019080838360005b83811015611b93578082015181840152602081019050611b78565b50505050905090810190601f168015611bc05780820380516001836020036101000a031916815260200191505b5086810385528b818151815260200191508051906020019080838360005b83811015611bf9578082015181840152602081019050611bde565b50505050905090810190601f168015611c265780820380516001836020036101000a031916815260200191505b5086810384528a818151815260200191508051906020019080838360005b83811015611c5f578082015181840152602081019050611c44565b50505050905090810190601f168015611c8c5780820380516001836020036101000a031916815260200191505b50868103835289818151815260200191508051906020019080838360005b83811015611cc5578082015181840152602081019050611caa565b50505050905090810190601f168015611cf25780820380516001836020036101000a031916815260200191505b50868103825288818151815260200191508051906020019080838360005b83811015611d2b578082015181840152602081019050611d10565b50505050905090810190601f168015611d585780820380516001836020036101000a031916815260200191505b509d505050505050505050505050505060405180910390a150505050505050505050565b60006008600084815260200190815260200160002060010154905060006008600085815260200190815260200160002060020154905060006008600086815260200190815260200160002060030160009054906101000a900473ffffffffffffffffffffffffffffffffffffffff16905060006008600087815260200190815260200160002060040160009054906101000a900473ffffffffffffffffffffffffffffffffffffffff1690506040518060c001604052808781526020018581526020018481526020018373ffffffffffffffffffffffffffffffffffffffff1681526020018273ffffffffffffffffffffffffffffffffffffffff168152602001868152506008600088815260200190815260200160002060008201518160000155602082015181600101556040820151816002015560608201518160030160006101000a81548173ffffffffffffffffffffffffffffffffffffffff021916908373ffffffffffffffffffffffffffffffffffffffff16021790555060808201518160040160006101000a81548173ffffffffffffffffffffffffffffffffffffffff021916908373ffffffffffffffffffffffffffffffffffffffff16021790555060a0820151816005019080519060200190611f5c929190614617565b50905050505050505050565b6000600960003373ffffffffffffffffffffffffffffffffffffffff1673ffffffffffffffffffffffffffffffffffffffff1681526020019081526020016000206002018054600181600116156101000203166002900490501115611fcc57600080fd5b604051806080016040528085815260200184815260200183815260200182815250600960003373ffffffffffffffffffffffffffffffffffffffff1673ffffffffffffffffffffffffffffffffffffffff1681526020019081526020016000206000820151816000019080519060200190612048929190614617565b506020820151816001019080519060200190612065929190614617565b506040820151816002019080519060200190612082929190614617565b50606082015181600301908051906020019061209f929190614617565b50905050600b3390806001815401808255809150509060018203906000526020600020016000909192909190916101000a81548173ffffffffffffffffffffffffffffffffffffffff021916908373ffffffffffffffffffffffffffffffffffffffff1602179055505060016000815480929190600101919050555050505050565b60025481565b60086020528060005260406000206000915090508060000154908060010154908060020154908060030160009054906101000a900473ffffffffffffffffffffffffffffffffffffffff16908060040160009054906101000a900473ffffffffffffffffffffffffffffffffffffffff1690806005018054600181600116156101000203166002900480601f0160208091040260200160405190810160405280929190818152602001828054600181600116156101000203166002900480156122315780601f1061220657610100808354040283529160200191612231565b820191906000526020600020905b81548152906001019060200180831161221457829003601f168201915b5050505050905086565b6007602052806000526040600020600091509050806000015490806001018054600181600116156101000203166002900480601f0160208091040260200160405190810160405280929190818152602001828054600181600116156101000203166002900480156122ed5780601f106122c2576101008083540402835291602001916122ed565b820191906000526020600020905b8154815290600101906020018083116122d057829003601f168201915b505050505090806002018054600181600116156101000203166002900480601f01602080910402602001604051908101604052809291908181526020018280546001816001161561010002031660029004801561238b5780601f106123605761010080835404028352916020019161238b565b820191906000526020600020905b81548152906001019060200180831161236e57829003601f168201915b5050505050905083565b60005481565b60015481565b6000600660008a81526020019081526020016000206008015490506040518061012001604052808a81526020018981526020018873ffffffffffffffffffffffffffffffffffffffff16815260200187815260200186815260200185815260200184815260200183815260200182815250600660008b815260200190815260200160002060008201518160000155602082015181600101908051906020019061244b929190614617565b5060408201518160020160006101000a81548173ffffffffffffffffffffffffffffffffffffffff021916908373ffffffffffffffffffffffffffffffffffffffff16021790555060608201518160030190805190602001906124af929190614617565b5060808201518160040190805190602001906124cc929190614617565b5060a08201518160050190805190602001906124e9929190614617565b5060c0820151816006019080519060200190612506929190614617565b5060e0820151816007015561010082015181600801559050507f9fb2886cb46464e6b6b8e41368981dcfb776ab3d6b44ca3cc29f4087451d27b86000548989898989898860405180898152602001806020018873ffffffffffffffffffffffffffffffffffffffff1673ffffffffffffffffffffffffffffffffffffffff1681526020018060200180602001806020018060200187815260200186810386528d818151815260200191508051906020019080838360005b838110156125d85780820151818401526020810190506125bd565b50505050905090810190601f1680156126055780820380516001836020036101000a031916815260200191505b5086810385528b818151815260200191508051906020019080838360005b8381101561263e578082015181840152602081019050612623565b50505050905090810190601f16801561266b5780820380516001836020036101000a031916815260200191505b5086810384528a818151815260200191508051906020019080838360005b838110156126a4578082015181840152602081019050612689565b50505050905090810190601f1680156126d15780820380516001836020036101000a031916815260200191505b50868103835289818151815260200191508051906020019080838360005b8381101561270a5780820151818401526020810190506126ef565b50505050905090810190601f1680156127375780820380516001836020036101000a031916815260200191505b50868103825288818151815260200191508051906020019080838360005b83811015612770578082015181840152602081019050612755565b50505050905090810190601f16801561279d5780820380516001836020036101000a031916815260200191505b509d505050505050505050505050505060405180910390a1505050505050505050565b600c6020528060005260406000206000915090508060000154908060010154908060020154908060030160009054906101000a900473ffffffffffffffffffffffffffffffffffffffff16908060040160009054906101000a900473ffffffffffffffffffffffffffffffffffffffff1690806005018054600181600116156101000203166002900480601f0160208091040260200160405190810160405280929190818152602001828054600181600116156101000203166002900480156128ca5780601f1061289f576101008083540402835291602001916128ca565b820191906000526020600020905b8154815290600101906020018083116128ad57829003601f168201915b5050505050905086565b600a602052806000526040600020600091509050806000015490806001015490806002018054600181600116156101000203166002900480601f01602080910402602001604051908101604052809291908181526020018280546001816001161561010002031660029004801561298c5780601f106129615761010080835404028352916020019161298c565b820191906000526020600020905b81548152906001019060200180831161296f57829003601f168201915b5050505050908060030160009054906101000a900473ffffffffffffffffffffffffffffffffffffffff16908060040154905085565b6009602052806000526040600020600091509050806000018054600181600116156101000203166002900480601f016020809104026020016040519081016040528092919081815260200182805460018160011615610100020316600290048015612a6e5780601f10612a4357610100808354040283529160200191612a6e565b820191906000526020600020905b815481529060010190602001808311612a5157829003601f168201915b505050505090806001018054600181600116156101000203166002900480601f016020809104026020016040519081016040528092919081815260200182805460018160011615610100020316600290048015612b0c5780601f10612ae157610100808354040283529160200191612b0c565b820191906000526020600020905b815481529060010190602001808311612aef57829003601f168201915b505050505090806002018054600181600116156101000203166002900480601f016020809104026020016040519081016040528092919081815260200182805460018160011615610100020316600290048015612baa5780601f10612b7f57610100808354040283529160200191612baa565b820191906000526020600020905b815481529060010190602001808311612b8d57829003601f168201915b505050505090806003018054600181600116156101000203166002900480601f016020809104026020016040519081016040528092919081815260200182805460018160011615610100020316600290048015612c485780601f10612c1d57610100808354040283529160200191612c48565b820191906000526020600020905b815481529060010190602001808311612c2b57829003601f168201915b5050505050905084565b60008160066000868152602001908152602001600020600801540390506060600660008681526020019081526020016000206001018054600181600116156101000203166002900480601f016020809104026020016040519081016040528092919081815260200182805460018160011615610100020316600290048015612d1b5780601f10612cf057610100808354040283529160200191612d1b565b820191906000526020600020905b815481529060010190602001808311612cfe57829003601f168201915b5050505050905060006006600087815260200190815260200160002060020160009054906101000a900473ffffffffffffffffffffffffffffffffffffffff1690506060600660008881526020019081526020016000206003018054600181600116156101000203166002900480601f016020809104026020016040519081016040528092919081815260200182805460018160011615610100020316600290048015612e095780601f10612dde57610100808354040283529160200191612e09565b820191906000526020600020905b815481529060010190602001808311612dec57829003601f168201915b505050505090506060600660008981526020019081526020016000206004018054600181600116156101000203166002900480601f016020809104026020016040519081016040528092919081815260200182805460018160011615610100020316600290048015612ebc5780601f10612e9157610100808354040283529160200191612ebc565b820191906000526020600020905b815481529060010190602001808311612e9f57829003601f168201915b505050505090506060600660008a81526020019081526020016000206005018054600181600116156101000203166002900480601f016020809104026020016040519081016040528092919081815260200182805460018160011615610100020316600290048015612f6f5780601f10612f4457610100808354040283529160200191612f6f565b820191906000526020600020905b815481529060010190602001808311612f5257829003601f168201915b505050505090506060600660008b81526020019081526020016000206006018054600181600116156101000203166002900480601f0160208091040260200160405190810160405280929190818152602001828054600181600116156101000203166002900480156130225780601f10612ff757610100808354040283529160200191613022565b820191906000526020600020905b81548152906001019060200180831161300557829003601f168201915b505050505090506000600660008c81526020019081526020016000206007015490506040518061012001604052808c81526020018881526020018773ffffffffffffffffffffffffffffffffffffffff16815260200186815260200185815260200184815260200183815260200182815260200189815250600660008d81526020019081526020016000206000820151816000015560208201518160010190805190602001906130d3929190614617565b5060408201518160020160006101000a81548173ffffffffffffffffffffffffffffffffffffffff021916908373ffffffffffffffffffffffffffffffffffffffff1602179055506060820151816003019080519060200190613137929190614617565b506080820151816004019080519060200190613154929190614617565b5060a0820151816005019080519060200190613171929190614617565b5060c082015181600601908051906020019061318e929190614617565b5060e0820151816007015561010082015181600801559050507f9fb2886cb46464e6b6b8e41368981dcfb776ab3d6b44ca3cc29f4087451d27b88b8833888888888f60405180898152602001806020018873ffffffffffffffffffffffffffffffffffffffff1673ffffffffffffffffffffffffffffffffffffffff1681526020018060200180602001806020018060200187815260200186810386528d818151815260200191508051906020019080838360005b8381101561325e578082015181840152602081019050613243565b50505050905090810190601f16801561328b5780820380516001836020036101000a031916815260200191505b5086810385528b818151815260200191508051906020019080838360005b838110156132c45780820151818401526020810190506132a9565b50505050905090810190601f1680156132f15780820380516001836020036101000a031916815260200191505b5086810384528a818151815260200191508051906020019080838360005b8381101561332a57808201518184015260208101905061330f565b50505050905090810190601f1680156133575780820380516001836020036101000a031916815260200191505b50868103835289818151815260200191508051906020019080838360005b83811015613390578082015181840152602081019050613375565b50505050905090810190601f1680156133bd5780820380516001836020036101000a031916815260200191505b50868103825288818151815260200191508051906020019080838360005b838110156133f65780820151818401526020810190506133db565b50505050905090810190601f1680156134235780820380516001836020036101000a031916815260200191505b509d505050505050505050505050505060405180910390a1600060019050600060019050600190505b60045481116135e9573373ffffffffffffffffffffffffffffffffffffffff16600a600083815260200190815260200160002060030160009054906101000a900473ffffffffffffffffffffffffffffffffffffffff1673ffffffffffffffffffffffffffffffffffffffff161480156134db57508c600a600083815260200190815260200160002060010154145b156135dc5760008b600a6000848152602001908152602001600020600401540190506040518060a001604052808381526020018f81526020018b81526020013373ffffffffffffffffffffffffffffffffffffffff16815260200182815250600a60008481526020019081526020016000206000820151816000015560208201518160010155604082015181600201908051906020019061357d929190614617565b5060608201518160030160006101000a81548173ffffffffffffffffffffffffffffffffffffffff021916908373ffffffffffffffffffffffffffffffffffffffff1602179055506080820151816004015590505060009250506135e9565b808060010191505061344c565b60018214156136de576004600081548092919060010191905055506040518060a0016040528060045481526020018e81526020018a81526020013373ffffffffffffffffffffffffffffffffffffffff1681526020018c815250600a6000600454815260200190815260200160002060008201518160000155602082015181600101556040820151816002019080519060200190613688929190614617565b5060608201518160030160006101000a81548173ffffffffffffffffffffffffffffffffffffffff021916908373ffffffffffffffffffffffffffffffffffffffff160217905550608082015181600401559050505b6002600081548092919060010191905055506040518060c0016040528060025481526020018e81526020018c81526020018d73ffffffffffffffffffffffffffffffffffffffff1681526020013373ffffffffffffffffffffffffffffffffffffffff1681526020016040518060400160405280600181526020017f310000000000000000000000000000000000000000000000000000000000000081525081525060086000600254815260200190815260200160002060008201518160000155602082015181600101556040820151816002015560608201518160030160006101000a81548173ffffffffffffffffffffffffffffffffffffffff021916908373ffffffffffffffffffffffffffffffffffffffff16021790555060808201518160040160006101000a81548173ffffffffffffffffffffffffffffffffffffffff021916908373ffffffffffffffffffffffffffffffffffffffff16021790555060a082015181600501908051906020019061385d929190614617565b5090505050505050505050505050505050565b6006602052806000526040600020600091509050806000015490806001018054600181600116156101000203166002900480601f0160208091040260200160405190810160405280929190818152602001828054600181600116156101000203166002900480156139225780601f106138f757610100808354040283529160200191613922565b820191906000526020600020905b81548152906001019060200180831161390557829003601f168201915b5050505050908060020160009054906101000a900473ffffffffffffffffffffffffffffffffffffffff1690806003018054600181600116156101000203166002900480601f0160208091040260200160405190810160405280929190818152602001828054600181600116156101000203166002900480156139e65780601f106139bb576101008083540402835291602001916139e6565b820191906000526020600020905b8154815290600101906020018083116139c957829003601f168201915b505050505090806004018054600181600116156101000203166002900480601f016020809104026020016040519081016040528092919081815260200182805460018160011615610100020316600290048015613a845780601f10613a5957610100808354040283529160200191613a84565b820191906000526020600020905b815481529060010190602001808311613a6757829003601f168201915b505050505090806005018054600181600116156101000203166002900480601f016020809104026020016040519081016040528092919081815260200182805460018160011615610100020316600290048015613b225780601f10613af757610100808354040283529160200191613b22565b820191906000526020600020905b815481529060010190602001808311613b0557829003601f168201915b505050505090806006018054600181600116156101000203166002900480601f016020809104026020016040519081016040528092919081815260200182805460018160011615610100020316600290048015613bc05780601f10613b9557610100808354040283529160200191613bc0565b820191906000526020600020905b815481529060010190602001808311613ba357829003601f168201915b5050505050908060070154908060080154905089565b60066000828152602001908152602001600020600080820160009055600182016000613c029190614697565b6002820160006101000a81549073ffffffffffffffffffffffffffffffffffffffff0219169055600382016000613c399190614697565b600482016000613c499190614697565b600582016000613c599190614697565b600682016000613c699190614697565b60078201600090556008820160009055505060076000828152602001908152602001600020600080820160009055600182016000613ca79190614697565b600282016000613cb79190614697565b505050565b6000600c60008481526020019081526020016000206001015490506000600c60008581526020019081526020016000206002015490506000600c600086815260200190815260200160002060030160009054906101000a900473ffffffffffffffffffffffffffffffffffffffff1690506000600c600087815260200190815260200160002060040160009054906101000a900473ffffffffffffffffffffffffffffffffffffffff1690506040518060c001604052808781526020018581526020018481526020018373ffffffffffffffffffffffffffffffffffffffff1681526020018273ffffffffffffffffffffffffffffffffffffffff16815260200186815250600c600088815260200190815260200160002060008201518160000155602082015181600101556040820151816002015560608201518160030160006101000a81548173ffffffffffffffffffffffffffffffffffffffff021916908373ffffffffffffffffffffffffffffffffffffffff16021790555060808201518160040160006101000a81548173ffffffffffffffffffffffffffffffffffffffff021916908373ffffffffffffffffffffffffffffffffffffffff16021790555060a0820151816005019080519060200190613e9c929190614617565b50905050505050505050565b60035481565b6000600a60008481526020019081526020016000206001015490506060600a60008581526020019081526020016000206002018054600181600116156101000203166002900480601f016020809104026020016040519081016040528092919081815260200182805460018160011615610100020316600290048015613f755780601f10613f4a57610100808354040283529160200191613f75565b820191906000526020600020905b815481529060010190602001808311613f5857829003601f168201915b505050505090506000600a600086815260200190815260200160002060030160009054906101000a900473ffffffffffffffffffffffffffffffffffffffff169050600084600a6000888152602001908152602001600020600401540390506040518060a001604052808781526020018581526020018481526020018373ffffffffffffffffffffffffffffffffffffffff16815260200182815250600a600088815260200190815260200160002060008201518160000155602082015181600101556040820151816002019080519060200190614054929190614617565b5060608201518160030160006101000a81548173ffffffffffffffffffffffffffffffffffffffff021916908373ffffffffffffffffffffffffffffffffffffffff160217905550608082015181600401559050506003600081548092919060010191905055506040518060c0016040528060035481526020018581526020018681526020018373ffffffffffffffffffffffffffffffffffffffff1681526020013373ffffffffffffffffffffffffffffffffffffffff1681526020016040518060400160405280600181526020017f3100000000000000000000000000000000000000000000000000000000000000815250815250600c6000600354815260200190815260200160002060008201518160000155602082015181600101556040820151816002015560608201518160030160006101000a81548173ffffffffffffffffffffffffffffffffffffffff021916908373ffffffffffffffffffffffffffffffffffffffff16021790555060808201518160040160006101000a81548173ffffffffffffffffffffffffffffffffffffffff021916908373ffffffffffffffffffffffffffffffffffffffff16021790555060a0820151816005019080519060200190614228929190614617565b50905050505050505050565b600b818154811061424157fe5b906000526020600020016000915054906101000a900473ffffffffffffffffffffffffffffffffffffffff1681565b60045481565b600560009054906101000a900473ffffffffffffffffffffffffffffffffffffffff1681565b6060600960008473ffffffffffffffffffffffffffffffffffffffff1673ffffffffffffffffffffffffffffffffffffffff1681526020019081526020016000206000018054600181600116156101000203166002900480601f0160208091040260200160405190810160405280929190818152602001828054600181600116156101000203166002900480156143745780601f1061434957610100808354040283529160200191614374565b820191906000526020600020905b81548152906001019060200180831161435757829003601f168201915b505050505090506060600960008573ffffffffffffffffffffffffffffffffffffffff1673ffffffffffffffffffffffffffffffffffffffff1681526020019081526020016000206001018054600181600116156101000203166002900480601f0160208091040260200160405190810160405280929190818152602001828054600181600116156101000203166002900480156144535780601f1061442857610100808354040283529160200191614453565b820191906000526020600020905b81548152906001019060200180831161443657829003601f168201915b505050505090506060600960008673ffffffffffffffffffffffffffffffffffffffff1673ffffffffffffffffffffffffffffffffffffffff1681526020019081526020016000206002018054600181600116156101000203166002900480601f0160208091040260200160405190810160405280929190818152602001828054600181600116156101000203166002900480156145325780601f1061450757610100808354040283529160200191614532565b820191906000526020600020905b81548152906001019060200180831161451557829003601f168201915b50505050509050604051806080016040528084815260200183815260200182815260200185815250600960008773ffffffffffffffffffffffffffffffffffffffff1673ffffffffffffffffffffffffffffffffffffffff16815260200190815260200160002060008201518160000190805190602001906145b5929190614617565b5060208201518160010190805190602001906145d2929190614617565b5060408201518160020190805190602001906145ef929190614617565b50606082015181600301908051906020019061460c929190614617565b509050505050505050565b828054600181600116156101000203166002900490600052602060002090601f016020900481019282601f1061465857805160ff1916838001178555614686565b82800160010185558215614686579182015b8281111561468557825182559160200191906001019061466a565b5b50905061469391906146df565b5090565b50805460018160011615610100020316600290046000825580601f106146bd57506146dc565b601f0160209004906000526020600020908101906146db91906146df565b5b50565b61470191905b808211156146fd5760008160009055506001016146e5565b5090565b9056fea265627a7a7231582031dfaf0bd05017c150ab06f04f09e71ad50861a5b2fa4927407a77b2a0ec064b64736f6c63430005100032",
  "source": "// SPDX-License-Identifier: MIT\r\npragma solidity >=0.4.22 <0.8.0;\r\n\r\ncontract Medicine {\r\n uint public medicineCount = 0;\r\n uint public usersCount = 0;\r\n uint public orderStatusCount=0;\r\n uint public orderStatusCountEndUser=0;\r\n uint public medicineforendusersCount = 0;\r\n address public admin;\r\n  struct Med {\r\n    uint id;    \r\n    string medname;\r\n    address manufaname;\r\n    string batchNo;\r\n    string manufadate;\r\n    string expdate;\r\n    string category;\r\n    uint price;\r\n    uint quantity;\r\n  }\r\n  mapping(uint => Med) public medicines;\r\n  struct MedDescDirection{\r\n    uint id;\r\n    string description;\r\n    string direction;\r\n  }\r\n   mapping(uint => MedDescDirection ) public meddescdirections;\r\n   struct OrderStatus{\r\n    uint id;\r\n    uint medid;\r\n    uint qty;\r\n    address manufacturer;\r\n    address distributer;\r\n    string status;\r\n    //\"1\" means initiated \"2\" means accepted \"3\" means shipped \"4\" completed\r\n  }\r\n  mapping(uint => OrderStatus ) public orderstatuses;\r\n  struct User {       \r\n    string name;\r\n    string addr;\r\n    string role;\r\n    string approved;    \r\n  } \r\n  \r\n   mapping(address => User) public users;\r\n  struct MedicineForEndUser {       \r\n    uint id;\r\n    uint medicineid;\r\n    string medicinename;\r\n    address distributer ;\r\n    uint qty;\r\n  }  \r\n  mapping(uint => MedicineForEndUser) public medicineforendusers;\r\n  address[] public addresses;\r\n\r\n  struct OrderStatusEndUser{\r\n    uint id;\r\n    uint medid;\r\n    uint qty;\r\n    address distributer;\r\n    address enduser;\r\n    string status;\r\n    //\"1\" means initiated \"2\" means accepted \"3\" means shipped \"4\" completed\r\n  }\r\n  mapping(uint => OrderStatusEndUser ) public orderstatusesofenderusers;\r\n\r\n   // event \r\n    event updatedMedicine (\r\n        uint  id,    \r\n        string medname,\r\n        address manufaname,\r\n        string batchNo,\r\n        string manufadate,\r\n        string expdate,\r\n        string category,\r\n        //uint price,\r\n        uint quantity      \r\n    );\r\n\r\n  constructor() public {  \r\n    admin=msg.sender;    \r\n  }\r\n\r\n function addMedicine (string memory _medname,address _manufaname,string memory  _batchNo,string memory _manufadate,string memory _expdate,string memory _category,uint _price,uint _quantity,string memory _desc,string memory _directions) public {\r\n        medicineCount ++;\r\n        medicines[medicineCount] = Med(medicineCount, _medname,_manufaname,_batchNo, _manufadate,_expdate,_category,_price,_quantity);\r\n        meddescdirections[medicineCount]=MedDescDirection(medicineCount,_desc,_directions);\r\n        //emit addedProduct(productCount,msg.sender,_name,_date,_time,_productinfo);\r\n        emit updatedMedicine(medicineCount, _medname,_manufaname,_batchNo, _manufadate,_expdate,_category,_quantity);\r\n    }\r\n  function updateMedicine (uint _id,string memory _medname,address _manufaname,string memory  _batchNo,string memory _manufadate,string memory _expdate,string memory _category,uint _price) public {\r\n        uint _quanity=medicines[_id].quantity;\r\n        medicines[_id] = Med(_id, _medname,_manufaname,_batchNo, _manufadate,_expdate,_category,_price,_quanity);\r\n        //emit addedProduct(productCount,msg.sender,_name,_date,_time,_productinfo);\r\n        emit updatedMedicine(medicineCount, _medname,_manufaname,_batchNo, _manufadate,_expdate,_category,_quanity);\r\n    } \r\n  function deleteMedicine (uint _id) public {\r\n      delete(medicines[_id]);\r\n      delete  meddescdirections[_id];\r\n\r\n      //emit addedProduct(productCount,msg.sender,_name,_date,_time,_productinfo);\r\n  }  \r\n  function registerRoles (string memory _name,string memory _address,string memory _role,string memory _approved) public {\r\n        require(bytes(users[msg.sender].role).length<=0);\r\n        users[msg.sender] = User(_name,_address,_role,_approved);\r\n        addresses.push(msg.sender);\r\n        usersCount++;\r\n        //emit registeredEvent(msg.sender);\r\n    }\r\n    function approveUser (address _address,string memory _approved) public {\r\n        //require(msg.sender==admin);\r\n        string memory _name=users[_address].name;\r\n        string memory _addr=users[_address].addr;\r\n        string memory _role=users[_address].role;\r\n        users[_address] = User(_name,_addr,_role,_approved);        \r\n        //emit registeredEvent(msg.sender);\r\n    }\r\n    function updateOrderStatus(uint _id,string memory _status) public {      \r\n        uint _medid=orderstatuses[_id].medid;\r\n        uint _qty=orderstatuses[_id].qty; \r\n        address _manufacturer=orderstatuses[_id].manufacturer;\r\n        address _distributer=orderstatuses[_id].distributer;        \r\n        orderstatuses[_id]=OrderStatus(_id,_medid,_qty,_manufacturer,_distributer,_status);        \r\n    }\r\n    function buyMedicineByDistributer(uint _id,address _manufact,uint _qty) public  {\r\n      uint _quanity=medicines[_id].quantity-_qty;\r\n      string memory _medname=medicines[_id].medname;\r\n      address _manufaname=medicines[_id].manufaname;\r\n      string memory _batchNo=medicines[_id].batchNo;\r\n      string memory _manufadate=medicines[_id].manufadate;\r\n      string memory _expdate=medicines[_id].expdate;\r\n      string memory _category=medicines[_id].category;\r\n      uint _price=medicines[_id].price;    \r\n        \r\n      medicines[_id] = Med(_id, _medname,_manufaname,_batchNo,_manufadate,_expdate,_category,_price,_quanity);\r\n\r\n      emit updatedMedicine(_id, _medname,msg.sender,_batchNo, _manufadate,_expdate,_category, _quanity);\r\n       uint _newentry=1;\r\n      uint i=1;\r\n      for(i=1;i<=medicineforendusersCount;i++){\r\n        if((medicineforendusers[i].distributer==msg.sender)&&(medicineforendusers[i].medicineid==_id)){\r\n          uint newqty=medicineforendusers[i].qty+_qty;\r\n          medicineforendusers[i]=MedicineForEndUser(i,_id,_medname,msg.sender,newqty);\r\n          _newentry=0;\r\n          break;\r\n        }\r\n      }\r\n      if(_newentry==1){\r\n        medicineforendusersCount++;\r\n        medicineforendusers[medicineforendusersCount]=MedicineForEndUser(medicineforendusersCount,_id,_medname,msg.sender,_qty);\r\n      }\r\n\r\n      //Status updation\r\n      orderStatusCount++;\r\n      orderstatuses[orderStatusCount]=OrderStatus(orderStatusCount,_id,_qty,_manufact,msg.sender,\"1\");     \r\n      \r\n    }\r\n\r\n    function buyMedicineByEndUser(uint _id,uint _qty) public  {      \r\n          uint _medicineid=medicineforendusers[_id].medicineid;\r\n          string memory _medicinename=medicineforendusers[_id].medicinename;\r\n          address _distributer=medicineforendusers[_id].distributer;     \r\n          uint _newqty=medicineforendusers[_id].qty-_qty;\r\n          medicineforendusers[_id]=MedicineForEndUser(_id,_medicineid,_medicinename,_distributer,_newqty);\r\n          //status update of end user       \r\n          orderStatusCountEndUser++;\r\n          orderstatusesofenderusers[orderStatusCountEndUser]=OrderStatusEndUser(orderStatusCountEndUser,_medicineid,_qty,_distributer,msg.sender,\"1\");\r\n    }\r\n     function updateOrderStatusEndUser(uint _id,string memory _status) public { \r\n        uint _medid=orderstatusesofenderusers[_id].medid;\r\n        uint _qty=orderstatusesofenderusers[_id].qty;         \r\n        address _distributer=orderstatusesofenderusers[_id].distributer; \r\n        address _enduser=orderstatusesofenderusers[_id].enduser;       \r\n        orderstatusesofenderusers[_id]=OrderStatusEndUser(_id,_medid,_qty,_distributer,_enduser,_status);        \r\n    }\r\n}",
  "sourcePath": "C:/Users/srlak/OneDrive/Desktop/Pharma-New/contracts/Medicine.sol",
  "compiler": {
    "name": "solc",
    "version": "0.5.16+commit.9c3226ce.Emscripten.clang"
  },
  "schemaVersion": "3.3.3",
  "updatedAt": "2021-03-23T14:15:50.021Z",
  "networkType": "ethereum",
  "devdoc": {
    "methods": {}
  },
  "userdoc": {
    "methods": {}
  }
}