{
  "contractName": "Medicine",
  "abi": [
    {
      "inputs": [],
      "payable": false,
      "stateMutability": "nonpayable",
      "type": "constructor"
    },
    {
      "anonymous": false,
      "inputs": [
        {
          "indexed": false,
          "internalType": "uint256",
          "name": "id",
          "type": "uint256"
        },
        {
          "indexed": false,
          "internalType": "string",
          "name": "medname",
          "type": "string"
        },
        {
          "indexed": false,
          "internalType": "address",
          "name": "manufaname",
          "type": "address"
        },
        {
          "indexed": false,
          "internalType": "string",
          "name": "batchNo",
          "type": "string"
        },
        {
          "indexed": false,
          "internalType": "string",
          "name": "manufadate",
          "type": "string"
        },
        {
          "indexed": false,
          "internalType": "string",
          "name": "expdate",
          "type": "string"
        },
        {
          "indexed": false,
          "internalType": "string",
          "name": "category",
          "type": "string"
        },
        {
          "indexed": false,
          "internalType": "uint256",
          "name": "quantity",
          "type": "uint256"
        }
      ],
      "name": "updatedMedicine",
      "type": "event"
    },
    {
      "constant": true,
      "inputs": [
        {
          "internalType": "uint256",
          "name": "",
          "type": "uint256"
        }
      ],
      "name": "addresses",
      "outputs": [
        {
          "internalType": "address",
          "name": "",
          "type": "address"
        }
      ],
      "payable": false,
      "stateMutability": "view",
      "type": "function"
    },
    {
      "constant": true,
      "inputs": [],
      "name": "admin",
      "outputs": [
        {
          "internalType": "address",
          "name": "",
          "type": "address"
        }
      ],
      "payable": false,
      "stateMutability": "view",
      "type": "function"
    },
    {
      "constant": true,
      "inputs": [
        {
          "internalType": "uint256",
          "name": "",
          "type": "uint256"
        }
      ],
      "name": "meddescdirections",
      "outputs": [
        {
          "internalType": "uint256",
          "name": "id",
          "type": "uint256"
        },
        {
          "internalType": "string",
          "name": "description",
          "type": "string"
        },
        {
          "internalType": "string",
          "name": "direction",
          "type": "string"
        }
      ],
      "payable": false,
      "stateMutability": "view",
      "type": "function"
    },
    {
      "constant": true,
      "inputs": [],
      "name": "medicineCount",
      "outputs": [
        {
          "internalType": "uint256",
          "name": "",
          "type": "uint256"
        }
      ],
      "payable": false,
      "stateMutability": "view",
      "type": "function"
    },
    {
      "constant": true,
      "inputs": [
        {
          "internalType": "uint256",
          "name": "",
          "type": "uint256"
        }
      ],
      "name": "medicineforendusers",
      "outputs": [
        {
          "internalType": "uint256",
          "name": "id",
          "type": "uint256"
        },
        {
          "internalType": "uint256",
          "name": "medicineid",
          "type": "uint256"
        },
        {
          "internalType": "string",
          "name": "medicinename",
          "type": "string"
        },
        {
          "internalType": "address",
          "name": "distributer",
          "type": "address"
        },
        {
          "internalType": "uint256",
          "name": "qty",
          "type": "uint256"
        }
      ],
      "payable": false,
      "stateMutability": "view",
      "type": "function"
    },
    {
      "constant": true,
      "inputs": [],
      "name": "medicineforendusersCount",
      "outputs": [
        {
          "internalType": "uint256",
          "name": "",
          "type": "uint256"
        }
      ],
      "payable": false,
      "stateMutability": "view",
      "type": "function"
    },
    {
      "constant": true,
      "inputs": [
        {
          "internalType": "uint256",
          "name": "",
          "type": "uint256"
        }
      ],
      "name": "medicines",
      "outputs": [
        {
          "internalType": "uint256",
          "name": "id",
          "type": "uint256"
        },
        {
          "internalType": "string",
          "name": "medname",
          "type": "string"
        },
        {
          "internalType": "address",
          "name": "manufaname",
          "type": "address"
        },
        {
          "internalType": "string",
          "name": "batchNo",
          "type": "string"
        },
        {
          "internalType": "string",
          "name": "manufadate",
          "type": "string"
        },
        {
          "internalType": "string",
          "name": "expdate",
          "type": "string"
        },
        {
          "internalType": "string",
          "name": "category",
          "type": "string"
        },
        {
          "internalType": "uint256",
          "name": "price",
          "type": "uint256"
        },
        {
          "internalType": "uint256",
          "name": "quantity",
          "type": "uint256"
        }
      ],
      "payable": false,
      "stateMutability": "view",
      "type": "function"
    },
    {
      "constant": true,
      "inputs": [],
      "name": "orderStatusCount",
      "outputs": [
        {
          "internalType": "uint256",
          "name": "",
          "type": "uint256"
        }
      ],
      "payable": false,
      "stateMutability": "view",
      "type": "function"
    },
    {
      "constant": true,
      "inputs": [
        {
          "internalType": "uint256",
          "name": "",
          "type": "uint256"
        }
      ],
      "name": "orderstatuses",
      "outputs": [
        {
          "internalType": "uint256",
          "name": "id",
          "type": "uint256"
        },
        {
          "internalType": "uint256",
          "name": "medid",
          "type": "uint256"
        },
        {
          "internalType": "uint256",
          "name": "qty",
          "type": "uint256"
        },
        {
          "internalType": "address",
          "name": "manufacturer",
          "type": "address"
        },
        {
          "internalType": "address",
          "name": "distributer",
          "type": "address"
        },
        {
          "internalType": "string",
          "name": "status",
          "type": "string"
        }
      ],
      "payable": false,
      "stateMutability": "view",
      "type": "function"
    },
    {
      "constant": true,
      "inputs": [
        {
          "internalType": "address",
          "name": "",
          "type": "address"
        }
      ],
      "name": "users",
      "outputs": [
        {
          "internalType": "string",
          "name": "name",
          "type": "string"
        },
        {
          "internalType": "string",
          "name": "addr",
          "type": "string"
        },
        {
          "internalType": "string",
          "name": "role",
          "type": "string"
        },
        {
          "internalType": "string",
          "name": "approved",
          "type": "string"
        }
      ],
      "payable": false,
      "stateMutability": "view",
      "type": "function"
    },
    {
      "constant": true,
      "inputs": [],
      "name": "usersCount",
      "outputs": [
        {
          "internalType": "uint256",
          "name": "",
          "type": "uint256"
        }
      ],
      "payable": false,
      "stateMutability": "view",
      "type": "function"
    },
    {
      "constant": false,
      "inputs": [
        {
          "internalType": "string",
          "name": "_medname",
          "type": "string"
        },
        {
          "internalType": "address",
          "name": "_manufaname",
          "type": "address"
        },
        {
          "internalType": "string",
          "name": "_batchNo",
          "type": "string"
        },
        {
          "internalType": "string",
          "name": "_manufadate",
          "type": "string"
        },
        {
          "internalType": "string",
          "name": "_expdate",
          "type": "string"
        },
        {
          "internalType": "string",
          "name": "_category",
          "type": "string"
        },
        {
          "internalType": "uint256",
          "name": "_price",
          "type": "uint256"
        },
        {
          "internalType": "uint256",
          "name": "_quantity",
          "type": "uint256"
        },
        {
          "internalType": "string",
          "name": "_desc",
          "type": "string"
        },
        {
          "internalType": "string",
          "name": "_directions",
          "type": "string"
        }
      ],
      "name": "addMedicine",
      "outputs": [],
      "payable": false,
      "stateMutability": "nonpayable",
      "type": "function"
    },
    {
      "constant": false,
      "inputs": [
        {
          "internalType": "uint256",
          "name": "_id",
          "type": "uint256"
        },
        {
          "internalType": "string",
          "name": "_medname",
          "type": "string"
        },
        {
          "internalType": "address",
          "name": "_manufaname",
          "type": "address"
        },
        {
          "internalType": "string",
          "name": "_batchNo",
          "type": "string"
        },
        {
          "internalType": "string",
          "name": "_manufadate",
          "type": "string"
        },
        {
          "internalType": "string",
          "name": "_expdate",
          "type": "string"
        },
        {
          "internalType": "string",
          "name": "_category",
          "type": "string"
        },
        {
          "internalType": "uint256",
          "name": "_price",
          "type": "uint256"
        }
      ],
      "name": "updateMedicine",
      "outputs": [],
      "payable": false,
      "stateMutability": "nonpayable",
      "type": "function"
    },
    {
      "constant": false,
      "inputs": [
        {
          "internalType": "uint256",
          "name": "_id",
          "type": "uint256"
        }
      ],
      "name": "deleteMedicine",
      "outputs": [],
      "payable": false,
      "stateMutability": "nonpayable",
      "type": "function"
    },
    {
      "constant": false,
      "inputs": [
        {
          "internalType": "string",
          "name": "_name",
          "type": "string"
        },
        {
          "internalType": "string",
          "name": "_address",
          "type": "string"
        },
        {
          "internalType": "string",
          "name": "_role",
          "type": "string"
        },
        {
          "internalType": "string",
          "name": "_approved",
          "type": "string"
        }
      ],
      "name": "registerRoles",
      "outputs": [],
      "payable": false,
      "stateMutability": "nonpayable",
      "type": "function"
    },
    {
      "constant": false,
      "inputs": [
        {
          "internalType": "address",
          "name": "_address",
          "type": "address"
        },
        {
          "internalType": "string",
          "name": "_approved",
          "type": "string"
        }
      ],
      "name": "approveUser",
      "outputs": [],
      "payable": false,
      "stateMutability": "nonpayable",
      "type": "function"
    },
    {
      "constant": false,
      "inputs": [
        {
          "internalType": "uint256",
          "name": "_id",
          "type": "uint256"
        },
        {
          "internalType": "string",
          "name": "_status",
          "type": "string"
        }
      ],
      "name": "updateOrderStatus",
      "outputs": [],
      "payable": false,
      "stateMutability": "nonpayable",
      "type": "function"
    },
    {
      "constant": false,
      "inputs": [
        {
          "internalType": "uint256",
          "name": "_id",
          "type": "uint256"
        },
        {
          "internalType": "address",
          "name": "_manufact",
          "type": "address"
        },
        {
          "internalType": "uint256",
          "name": "_qty",
          "type": "uint256"
        }
      ],
      "name": "buyMedicineByDistributer",
      "outputs": [],
      "payable": false,
      "stateMutability": "nonpayable",
      "type": "function"
    }
  ],
  "bytecode": "0x60806040526000805560006001556000600255600060035534801561002357600080fd5b5033600460006101000a81548173ffffffffffffffffffffffffffffffffffffffff021916908373ffffffffffffffffffffffffffffffffffffffff160217905550613e44806100746000396000f3fe608060405234801561001057600080fd5b50600436106101165760003560e01c80638cb16cde116100a2578063d19aa54f11610071578063d19aa54f146114a3578063edf26d9b146114d1578063f484bf141461153f578063f851a4401461155d578063ff6ee633146115a757610116565b80638cb16cde14610ebc578063a87430ba14610fab578063ab7dc743146111ac578063c85e766d1461120457610116565b806342f657d0116100e957806342f657d0146108f85780634d06f1c114610a1a5780634dafd49014610b345780636ba13a8214610b5257806374d26a3314610b7057610116565b806319e1eb081461011b578063205fdde6146105955780632adcaa031461065a5780633c30f2e2146108da575b600080fd5b610593600480360361014081101561013257600080fd5b810190808035906020019064010000000081111561014f57600080fd5b82018360208201111561016157600080fd5b8035906020019184600183028401116401000000008311171561018357600080fd5b91908080601f016020809104026020016040519081016040528093929190818152602001838380828437600081840152601f19601f820116905080830192505050505050509192919290803573ffffffffffffffffffffffffffffffffffffffff1690602001909291908035906020019064010000000081111561020657600080fd5b82018360208201111561021857600080fd5b8035906020019184600183028401116401000000008311171561023a57600080fd5b91908080601f016020809104026020016040519081016040528093929190818152602001838380828437600081840152601f19601f8201169050808301925050505050505091929192908035906020019064010000000081111561029d57600080fd5b8201836020820111156102af57600080fd5b803590602001918460018302840111640100000000831117156102d157600080fd5b91908080601f016020809104026020016040519081016040528093929190818152602001838380828437600081840152601f19601f8201169050808301925050505050505091929192908035906020019064010000000081111561033457600080fd5b82018360208201111561034657600080fd5b8035906020019184600183028401116401000000008311171561036857600080fd5b91908080601f016020809104026020016040519081016040528093929190818152602001838380828437600081840152601f19601f820116905080830192505050505050509192919290803590602001906401000000008111156103cb57600080fd5b8201836020820111156103dd57600080fd5b803590602001918460018302840111640100000000831117156103ff57600080fd5b91908080601f016020809104026020016040519081016040528093929190818152602001838380828437600081840152601f19601f82011690508083019250505050505050919291929080359060200190929190803590602001909291908035906020019064010000000081111561047657600080fd5b82018360208201111561048857600080fd5b803590602001918460018302840111640100000000831117156104aa57600080fd5b91908080601f016020809104026020016040519081016040528093929190818152602001838380828437600081840152601f19601f8201169050808301925050505050505091929192908035906020019064010000000081111561050d57600080fd5b82018360208201111561051f57600080fd5b8035906020019184600183028401116401000000008311171561054157600080fd5b91908080601f016020809104026020016040519081016040528093929190818152602001838380828437600081840152601f19601f820116905080830192505050505050509192919290505050611682565b005b610658600480360360408110156105ab57600080fd5b8101908080359060200190929190803590602001906401000000008111156105d257600080fd5b8201836020820111156105e457600080fd5b8035906020019184600183028401116401000000008311171561060657600080fd5b91908080601f016020809104026020016040519081016040528093929190818152602001838380828437600081840152601f19601f820116905080830192505050505050509192919290505050611b13565b005b6108d86004803603608081101561067057600080fd5b810190808035906020019064010000000081111561068d57600080fd5b82018360208201111561069f57600080fd5b803590602001918460018302840111640100000000831117156106c157600080fd5b91908080601f016020809104026020016040519081016040528093929190818152602001838380828437600081840152601f19601f8201169050808301925050505050505091929192908035906020019064010000000081111561072457600080fd5b82018360208201111561073657600080fd5b8035906020019184600183028401116401000000008311171561075857600080fd5b91908080601f016020809104026020016040519081016040528093929190818152602001838380828437600081840152601f19601f820116905080830192505050505050509192919290803590602001906401000000008111156107bb57600080fd5b8201836020820111156107cd57600080fd5b803590602001918460018302840111640100000000831117156107ef57600080fd5b91908080601f016020809104026020016040519081016040528093929190818152602001838380828437600081840152601f19601f8201169050808301925050505050505091929192908035906020019064010000000081111561085257600080fd5b82018360208201111561086457600080fd5b8035906020019184600183028401116401000000008311171561088657600080fd5b91908080601f016020809104026020016040519081016040528093929190818152602001838380828437600081840152601f19601f820116905080830192505050505050509192919290505050611cff565b005b6108e2611eb8565b6040518082815260200191505060405180910390f35b6109246004803603602081101561090e57600080fd5b8101908080359060200190929190505050611ebe565b604051808781526020018681526020018581526020018473ffffffffffffffffffffffffffffffffffffffff1673ffffffffffffffffffffffffffffffffffffffff1681526020018373ffffffffffffffffffffffffffffffffffffffff1673ffffffffffffffffffffffffffffffffffffffff16815260200180602001828103825283818151815260200191508051906020019080838360005b838110156109da5780820151818401526020810190506109bf565b50505050905090810190601f168015610a075780820380516001836020036101000a031916815260200191505b5097505050505050505060405180910390f35b610a4660048036036020811015610a3057600080fd5b8101908080359060200190929190505050611fd2565b604051808481526020018060200180602001838103835285818151815260200191508051906020019080838360005b83811015610a90578082015181840152602081019050610a75565b50505050905090810190601f168015610abd5780820380516001836020036101000a031916815260200191505b50838103825284818151815260200191508051906020019080838360005b83811015610af6578082015181840152602081019050610adb565b50505050905090810190601f168015610b235780820380516001836020036101000a031916815260200191505b509550505050505060405180910390f35b610b3c61212c565b6040518082815260200191505060405180910390f35b610b5a612132565b6040518082815260200191505060405180910390f35b610eba6004803603610100811015610b8757600080fd5b810190808035906020019092919080359060200190640100000000811115610bae57600080fd5b820183602082011115610bc057600080fd5b80359060200191846001830284011164010000000083111715610be257600080fd5b91908080601f016020809104026020016040519081016040528093929190818152602001838380828437600081840152601f19601f820116905080830192505050505050509192919290803573ffffffffffffffffffffffffffffffffffffffff16906020019092919080359060200190640100000000811115610c6557600080fd5b820183602082011115610c7757600080fd5b80359060200191846001830284011164010000000083111715610c9957600080fd5b91908080601f016020809104026020016040519081016040528093929190818152602001838380828437600081840152601f19601f82011690508083019250505050505050919291929080359060200190640100000000811115610cfc57600080fd5b820183602082011115610d0e57600080fd5b80359060200191846001830284011164010000000083111715610d3057600080fd5b91908080601f016020809104026020016040519081016040528093929190818152602001838380828437600081840152601f19601f82011690508083019250505050505050919291929080359060200190640100000000811115610d9357600080fd5b820183602082011115610da557600080fd5b80359060200191846001830284011164010000000083111715610dc757600080fd5b91908080601f016020809104026020016040519081016040528093929190818152602001838380828437600081840152601f19601f82011690508083019250505050505050919291929080359060200190640100000000811115610e2a57600080fd5b820183602082011115610e3c57600080fd5b80359060200191846001830284011164010000000083111715610e5e57600080fd5b91908080601f016020809104026020016040519081016040528093929190818152602001838380828437600081840152601f19601f82011690508083019250505050505050919291929080359060200190929190505050612138565b005b610ee860048036036020811015610ed257600080fd5b8101908080359060200190929190505050612557565b60405180868152602001858152602001806020018473ffffffffffffffffffffffffffffffffffffffff1673ffffffffffffffffffffffffffffffffffffffff168152602001838152602001828103825285818151815260200191508051906020019080838360005b83811015610f6c578082015181840152602081019050610f51565b50505050905090810190601f168015610f995780820380516001836020036101000a031916815260200191505b50965050505050505060405180910390f35b610fed60048036036020811015610fc157600080fd5b81019080803573ffffffffffffffffffffffffffffffffffffffff169060200190929190505050612645565b6040518080602001806020018060200180602001858103855289818151815260200191508051906020019080838360005b8381101561103957808201518184015260208101905061101e565b50505050905090810190601f1680156110665780820380516001836020036101000a031916815260200191505b50858103845288818151815260200191508051906020019080838360005b8381101561109f578082015181840152602081019050611084565b50505050905090810190601f1680156110cc5780820380516001836020036101000a031916815260200191505b50858103835287818151815260200191508051906020019080838360005b838110156111055780820151818401526020810190506110ea565b50505050905090810190601f1680156111325780820380516001836020036101000a031916815260200191505b50858103825286818151815260200191508051906020019080838360005b8381101561116b578082015181840152602081019050611150565b50505050905090810190601f1680156111985780820380516001836020036101000a031916815260200191505b509850505050505050505060405180910390f35b611202600480360360608110156111c257600080fd5b8101908080359060200190929190803573ffffffffffffffffffffffffffffffffffffffff169060200190929190803590602001909291905050506128d5565b005b6112306004803603602081101561121a57600080fd5b81019080803590602001909291905050506134f3565b604051808a8152602001806020018973ffffffffffffffffffffffffffffffffffffffff1673ffffffffffffffffffffffffffffffffffffffff1681526020018060200180602001806020018060200188815260200187815260200186810386528e818151815260200191508051906020019080838360005b838110156112c45780820151818401526020810190506112a9565b50505050905090810190601f1680156112f15780820380516001836020036101000a031916815260200191505b5086810385528c818151815260200191508051906020019080838360005b8381101561132a57808201518184015260208101905061130f565b50505050905090810190601f1680156113575780820380516001836020036101000a031916815260200191505b5086810384528b818151815260200191508051906020019080838360005b83811015611390578082015181840152602081019050611375565b50505050905090810190601f1680156113bd5780820380516001836020036101000a031916815260200191505b5086810383528a818151815260200191508051906020019080838360005b838110156113f65780820151818401526020810190506113db565b50505050905090810190601f1680156114235780820380516001836020036101000a031916815260200191505b50868103825289818151815260200191508051906020019080838360005b8381101561145c578082015181840152602081019050611441565b50505050905090810190601f1680156114895780820380516001836020036101000a031916815260200191505b509e50505050505050505050505050505060405180910390f35b6114cf600480360360208110156114b957600080fd5b8101908080359060200190929190505050613859565b005b6114fd600480360360208110156114e757600080fd5b810190808035906020019092919050505061393f565b604051808273ffffffffffffffffffffffffffffffffffffffff1673ffffffffffffffffffffffffffffffffffffffff16815260200191505060405180910390f35b61154761397b565b6040518082815260200191505060405180910390f35b611565613981565b604051808273ffffffffffffffffffffffffffffffffffffffff1673ffffffffffffffffffffffffffffffffffffffff16815260200191505060405180910390f35b611680600480360360408110156115bd57600080fd5b81019080803573ffffffffffffffffffffffffffffffffffffffff169060200190929190803590602001906401000000008111156115fa57600080fd5b82018360208201111561160c57600080fd5b8035906020019184600183028401116401000000008311171561162e57600080fd5b91908080601f016020809104026020016040519081016040528093929190818152602001838380828437600081840152601f19601f8201169050808301925050505050505091929192905050506139a7565b005b600080815480929190600101919050555060405180610120016040528060005481526020018b81526020018a73ffffffffffffffffffffffffffffffffffffffff168152602001898152602001888152602001878152602001868152602001858152602001848152506005600080548152602001908152602001600020600082015181600001556020820151816001019080519060200190611725929190613d22565b5060408201518160020160006101000a81548173ffffffffffffffffffffffffffffffffffffffff021916908373ffffffffffffffffffffffffffffffffffffffff1602179055506060820151816003019080519060200190611789929190613d22565b5060808201518160040190805190602001906117a6929190613d22565b5060a08201518160050190805190602001906117c3929190613d22565b5060c08201518160060190805190602001906117e0929190613d22565b5060e08201518160070155610100820151816008015590505060405180606001604052806000548152602001838152602001828152506006600080548152602001908152602001600020600082015181600001556020820151816001019080519060200190611850929190613d22565b50604082015181600201908051906020019061186d929190613d22565b509050507f9fb2886cb46464e6b6b8e41368981dcfb776ab3d6b44ca3cc29f4087451d27b86000548b8b8b8b8b8b8a60405180898152602001806020018873ffffffffffffffffffffffffffffffffffffffff1673ffffffffffffffffffffffffffffffffffffffff1681526020018060200180602001806020018060200187815260200186810386528d818151815260200191508051906020019080838360005b8381101561192a57808201518184015260208101905061190f565b50505050905090810190601f1680156119575780820380516001836020036101000a031916815260200191505b5086810385528b818151815260200191508051906020019080838360005b83811015611990578082015181840152602081019050611975565b50505050905090810190601f1680156119bd5780820380516001836020036101000a031916815260200191505b5086810384528a818151815260200191508051906020019080838360005b838110156119f65780820151818401526020810190506119db565b50505050905090810190601f168015611a235780820380516001836020036101000a031916815260200191505b50868103835289818151815260200191508051906020019080838360005b83811015611a5c578082015181840152602081019050611a41565b50505050905090810190601f168015611a895780820380516001836020036101000a031916815260200191505b50868103825288818151815260200191508051906020019080838360005b83811015611ac2578082015181840152602081019050611aa7565b50505050905090810190601f168015611aef5780820380516001836020036101000a031916815260200191505b509d505050505050505050505050505060405180910390a150505050505050505050565b60006007600084815260200190815260200160002060010154905060006007600085815260200190815260200160002060020154905060006007600086815260200190815260200160002060030160009054906101000a900473ffffffffffffffffffffffffffffffffffffffff16905060006007600087815260200190815260200160002060040160009054906101000a900473ffffffffffffffffffffffffffffffffffffffff1690506040518060c001604052808781526020018581526020018481526020018373ffffffffffffffffffffffffffffffffffffffff1681526020018273ffffffffffffffffffffffffffffffffffffffff168152602001868152506007600088815260200190815260200160002060008201518160000155602082015181600101556040820151816002015560608201518160030160006101000a81548173ffffffffffffffffffffffffffffffffffffffff021916908373ffffffffffffffffffffffffffffffffffffffff16021790555060808201518160040160006101000a81548173ffffffffffffffffffffffffffffffffffffffff021916908373ffffffffffffffffffffffffffffffffffffffff16021790555060a0820151816005019080519060200190611cf3929190613d22565b50905050505050505050565b6000600860003373ffffffffffffffffffffffffffffffffffffffff1673ffffffffffffffffffffffffffffffffffffffff1681526020019081526020016000206002018054600181600116156101000203166002900490501115611d6357600080fd5b604051806080016040528085815260200184815260200183815260200182815250600860003373ffffffffffffffffffffffffffffffffffffffff1673ffffffffffffffffffffffffffffffffffffffff1681526020019081526020016000206000820151816000019080519060200190611ddf929190613d22565b506020820151816001019080519060200190611dfc929190613d22565b506040820151816002019080519060200190611e19929190613d22565b506060820151816003019080519060200190611e36929190613d22565b50905050600a3390806001815401808255809150509060018203906000526020600020016000909192909190916101000a81548173ffffffffffffffffffffffffffffffffffffffff021916908373ffffffffffffffffffffffffffffffffffffffff1602179055505060016000815480929190600101919050555050505050565b60025481565b60076020528060005260406000206000915090508060000154908060010154908060020154908060030160009054906101000a900473ffffffffffffffffffffffffffffffffffffffff16908060040160009054906101000a900473ffffffffffffffffffffffffffffffffffffffff1690806005018054600181600116156101000203166002900480601f016020809104026020016040519081016040528092919081815260200182805460018160011615610100020316600290048015611fc85780601f10611f9d57610100808354040283529160200191611fc8565b820191906000526020600020905b815481529060010190602001808311611fab57829003601f168201915b5050505050905086565b6006602052806000526040600020600091509050806000015490806001018054600181600116156101000203166002900480601f0160208091040260200160405190810160405280929190818152602001828054600181600116156101000203166002900480156120845780601f1061205957610100808354040283529160200191612084565b820191906000526020600020905b81548152906001019060200180831161206757829003601f168201915b505050505090806002018054600181600116156101000203166002900480601f0160208091040260200160405190810160405280929190818152602001828054600181600116156101000203166002900480156121225780601f106120f757610100808354040283529160200191612122565b820191906000526020600020905b81548152906001019060200180831161210557829003601f168201915b5050505050905083565b60005481565b60015481565b6000600560008a81526020019081526020016000206008015490506040518061012001604052808a81526020018981526020018873ffffffffffffffffffffffffffffffffffffffff16815260200187815260200186815260200185815260200184815260200183815260200182815250600560008b81526020019081526020016000206000820151816000015560208201518160010190805190602001906121e2929190613d22565b5060408201518160020160006101000a81548173ffffffffffffffffffffffffffffffffffffffff021916908373ffffffffffffffffffffffffffffffffffffffff1602179055506060820151816003019080519060200190612246929190613d22565b506080820151816004019080519060200190612263929190613d22565b5060a0820151816005019080519060200190612280929190613d22565b5060c082015181600601908051906020019061229d929190613d22565b5060e0820151816007015561010082015181600801559050507f9fb2886cb46464e6b6b8e41368981dcfb776ab3d6b44ca3cc29f4087451d27b86000548989898989898860405180898152602001806020018873ffffffffffffffffffffffffffffffffffffffff1673ffffffffffffffffffffffffffffffffffffffff1681526020018060200180602001806020018060200187815260200186810386528d818151815260200191508051906020019080838360005b8381101561236f578082015181840152602081019050612354565b50505050905090810190601f16801561239c5780820380516001836020036101000a031916815260200191505b5086810385528b818151815260200191508051906020019080838360005b838110156123d55780820151818401526020810190506123ba565b50505050905090810190601f1680156124025780820380516001836020036101000a031916815260200191505b5086810384528a818151815260200191508051906020019080838360005b8381101561243b578082015181840152602081019050612420565b50505050905090810190601f1680156124685780820380516001836020036101000a031916815260200191505b50868103835289818151815260200191508051906020019080838360005b838110156124a1578082015181840152602081019050612486565b50505050905090810190601f1680156124ce5780820380516001836020036101000a031916815260200191505b50868103825288818151815260200191508051906020019080838360005b838110156125075780820151818401526020810190506124ec565b50505050905090810190601f1680156125345780820380516001836020036101000a031916815260200191505b509d505050505050505050505050505060405180910390a1505050505050505050565b6009602052806000526040600020600091509050806000015490806001015490806002018054600181600116156101000203166002900480601f01602080910402602001604051908101604052809291908181526020018280546001816001161561010002031660029004801561260f5780601f106125e45761010080835404028352916020019161260f565b820191906000526020600020905b8154815290600101906020018083116125f257829003601f168201915b5050505050908060030160009054906101000a900473ffffffffffffffffffffffffffffffffffffffff16908060040154905085565b6008602052806000526040600020600091509050806000018054600181600116156101000203166002900480601f0160208091040260200160405190810160405280929190818152602001828054600181600116156101000203166002900480156126f15780601f106126c6576101008083540402835291602001916126f1565b820191906000526020600020905b8154815290600101906020018083116126d457829003601f168201915b505050505090806001018054600181600116156101000203166002900480601f01602080910402602001604051908101604052809291908181526020018280546001816001161561010002031660029004801561278f5780601f106127645761010080835404028352916020019161278f565b820191906000526020600020905b81548152906001019060200180831161277257829003601f168201915b505050505090806002018054600181600116156101000203166002900480601f01602080910402602001604051908101604052809291908181526020018280546001816001161561010002031660029004801561282d5780601f106128025761010080835404028352916020019161282d565b820191906000526020600020905b81548152906001019060200180831161281057829003601f168201915b505050505090806003018054600181600116156101000203166002900480601f0160208091040260200160405190810160405280929190818152602001828054600181600116156101000203166002900480156128cb5780601f106128a0576101008083540402835291602001916128cb565b820191906000526020600020905b8154815290600101906020018083116128ae57829003601f168201915b5050505050905084565b60008160056000868152602001908152602001600020600801540390506060600560008681526020019081526020016000206001018054600181600116156101000203166002900480601f01602080910402602001604051908101604052809291908181526020018280546001816001161561010002031660029004801561299e5780601f106129735761010080835404028352916020019161299e565b820191906000526020600020905b81548152906001019060200180831161298157829003601f168201915b5050505050905060006005600087815260200190815260200160002060020160009054906101000a900473ffffffffffffffffffffffffffffffffffffffff1690506060600560008881526020019081526020016000206003018054600181600116156101000203166002900480601f016020809104026020016040519081016040528092919081815260200182805460018160011615610100020316600290048015612a8c5780601f10612a6157610100808354040283529160200191612a8c565b820191906000526020600020905b815481529060010190602001808311612a6f57829003601f168201915b505050505090506060600560008981526020019081526020016000206004018054600181600116156101000203166002900480601f016020809104026020016040519081016040528092919081815260200182805460018160011615610100020316600290048015612b3f5780601f10612b1457610100808354040283529160200191612b3f565b820191906000526020600020905b815481529060010190602001808311612b2257829003601f168201915b505050505090506060600560008a81526020019081526020016000206005018054600181600116156101000203166002900480601f016020809104026020016040519081016040528092919081815260200182805460018160011615610100020316600290048015612bf25780601f10612bc757610100808354040283529160200191612bf2565b820191906000526020600020905b815481529060010190602001808311612bd557829003601f168201915b505050505090506060600560008b81526020019081526020016000206006018054600181600116156101000203166002900480601f016020809104026020016040519081016040528092919081815260200182805460018160011615610100020316600290048015612ca55780601f10612c7a57610100808354040283529160200191612ca5565b820191906000526020600020905b815481529060010190602001808311612c8857829003601f168201915b505050505090506000600560008c81526020019081526020016000206007015490506040518061012001604052808c81526020018881526020018773ffffffffffffffffffffffffffffffffffffffff16815260200186815260200185815260200184815260200183815260200182815260200189815250600560008d8152602001908152602001600020600082015181600001556020820151816001019080519060200190612d56929190613d22565b5060408201518160020160006101000a81548173ffffffffffffffffffffffffffffffffffffffff021916908373ffffffffffffffffffffffffffffffffffffffff1602179055506060820151816003019080519060200190612dba929190613d22565b506080820151816004019080519060200190612dd7929190613d22565b5060a0820151816005019080519060200190612df4929190613d22565b5060c0820151816006019080519060200190612e11929190613d22565b5060e0820151816007015561010082015181600801559050507f9fb2886cb46464e6b6b8e41368981dcfb776ab3d6b44ca3cc29f4087451d27b88b8833888888888f60405180898152602001806020018873ffffffffffffffffffffffffffffffffffffffff1673ffffffffffffffffffffffffffffffffffffffff1681526020018060200180602001806020018060200187815260200186810386528d818151815260200191508051906020019080838360005b83811015612ee1578082015181840152602081019050612ec6565b50505050905090810190601f168015612f0e5780820380516001836020036101000a031916815260200191505b5086810385528b818151815260200191508051906020019080838360005b83811015612f47578082015181840152602081019050612f2c565b50505050905090810190601f168015612f745780820380516001836020036101000a031916815260200191505b5086810384528a818151815260200191508051906020019080838360005b83811015612fad578082015181840152602081019050612f92565b50505050905090810190601f168015612fda5780820380516001836020036101000a031916815260200191505b50868103835289818151815260200191508051906020019080838360005b83811015613013578082015181840152602081019050612ff8565b50505050905090810190601f1680156130405780820380516001836020036101000a031916815260200191505b50868103825288818151815260200191508051906020019080838360005b8381101561307957808201518184015260208101905061305e565b50505050905090810190601f1680156130a65780820380516001836020036101000a031916815260200191505b509d505050505050505050505050505060405180910390a1600060019050600060019050600190505b600354811161326c573373ffffffffffffffffffffffffffffffffffffffff166009600083815260200190815260200160002060030160009054906101000a900473ffffffffffffffffffffffffffffffffffffffff1673ffffffffffffffffffffffffffffffffffffffff1614801561315e57508c6009600083815260200190815260200160002060010154145b1561325f5760008b60096000848152602001908152602001600020600401540190506040518060a001604052808381526020018f81526020018b81526020013373ffffffffffffffffffffffffffffffffffffffff168152602001828152506009600084815260200190815260200160002060008201518160000155602082015181600101556040820151816002019080519060200190613200929190613d22565b5060608201518160030160006101000a81548173ffffffffffffffffffffffffffffffffffffffff021916908373ffffffffffffffffffffffffffffffffffffffff16021790555060808201518160040155905050600092505061326c565b80806001019150506130cf565b6001821415613361576003600081548092919060010191905055506040518060a0016040528060035481526020018e81526020018a81526020013373ffffffffffffffffffffffffffffffffffffffff1681526020018c8152506009600060035481526020019081526020016000206000820151816000015560208201518160010155604082015181600201908051906020019061330b929190613d22565b5060608201518160030160006101000a81548173ffffffffffffffffffffffffffffffffffffffff021916908373ffffffffffffffffffffffffffffffffffffffff160217905550608082015181600401559050505b6002600081548092919060010191905055506040518060c0016040528060025481526020018e81526020018c81526020018d73ffffffffffffffffffffffffffffffffffffffff1681526020013373ffffffffffffffffffffffffffffffffffffffff1681526020016040518060400160405280600181526020017f310000000000000000000000000000000000000000000000000000000000000081525081525060076000600254815260200190815260200160002060008201518160000155602082015181600101556040820151816002015560608201518160030160006101000a81548173ffffffffffffffffffffffffffffffffffffffff021916908373ffffffffffffffffffffffffffffffffffffffff16021790555060808201518160040160006101000a81548173ffffffffffffffffffffffffffffffffffffffff021916908373ffffffffffffffffffffffffffffffffffffffff16021790555060a08201518160050190805190602001906134e0929190613d22565b5090505050505050505050505050505050565b6005602052806000526040600020600091509050806000015490806001018054600181600116156101000203166002900480601f0160208091040260200160405190810160405280929190818152602001828054600181600116156101000203166002900480156135a55780601f1061357a576101008083540402835291602001916135a5565b820191906000526020600020905b81548152906001019060200180831161358857829003601f168201915b5050505050908060020160009054906101000a900473ffffffffffffffffffffffffffffffffffffffff1690806003018054600181600116156101000203166002900480601f0160208091040260200160405190810160405280929190818152602001828054600181600116156101000203166002900480156136695780601f1061363e57610100808354040283529160200191613669565b820191906000526020600020905b81548152906001019060200180831161364c57829003601f168201915b505050505090806004018054600181600116156101000203166002900480601f0160208091040260200160405190810160405280929190818152602001828054600181600116156101000203166002900480156137075780601f106136dc57610100808354040283529160200191613707565b820191906000526020600020905b8154815290600101906020018083116136ea57829003601f168201915b505050505090806005018054600181600116156101000203166002900480601f0160208091040260200160405190810160405280929190818152602001828054600181600116156101000203166002900480156137a55780601f1061377a576101008083540402835291602001916137a5565b820191906000526020600020905b81548152906001019060200180831161378857829003601f168201915b505050505090806006018054600181600116156101000203166002900480601f0160208091040260200160405190810160405280929190818152602001828054600181600116156101000203166002900480156138435780601f1061381857610100808354040283529160200191613843565b820191906000526020600020905b81548152906001019060200180831161382657829003601f168201915b5050505050908060070154908060080154905089565b600560008281526020019081526020016000206000808201600090556001820160006138859190613da2565b6002820160006101000a81549073ffffffffffffffffffffffffffffffffffffffff02191690556003820160006138bc9190613da2565b6004820160006138cc9190613da2565b6005820160006138dc9190613da2565b6006820160006138ec9190613da2565b6007820160009055600882016000905550506006600082815260200190815260200160002060008082016000905560018201600061392a9190613da2565b60028201600061393a9190613da2565b505050565b600a818154811061394c57fe5b906000526020600020016000915054906101000a900473ffffffffffffffffffffffffffffffffffffffff1681565b60035481565b600460009054906101000a900473ffffffffffffffffffffffffffffffffffffffff1681565b6060600860008473ffffffffffffffffffffffffffffffffffffffff1673ffffffffffffffffffffffffffffffffffffffff1681526020019081526020016000206000018054600181600116156101000203166002900480601f016020809104026020016040519081016040528092919081815260200182805460018160011615610100020316600290048015613a7f5780601f10613a5457610100808354040283529160200191613a7f565b820191906000526020600020905b815481529060010190602001808311613a6257829003601f168201915b505050505090506060600860008573ffffffffffffffffffffffffffffffffffffffff1673ffffffffffffffffffffffffffffffffffffffff1681526020019081526020016000206001018054600181600116156101000203166002900480601f016020809104026020016040519081016040528092919081815260200182805460018160011615610100020316600290048015613b5e5780601f10613b3357610100808354040283529160200191613b5e565b820191906000526020600020905b815481529060010190602001808311613b4157829003601f168201915b505050505090506060600860008673ffffffffffffffffffffffffffffffffffffffff1673ffffffffffffffffffffffffffffffffffffffff1681526020019081526020016000206002018054600181600116156101000203166002900480601f016020809104026020016040519081016040528092919081815260200182805460018160011615610100020316600290048015613c3d5780601f10613c1257610100808354040283529160200191613c3d565b820191906000526020600020905b815481529060010190602001808311613c2057829003601f168201915b50505050509050604051806080016040528084815260200183815260200182815260200185815250600860008773ffffffffffffffffffffffffffffffffffffffff1673ffffffffffffffffffffffffffffffffffffffff1681526020019081526020016000206000820151816000019080519060200190613cc0929190613d22565b506020820151816001019080519060200190613cdd929190613d22565b506040820151816002019080519060200190613cfa929190613d22565b506060820151816003019080519060200190613d17929190613d22565b509050505050505050565b828054600181600116156101000203166002900490600052602060002090601f016020900481019282601f10613d6357805160ff1916838001178555613d91565b82800160010185558215613d91579182015b82811115613d90578251825591602001919060010190613d75565b5b509050613d9e9190613dea565b5090565b50805460018160011615610100020316600290046000825580601f10613dc85750613de7565b601f016020900490600052602060002090810190613de69190613dea565b5b50565b613e0c91905b80821115613e08576000816000905550600101613df0565b5090565b9056fea265627a7a723158208625d4c7ecec5d4db09361054309fda32513426b3f121e13d9c9b187ea045fcf64736f6c63430005100032",
  "source": "// SPDX-License-Identifier: MIT\r\npragma solidity >=0.4.22 <0.8.0;\r\n\r\ncontract Medicine {\r\n uint public medicineCount = 0;\r\n uint public usersCount = 0;\r\n uint public orderStatusCount=0;\r\n uint public medicineforendusersCount = 0;\r\n address public admin;\r\n  struct Med {\r\n    uint id;    \r\n    string medname;\r\n    address manufaname;\r\n    string batchNo;\r\n    string manufadate;\r\n    string expdate;\r\n    string category;\r\n    uint price;\r\n    uint quantity;\r\n  }\r\n  mapping(uint => Med) public medicines;\r\n  struct MedDescDirection{\r\n    uint id;\r\n    string description;\r\n    string direction;\r\n  }\r\n   mapping(uint => MedDescDirection ) public meddescdirections;\r\n   struct OrderStatus{\r\n    uint id;\r\n    uint medid;\r\n    uint qty;\r\n    address manufacturer;\r\n    address distributer;\r\n    string status;\r\n    //\"1\" means initiated \"2\" means accepted \"3\" means shipped \"4\" completed\r\n  }\r\n  mapping(uint => OrderStatus ) public orderstatuses;\r\n  struct User {       \r\n    string name;\r\n    string addr;\r\n    string role;\r\n    string approved;    \r\n  } \r\n  \r\n   mapping(address => User) public users;\r\n  struct MedicineForEndUser {       \r\n    uint id;\r\n    uint medicineid;\r\n    string medicinename;\r\n    address distributer ;\r\n    uint qty;\r\n  }  \r\n  mapping(uint => MedicineForEndUser) public medicineforendusers;\r\n  address[] public addresses;\r\n\r\n   // event \r\n    event updatedMedicine (\r\n        uint  id,    \r\n        string medname,\r\n        address manufaname,\r\n        string batchNo,\r\n        string manufadate,\r\n        string expdate,\r\n        string category,\r\n        //uint price,\r\n        uint quantity      \r\n    );\r\n\r\n  constructor() public {  \r\n    admin=msg.sender;    \r\n  }\r\n\r\n function addMedicine (string memory _medname,address _manufaname,string memory  _batchNo,string memory _manufadate,string memory _expdate,string memory _category,uint _price,uint _quantity,string memory _desc,string memory _directions) public {\r\n        medicineCount ++;\r\n        medicines[medicineCount] = Med(medicineCount, _medname,_manufaname,_batchNo, _manufadate,_expdate,_category,_price,_quantity);\r\n        meddescdirections[medicineCount]=MedDescDirection(medicineCount,_desc,_directions);\r\n        //emit addedProduct(productCount,msg.sender,_name,_date,_time,_productinfo);\r\n        emit updatedMedicine(medicineCount, _medname,_manufaname,_batchNo, _manufadate,_expdate,_category,_quantity);\r\n    }\r\n  function updateMedicine (uint _id,string memory _medname,address _manufaname,string memory  _batchNo,string memory _manufadate,string memory _expdate,string memory _category,uint _price) public {\r\n        uint _quanity=medicines[_id].quantity;\r\n        medicines[_id] = Med(_id, _medname,_manufaname,_batchNo, _manufadate,_expdate,_category,_price,_quanity);\r\n        //emit addedProduct(productCount,msg.sender,_name,_date,_time,_productinfo);\r\n        emit updatedMedicine(medicineCount, _medname,_manufaname,_batchNo, _manufadate,_expdate,_category,_quanity);\r\n    } \r\n  function deleteMedicine (uint _id) public {\r\n      delete(medicines[_id]);\r\n      delete  meddescdirections[_id];\r\n\r\n      //emit addedProduct(productCount,msg.sender,_name,_date,_time,_productinfo);\r\n  }  \r\n  function registerRoles (string memory _name,string memory _address,string memory _role,string memory _approved) public {\r\n        require(bytes(users[msg.sender].role).length<=0);\r\n        users[msg.sender] = User(_name,_address,_role,_approved);\r\n        addresses.push(msg.sender);\r\n        usersCount++;\r\n        //emit registeredEvent(msg.sender);\r\n    }\r\n    function approveUser (address _address,string memory _approved) public {\r\n        //require(msg.sender==admin);\r\n        string memory _name=users[_address].name;\r\n        string memory _addr=users[_address].addr;\r\n        string memory _role=users[_address].role;\r\n        users[_address] = User(_name,_addr,_role,_approved);        \r\n        //emit registeredEvent(msg.sender);\r\n    }\r\n    function updateOrderStatus(uint _id,string memory _status) public {      \r\n        uint _medid=orderstatuses[_id].medid;\r\n        uint _qty=orderstatuses[_id].qty; \r\n        address _manufacturer=orderstatuses[_id].manufacturer;\r\n        address _distributer=orderstatuses[_id].distributer;        \r\n        orderstatuses[_id]=OrderStatus(_id,_medid,_qty,_manufacturer,_distributer,_status);        \r\n    }\r\n    function buyMedicineByDistributer(uint _id,address _manufact,uint _qty) public  {\r\n      uint _quanity=medicines[_id].quantity-_qty;\r\n      string memory _medname=medicines[_id].medname;\r\n      address _manufaname=medicines[_id].manufaname;\r\n      string memory _batchNo=medicines[_id].batchNo;\r\n      string memory _manufadate=medicines[_id].manufadate;\r\n      string memory _expdate=medicines[_id].expdate;\r\n      string memory _category=medicines[_id].category;\r\n      uint _price=medicines[_id].price;    \r\n        \r\n      medicines[_id] = Med(_id, _medname,_manufaname,_batchNo,_manufadate,_expdate,_category,_price,_quanity);\r\n\r\n      emit updatedMedicine(_id, _medname,msg.sender,_batchNo, _manufadate,_expdate,_category, _quanity);\r\n       uint _newentry=1;\r\n      uint i=1;\r\n      for(i=1;i<=medicineforendusersCount;i++){\r\n        if((medicineforendusers[i].distributer==msg.sender)&&(medicineforendusers[i].medicineid==_id)){\r\n          uint newqty=medicineforendusers[i].qty+_qty;\r\n          medicineforendusers[i]=MedicineForEndUser(i,_id,_medname,msg.sender,newqty);\r\n          _newentry=0;\r\n          break;\r\n        }\r\n      }\r\n      if(_newentry==1){\r\n        medicineforendusersCount++;\r\n        medicineforendusers[medicineforendusersCount]=MedicineForEndUser(medicineforendusersCount,_id,_medname,msg.sender,_qty);\r\n      }\r\n\r\n      //Status updation\r\n      orderStatusCount++;\r\n      orderstatuses[orderStatusCount]=OrderStatus(orderStatusCount,_id,_qty,_manufact,msg.sender,\"1\");     \r\n      \r\n    }\r\n}",
  "sourcePath": "C:/Users/Rumana Javali/Desktop/Pharma-New/contracts/Medicine.sol",
  "compiler": {
    "name": "solc",
    "version": "0.5.16+commit.9c3226ce.Emscripten.clang"
  },
  "schemaVersion": "3.3.3",
  "updatedAt": "2021-03-17T13:21:46.433Z",
  "networkType": "ethereum",
  "devdoc": {
    "methods": {}
  },
  "userdoc": {
    "methods": {}
  }
}